LISTINO METEL       ARN052783904881/20172017010120170101LISTINO PREZZI ARNOCANALI                                            020                                                 
ARN213             8018138112801Morsetto x 2 tondini Ac-GC                 00010000100001099999940000000024000000000240000001EURPCE0320170101                  95                
ARN334             8018138119800Morsetto lamiere 5 mm/tondino Ac-GC        00010000100001099999940000000050000000000500000001EURPCE0320170101                  94                
ARN335             4011126032444Morsetto lamiere/tondino OTTONE            00005000050000599999940000000079000000000790000001EURPCE0320170101                  94                
ARN382             8018138140668Morsetto gronda/tondino Ac-GC              00010000100001099999940000000061000000000610000001EURPCE0320170101                  94                
ARN384             8018138140675Morsetto lamiere 18mm/tondino Ac-GC        00004000040000499999940000000120000000001200000001EURPCE0320170101                  94                
ARN392             8018138127959Morsetto multiuso tond./tond. Ac-GC        00015000150001599999940000000041000000000410000001EURPCE0320170101                  94                
ARN440             8018138151787Cartuccia di ricambio per 440              00008000080000899999940000000480000000004800000001EURPCE0320170101                  93                
ARN605             8018138115956Supporto max 8 apparecchi modulari         00020000020000299999940000000049000000000490000001EURPCE0320170101                  20                
ARN680             8018138117974Scatola 3-4-5moduli x canali H60/80        00010000100001099999940000000085000000000850000001EURPCE0320170101                  20                
ARN683             8018138120271Scatola 3 moduli x canali H60              00010000100001099999940000000045000000000450000001EURPCE0320170101                  20                
ARN686             8018138120288Scatola 3-4-6 moduli x canali H60          00012000120001299999940000000085000000000850000001EURPCE0320170101                  20                
ARN752             8018138118070Staffa inclinata x guide metalliche        00100001000010099999940000000009500000000095000001EURPCE0320170101                  54                
ARN754             4011126036848Fissatubo d 5-25mm GRIGIO CHIARO           00100001000010099999940000000005800000000058000001EURPCE0320170101                  87                
ARN755             4011126036831Fissatubo d 6-38mm GRIGIO CHIARO           00100001000010099999940000000006500000000065000001EURPCE0320170101                  87                
ARN905             8018138118339Dima di foratura per fianchi canale        00006000060000699999940000000030000000000300000001EURPCE0320170101                  20                
ARN908             8018138120295Cacciavite flessibile esagono 5 mm         00001000010000199999940000000140000000001400000001EURPCE0320170101                  33                
ARN910             8018138120318Cesoia per tranciature su canali           00001000010000199999940000000950000000009500000001EURPCE0320170101                  53                
ARN1053            8018138119213Nastro bimetallico Al/Cu                   00002000020000299999940000000159500000001595000001EURPCE0320170101                  94                
ARN1211            8018138111309Collare per tubi d 90-150 mm RAME          00001000010000199999940000000100000000001000000001EURPCE0320170101                  94                
ARN1410            8018138127638Scaricatore sovratensione analogico        00008000010000199999940000000750000000007500000001EURPCE0320170101                  93                
ARN1440            8018138191479Cartuccia di ricambio per 1440             000080000100001999999B0000000780000000007800000001EURPCE0620170101                  93                
ARN1783            4011126037609Fissatubo d 5-16mm GRIGIO CHIARO           00100001000010099999940000000006300000000063000001EURPCE0320170101                  87                
ARN2405            8018138132441Morsetto per d18-20 RAME NICHELATO         00005000050000599999940000000149000000001490000001EURPCE0320170101                  95                
ARN2440            8018138191394Cartuccia di ricambio per 2440             000010000100001999999B0000002020000000020200000001EURPCE0620170101                  93                
ARN3334            8018138119794Morsetto lamiere 5 mm/tondino RAME         00005000050000599999940000000100000000001000000001EURPCE0320170101                  94                
ARN3372            8018138122633Supporto x coppi 200-350 RAME              00010000100001099999940000000199000000001990000001EURPCE0320170101                  94                
ARN3382            8018138140651Morsetto gronda/tondino RAME               00010000100001099999940000000144000000001440000001EURPCE0320170101                  94                
ARN3392            8018138146707Morsetto multiuso tond./tond. RAME         00005000050000599999940000000123000000001230000001EURPCE0320170101                  94                
ARN27.816          8018138140644Mors.collegamento d.16/10-8 Ac-GC          00005000050000599999940000000105000000001050000001EURPCE0320170101                  94                
ARN393.100         8018138119879Supporto leggero x tetti piani H100        00025000250002599999940000000095000000000950000001EURPCE0320170101                  94                
ARN440.500         8018138191356Cartuccia di ricambio per 440.502          000080000100001999999B0000000450000000004500000001EURPCE0620170101                  93                
ARN440.502         8018138178661Scaricatore per fotovoltaico 500V          00006000060000699999940000000970000000009700000001EURPCE0320170101                  93                
ARN440.550         8018138151848Cartuccia di ricambio per 440.1.550        000080000800008999999B0000000560000000005600000001EURPCE0620170101                  93                
ARN440.800         8018138191363Cartuccia di ricambio per 440.802          000080000100001999999B0000000430000000004300000001EURPCE0620170101                  93                
ARN440.802         8018138178517Scaricatore per fotovoltaico 800V          00004000040000499999940000001280000000012800000001EURPCE0320170101                  93                
ARN440.1000        8018138166002Cartuccia di ricambio per 440.1002         000080000100001999999B0000000470000000004700000001EURPCE0620170101                  93                
ARN440.1002        8018138178500Scaricatore per fotovoltaico 1000V         00004000040000499999940000001450000000014500000001EURPCE0320170101                  93                
ARN60211060        8431927046499Griglia 60X35 ElettroZincata               00024000240002499999940000000052500000000525000001EURLM 0320170101                  56                
ARN60211100        8431927012395Griglia 100X35 ElettroZincata              00024000240002499999940000000053000000000530000001EURLM 0320170101                  56                
ARN60211150        8431927036728Griglia 60X35 ElettroZincata               00024000240002499999940000000069200000000692000001EURLM 0320170101                  56                
ARN60211200        8431927012401Griglia 200X35 ElettroZincata              00018000180001899999940000000082000000000820000001EURLM 0320170101                  56                
ARN60211300        8431927012418Griglia 300X35 ElettroZincata              00018000180001899999940000000109300000001093000001EURLM 0320170101                  56                
ARN60211400        8431927015907Griglia 400X35 ElettroZincata              00012000120001299999940000000149300000001493000001EURLM 0320170101                  56                
ARN60212060        8431927012425Griglia 60x60 ElettroZincata               00024000240002499999940000000054600000000546000001EURLM 0320170101                  56                
ARN60212100        8431927012432Griglia 100X60 ElettroZincata              00024000240002499999940000000068400000000684000001EURLM 0320170101                  56                
ARN60212101        8018138168204Griglia 100X60 ElettroZincata              00024000240002499999940000000068400000000684000001EURLM 0320170101                  56                
ARN60212150        8431927012449Griglia 150X60 ElettroZincata              00024000240002499999940000000076100000000761000001EURLM 0320170101                  56                
ARN60212151        8018138168211Griglia 150X60 ElettroZincata              00024000240002499999940000000076100000000761000001EURLM 0320170101                  56                
ARN60212200        8431927012456Griglia 200X60 ElettroZincata              00018000180001899999940000000093400000000934000001EURLM 0320170101                  56                
ARN60212201        8018138168228Griglia 200X60 ElettroZincata              00018000180001899999940000000093400000000934000001EURLM 0320170101                  56                
ARN60212300        8431927012463Griglia 300X60 ElettroZincata              00012000120001299999940000000127100000001271000001EURLM 0320170101                  56                
ARN60212301        8018138168235Griglia 300X60 ElettroZincata              00012000120001299999940000000127100000001271000001EURLM 0320170101                  56                
ARN60212400        8431927012470Griglia 400X60 ElettroZincata              00006000060000699999940000000168000000001680000001EURLM 0320170101                  56                
ARN60212500        8431927012487Griglia 500X60 ElettroZincata              00006000060000699999940000000193500000001935000001EURLM 0320170101                  56                
ARN60212600        8431927012494Griglia 600x60 ElettroZincata              000060000600006999999B0000000216500000002165000001EURLM 0620170101                  56                
ARN60213100        8431927076823Griglia 100x100 ElettroZincata             00012000120001299999940000000118300000001183000001EURLM 0320170101                  56                
ARN60213150        8431927042606Griglia 150x100 ElettroZincata             00006000060000699999940000000131300000001313000001EURLM 0320170101                  56                
ARN60213200        8431927012500Griglia 200x100 ElettroZincata             00006000060000699999940000000155100000001551000001EURLM 0320170101                  56                
ARN60213300        8431927012517Griglia 300x100 ElettroZincata             00006000060000699999940000000189000000001890000001EURLM 0320170101                  56                
ARN60213400        8431927012524Griglia 400x100 ElettroZincata             00006000060000699999940000000229000000002290000001EURLM 0320170101                  56                
ARN60213500        8431927012531Griglia 500x100 ElettroZincata             00006000060000699999940000000268300000002683000001EURLM 0320170101                  56                
ARN60213600        8431927012548Griglia 600x100 ElettroZincata             000060000600006999999B0000000303000000003030000001EURLM 0620170101                  56                
ARN60214100        8431927016690Griglia 100X75 ElettroZincata              00024000240002499999940000000079000000000790000001EURLM 0320170101                  56                
ARN60214150        8431927016706Griglia 150X75 ElettroZincata              00024000240002499999940000000086000000000860000001EURLM 0320170101                  56                
ARN60214200        8431927016713Griglia 200X75 ElettroZincata              00018000180001899999940000000106500000001065000001EURLM 0320170101                  56                
ARN60214300        8431927016720Griglia 300X75 ElettroZincata              00012000120001299999940000000146500000001465000001EURLM 0320170101                  56                
ARN60214400        8431927044969Griglia 400X75 ElettroZincata              00006000060000699999940000000197000000001970000001EURLM 0320170101                  56                
ARN60221060        8431927046505Griglia 60X35 BICROMO                      00024000240002499999940000000056500000000565000001EURLM 0320170101                  56                
ARN60221100        8431927006479Griglia 100x35 BICROMO                     00024000240002499999940000000059800000000598000001EURLM 0320170101                  56                
ARN60221150        8431927027184Griglia 150X35 BICROMO                     00024000240002499999940000000072200000000722000001EURLM 0320170101                  56                
ARN60221200        8431927006486Griglia 200X35 BICROMO                     00018000180001899999940000000095500000000955000001EURLM 0320170101                  56                
ARN60221300        8431927006493Griglia 300X35 BICROMO                     00018000180001899999940000000124300000001243000001EURLM 0320170101                  56                
ARN60221400        8431927015914Griglia 400X35 BICROMO                     00012000120001299999940000000161500000001615000001EURLM 0320170101                  56                
ARN60222060        8431927006509Griglia 60x60 BICROMO                      00024000240002499999940000000064600000000646000001EURLM 0320170101                  56                
ARN60222100        8431927006516Griglia 100X60 BICROMO                     00024000240002499999940000000077200000000772000001EURLM 0320170101                  56                
ARN60222150        8431927006523Griglia 150X60 BICROMO                     00024000240002499999940000000095400000000954000001EURLM 0320170101                  56                
ARN60222200        8431927006530Griglia 200X60 BICROMO                     00018000180001899999940000000116200000001162000001EURLM 0320170101                  56                
ARN60222300        8431927006547Griglia 300X60 BICROMO                     00012000120001299999940000000171200000001712000001EURLM 0320170101                  56                
ARN60222400        8431927006554Griglia 400X60 BICROMO                     00006000060000699999940000000217800000002178000001EURLM 0320170101                  56                
ARN60222500        8431927006561Griglia 500x60 BICROMO                     00006000060000699999940000000257200000002572000001EURLM 0320170101                  56                
ARN60222600        8431927006578Griglia 600x60 BICROMO                     00006000060000699999940000000301000000003010000001EURLM 0320170101                  56                
ARN60223100        8431927076830Griglia 100x100 BICROMO                    00012000120001299999940000000119200000001192000001EURLM 0320170101                  56                
ARN60223150        8431927085269Griglia 150x100 BICROMO                    00006000060000699999940000000132300000001323000001EURLM 0320170101                  56                
ARN60223200        8431927006585Griglia 200x100 BICROMO                    00006000060000699999940000000172000000001720000001EURLM 0320170101                  56                
ARN60223300        8431927006592Griglia 300x100 BICROMO                    00006000060000699999940000000210000000002100000001EURLM 0320170101                  56                
ARN60223400        8431927006608Griglia 400x100 BICROMO                    00006000060000699999940000000251800000002518000001EURLM 0320170101                  56                
ARN60223500        8431927006615Griglia 500x100 BICROMO                    00006000060000699999940000000292500000002925000001EURLM 0320170101                  56                
ARN60223600        8431927006622Griglia 600x100 BICROMO                    00006000060000699999940000000334800000003348000001EURLM 0320170101                  56                
ARN60231060        8431927046512Griglia 60X35 ZINCATA CALDO                00024000240002499999940000000073000000000730000001EURLM 0320170101                  56                
ARN60231100        8431927006660Griglia 100x35 ZINCATA CALDO               00024000240002499999940000000083500000000835000001EURLM 0320170101                  56                
ARN60231150        8431927040411Griglia 150X35 ZINCATA CALDO               00024000240002499999940000000101500000001015000001EURLM 0320170101                  56                
ARN60231200        8431927006677Griglia 200X35 ZINCATA CALDO               00018000180001899999940000000133500000001335000001EURLM 0320170101                  56                
ARN60231300        8431927006684Griglia 300X35 ZINCATA CALDO               00018000180001899999940000000178000000001780000001EURLM 0320170101                  56                
ARN60231400        8431927015921Griglia 400X35 ZINCATA CALDO               00012000120001299999940000000226000000002260000001EURLM 0320170101                  56                
ARN60232060        8431927006691Griglia 60x60 ZINCATA CALDO                00024000240002499999940000000086500000000865000001EURLM 0320170101                  56                
ARN60232100        8431927006707Griglia 100X60 ZINCATA CALDO               00024000240002499999940000000109000000001090000001EURLM 0320170101                  56                
ARN60232150        8431927006714Griglia 150X60 ZINCATA CALDO               00024000240002499999940000000123000000001230000001EURLM 0320170101                  56                
ARN60232200        8431927006721Griglia 200X60 ZINCATA CALDO               00018000180001899999940000000156000000001560000001EURLM 0320170101                  56                
ARN60232300        8431927006738Griglia 300X60 ZINCATA CALDO               00012000120001299999940000000243000000002430000001EURLM 0320170101                  56                
ARN60232400        8431927006745Griglia 400X60 ZINCATA CALDO               00006000060000699999940000000293000000002930000001EURLM 0320170101                  56                
ARN60232500        8431927006752Griglia 500x60 ZINCATA CALDO               00006000060000699999940000000349000000003490000001EURLM 0320170101                  56                
ARN60232600        8431927006769Griglia 600x60 ZINCATA CALDO               00006000060000699999940000000400500000004005000001EURLM 0320170101                  56                
ARN60233100        8431927076847Griglia 100x100 ZINCATA CALDO              00012000120001299999940000000173500000001735000001EURLM 0320170101                  56                
ARN60233150        8431927085276Griglia 150x100 ZINCATA CALDO              00006000060000699999940000000189000000001890000001EURLM 0320170101                  56                
ARN60233200        8431927006776Griglia 200x100 ZINCATA CALDO              00006000060000699999940000000252000000002520000001EURLM 0320170101                  56                
ARN60233300        8431927006783Griglia 300x100 ZINCATA CALDO              00006000060000699999940000000303000000003030000001EURLM 0320170101                  56                
ARN60233400        8431927006790Griglia 400x100 ZINCATA CALDO              00006000060000699999940000000370000000003700000001EURLM 0320170101                  56                
ARN60233500        8431927006806Griglia 500x100 ZINCATA CALDO              00006000060000699999940000000423000000004230000001EURLM 0320170101                  56                
ARN60233600        8431927006813Griglia 600x100 ZINCATA CALDO              00006000060000699999940000000478000000004780000001EURLM 0320170101                  56                
ARN60251060        8431927046529Griglia 60X35 INOX304                      00024000240002499999940000000171700000001717000001EURLM 0320170101                  56                
ARN60251100        8431927006837Griglia 100x35 INOX304                     000240002400024999999B0000000202400000002024000001EURLM 0620170101                  56                
ARN60251150        8431927092335Griglia 150X35 INOX304                     00024000240002499999940000000271000000002710000001EURLM 0320170101                  56                
ARN60251200        8431927006844Griglia 200X35 INOX304                     000180001800018999999B0000000340000000003400000001EURLM 0620170101                  56                
ARN60251300        8431927006851Griglia 300X35 INOX304                     000180001800018999999B0000000468000000004680000001EURLM 0620170101                  56                
ARN60251400        8431927015938Griglia 400X35 INOX304                     00012000120001299999940000000663000000006630000001EURLM 0320170101                  56                
ARN60252060        8431927006868Griglia 60x60 INOX304                      00024000240002499999940000000196000000001960000001EURLM 0320170101                  56                
ARN60252100        8431927006875Griglia 100X60 INOX304                     00024000240002499999940000000264500000002645000001EURLM 0320170101                  56                
ARN60252150        8431927006882Griglia 150X60 INOX304                     00024000240002499999940000000337000000003370000001EURLM 0320170101                  56                
ARN60252200        8431927006899Griglia 200X60 INOX304                     00018000180001899999940000000426000000004260000001EURLM 0320170101                  56                
ARN60252300        8431927006905Griglia 300X60 INOX304                     00012000120001299999940000000541000000005410000001EURLM 0320170101                  56                
ARN60252400        8431927006912Griglia 400X60 INOX304                     000060000600006999999B0000000662000000006620000001EURLM 0620170101                  56                
ARN60252500        8431927006929Griglia 500x60 INOX304                     00006000060000699999940000000788000000007880000001EURLM 0320170101                  56                
ARN60252600        8431927006936Griglia 600x60 INOX304                     00006000060000699999940000000905000000009050000001EURLM 0320170101                  56                
ARN60253100        8431927036810Griglia 100x100 INOX304                    00012000120001299999940000000432000000004320000001EURLM 0320170101                  56                
ARN60253150        8431927085283Griglia 150x100 INOX304                    00006000060000699999940000000491000000004910000001EURLM 0320170101                  56                
ARN60253200        8431927006943Griglia 200x100 INOX304                    000060000600006999999B0000000561000000005610000001EURLM 0620170101                  56                
ARN60253300        8431927006950Griglia 300x100 INOX304                    00006000060000699999940000000677000000006770000001EURLM 0320170101                  56                
ARN60253400        8431927006967Griglia 400x100 INOX304                    000060000600006999999B0000000816000000008160000001EURLM 0620170101                  56                
ARN60253500        8431927006974Griglia 500x100 INOX304                    000060000600006999999B0000000986000000009860000001EURLM 0620170101                  56                
ARN60253600        8431927006981Griglia 600x100 INOX304                    00006000060000699999940000001054000000010540000001EURLM 0320170101                  56                
ARN60261060        8431927046536Griglia 60X35 INOX316                      00024000240002499999940000000203000000002030000001EURLM 0320170101                  56                
ARN60261100        8431927018465Griglia 100x35 INOX316                     00024000240002499999940000000256000000002560000001EURLM 0320170101                  56                
ARN60261150        8431927092342Griglia 150X35 INOX316                     00024000240002499999940000000351000000003510000001EURLM 0320170101                  56                
ARN60261200        8431927018472Griglia 200X35 INOX316                     00018000180001899999940000000446000000004460000001EURLM 0320170101                  56                
ARN60261300        8431927018489Griglia 300X35 INOX316                     00018000180001899999940000000595000000005950000001EURLM 0320170101                  56                
ARN60261400        8431927018496Griglia 400X35 INOX316                     00012000120001299999940000000815000000008150000001EURLM 0320170101                  56                
ARN60262060        8431927018502Griglia 60x60 INOX316                      00024000240002499999940000000247000000002470000001EURLM 0320170101                  56                
ARN60262100        8431927014726Griglia 100X60 INOX316                     00024000240002499999940000000334000000003340000001EURLM 0320170101                  56                
ARN60262150        8431927014733Griglia 150X60 INOX316                     00024000240002499999940000000430000000004300000001EURLM 0320170101                  56                
ARN60262200        8431927014740Griglia 200X60 INOX316                     00018000180001899999940000000550000000005500000001EURLM 0320170101                  56                
ARN60262300        8431927014757Griglia 300X60 INOX316                     00012000120001299999940000000700000000007000000001EURLM 0320170101                  56                
ARN60262400        8431927014764Griglia 400X60 INOX316                     00006000060000699999940000000870000000008700000001EURLM 0320170101                  56                
ARN60262500        8431927014771Griglia 100x100 INOX316                    00006000060000699999940000001045000000010450000001EURLM 0320170101                  56                
ARN60262600        8431927014788Griglia 150x100 INOX316                    00006000060000699999940000001360000000013600000001EURLM 0320170101                  56                
ARN60263100        8431927042620Griglia 100x100 INOX316                    00012000120001299999940000000555000000005550000001EURLM 0320170101                  56                
ARN60263150        8431927042637Griglia 150x100 INOX316                    00006000060000699999940000000605000000006050000001EURLM 0320170101                  56                
ARN60263200        8431927018519Griglia 200x100 INOX316                    00006000060000699999940000000738000000007380000001EURLM 0320170101                  56                
ARN60263300        8431927018526Griglia 300x100 INOX316                    00006000060000699999940000000890000000008900000001EURLM 0320170101                  56                
ARN60263400        8431927018533Griglia 400x100 INOX316                    00006000060000699999940000001050000000010500000001EURLM 0320170101                  56                
ARN60263500        8431927018540Griglia 500x100 INOX316                    00006000060000699999940000001195000000011950000001EURLM 0320170101                  56                
ARN60263600        8431927018557Griglia 600x100 INOX316                    00006000060000699999940000001360000000013600000001EURLM 0320170101                  56                
ARN60281060        8431927087225Griglia 60X35 acciaio C8 NERO              000240002400024999999B0000000065000000000650000001EURLM 0120170101                  56                
ARN60281100        8431927087232Griglia 100X35 acciaio C8 NERO             000240002400024999999B0000000074000000000740000001EURLM 0120170101                  56                
ARN60281150        8431927087249Griglia 60X35 acciaio C8 NERO              000240002400024999999B0000000091000000000910000001EURLM 0120170101                  56                
ARN60281200        8431927087256Griglia 200X35 acciaio C8 NERO             000180001800018999999B0000000119000000001190000001EURLM 0120170101                  56                
ARN60281300        8431927087263Griglia 300X35 acciaio C8 NERO             000180001800018999999B0000000158000000001580000001EURLM 0120170101                  56                
ARN60281400        8431927087270Griglia 400X35 acciaio C8 NERO             000120001200012999999B0000000204000000002040000001EURLM 0120170101                  56                
ARN60282060        8431927087287Griglia 60x60 acciaio C8 NERO              00024000240002499999940000000073000000000730000001EURLM 0320170101                  56                
ARN60282100        8431927087294Griglia 100X60 acciaio C8 NERO             00024000240002499999940000000094000000000940000001EURLM 0320170101                  56                
ARN60282150        8431927087300Griglia 150X60 acciaio C8 NERO             00024000240002499999940000000111000000001110000001EURLM 0320170101                  56                
ARN60282200        8431927087317Griglia 200X60 acciaio C8 NERO             00018000180001899999940000000135000000001350000001EURLM 0320170101                  56                
ARN60282300        8431927087324Griglia 300X60 acciaio C8 NERO             00012000120001299999940000000206000000002060000001EURLM 0320170101                  56                
ARN60282400        8431927087331Griglia 400X60 acciaio C8 NERO             00006000060000699999940000000257000000002570000001EURLM 0320170101                  56                
ARN60282500        8431927087348Griglia 500X60 acciaio C8 NERO             00006000060000699999940000000300000000003000000001EURLM 0320170101                  56                
ARN60282600        8431927087355Griglia 600x60 acciaio C8 NERO             00006000060000699999940000000336000000003360000001EURLM 0320170101                  56                
ARN60283100        8431927087362Griglia 100x100 acciaio C8 NERO            000120001200012999999B0000000152500000001525000001EURLM 0120170101                  56                
ARN60283150        8431927087379Griglia 150x100 acciaio C8 NERO            000060000600006999999B0000000165500000001655000001EURLM 0120170101                  56                
ARN60283200        8431927087386Griglia 200x100 acciaio C8 NERO            000060000600006999999B0000000219500000002195000001EURLM 0120170101                  56                
ARN60283300        8431927087393Griglia 300x100 acciaio C8 NERO            000060000600006999999B0000000263000000002630000001EURLM 0120170101                  56                
ARN60283400        8431927087409Griglia 400x100 acciaio C8 NERO            000060000600006999999B0000000324500000003245000001EURLM 0120170101                  56                
ARN60283500        8431927087416Griglia 500x100 acciaio C8 NERO            000060000600006999999B0000000379000000003790000001EURLM 0120170101                  56                
ARN60283600        8431927087423Griglia 600x100 acciaio C8 NERO            000060000600006999999B0000000426000000004260000001EURLM 0120170101                  56                
ARN60512060        8431927088307Griglia CLICK 60x60 ElettroZincata         00024000240002499999940000000076500000000765000001EURLM 0320170101                  56                
ARN60512100        8431927088314Griglia CLICK 100X60 ElettroZincata        00024000240002499999940000000088500000000885000001EURLM 0320170101                  56                
ARN60512150        8431927088321Griglia CLICK 150X60 ElettroZincata        00024000240002499999940000000106000000001060000001EURLM 0320170101                  56                
ARN60512200        8431927088338Griglia CLICK 200X60 ElettroZincata        00018000180001899999940000000127000000001270000001EURLM 0320170101                  56                
ARN60512300        8431927088345Griglia CLICK 300X60 ElettroZincata        00012000120001299999940000000182500000001825000001EURLM 0320170101                  56                
ARN60512400        8431927088352Griglia CLICK 400X60 ElettroZincata        00006000060000699999940000000222500000002225000001EURLM 0320170101                  56                
ARN60512500        8431927088369Griglia CLICK 500X60 ElettroZincata        00006000060000699999940000000268000000002680000001EURLM 0320170101                  56                
ARN60512600        8431927088376Griglia CLICK 600x60 ElettroZincata        00006000060000699999940000000299000000002990000001EURLM 0320170101                  56                
ARN60522060        8431927088383Griglia CLICK 60x60 BICROMO                00024000240002499999940000000078000000000780000001EURLM 0320170101                  56                
ARN60522100        8431927088390Griglia CLICK 100X60 BICROMO               00024000240002499999940000000090300000000903000001EURLM 0320170101                  56                
ARN60522150        8431927088406Griglia CLICK 150X60 BICROMO               00024000240002499999940000000108500000001085000001EURLM 0320170101                  56                
ARN60522200        8431927088413Griglia CLICK 200X60 BICROMO               00018000180001899999940000000129000000001290000001EURLM 0320170101                  56                
ARN60522300        8431927088420Griglia CLICK 300X60 BICROMO               00012000120001299999940000000186200000001862000001EURLM 0320170101                  56                
ARN60522400        8431927088437Griglia CLICK 400X60 BICROMO               00006000060000699999940000000233000000002330000001EURLM 0320170101                  56                
ARN60522500        8431927088444Griglia CLICK 100x100 BICROMO              00006000060000699999940000000272500000002725000001EURLM 0320170101                  56                
ARN60522600        8431927088451Griglia CLICK 150x100 BICROMO              00006000060000699999940000000316500000003165000001EURLM 0320170101                  56                
ARN62011060        8431927012579Supporto per canale 60x60 Ac-EZ            00275000250002599999940000000020200000000202000001EURPCE0320170101                  57                
ARN62016020        8431927044631Supporto a soffitto leggero Ac-EZ          00010000100001099999940000000057700000000577000001EURPCE0320170101                  57                
ARN62016021        8431927044600Supporto a parete leggero Ac-EZ            00400000100001099999940000000014500000000145000001EURPCE0320170101                  57                
ARN62016022        8431927065988Supporto leggero 60 Ac-EZ                  00150000100001099999940000000045700000000457000001EURPCE0320170101                  57                
ARN62021060        8431927006998Supporto per canale 60x60 Ac-BC            00275000250002599999940000000020200000000202000001EURPCE0320170101                  57                
ARN62021104        8431927045355Supporto Omega Click L100 Ac-GS            00005000050000599999940000000047300000000473000001EURPCE0320170101                  57                
ARN62021154        8431927045362Supporto Omega Click L150 Ac-GS            00005000050000599999940000000057300000000573000001EURPCE0320170101                  57                
ARN62021204        8431927045379Supporto Omega Click L200 Ac-GS            00005000050000599999940000000067200000000672000001EURPCE0320170101                  57                
ARN62021304        8431927045386Supporto Omega Click L300 Ac-GS            00005000050000599999940000000077300000000773000001EURPCE0320170101                  57                
ARN62021404        8431927045393Supporto Omega Click L400 Ac-GS            00005000050000599999940000000094000000000940000001EURPCE0320170101                  57                
ARN62021504        8431927045409Attacco a soffitto Omega L500 Ac-GS        00005000050000599999940000000115000000001150000001EURPCE0320170101                  57                
ARN62021604        8431927045416Attacco a soffitto Omega L600 Ac-GS        000050000500005999999B0000000137300000001373000001EURPCE0620170101                  57                
ARN62022104        8431927045423Supporto soffitto Click L100 Ac-GS         00004000040000499999940000000083000000000830000001EURPCE0320170101                  57                
ARN62022154        8431927045430Supporto soffitto Click L150 Ac-GS         00004000040000499999940000000086500000000865000001EURPCE0320170101                  57                
ARN62022204        8431927045447Supporto soffitto Click L200 Ac-GS         00004000040000499999940000000102600000001026000001EURPCE0320170101                  57                
ARN62022304        8431927045454Supporto soffitto Click L300 Ac-GS         00004000040000499999940000000115000000001150000001EURPCE0320170101                  57                
ARN62022404        8431927045461Supporto soffitto Click L400 Ac-GS         00004000040000499999940000000141500000001415000001EURPCE0320170101                  57                
ARN62025103        8431927039811Supporto rinforzato Click L100 AcGS        00004000040000499999940000000055700000000557000001EURPCE0320170101                  57                
ARN62025153        8431927039828Supporto rinforzato Click L150 AcGS        00004000040000499999940000000063000000000630000001EURPCE0320170101                  57                
ARN62025203        8431927039835Supporto rinforzato Click L200 AcGS        00004000040000499999940000000070700000000707000001EURPCE0320170101                  57                
ARN62025303        8431927039842Supporto rinforzato Click L300 AcGS        00004000040000499999940000000086300000000863000001EURPCE0320170101                  57                
ARN62025403        8431927039859Supporto rinforzato Click L400 AcGS        00004000040000499999940000000124000000001240000001EURPCE0320170101                  57                
ARN62025503        8431927039866Supporto rinforzato Click L500 AcGS        00004000040000499999940000000160800000001608000001EURPCE0320170101                  57                
ARN62025603        8431927039873Supporto rinforzato Click L600 AcGS        000040000400004999999B0000000181000000001810000001EURPCE0620170101                  57                
ARN62026010        8431927007186Mini Supporto Ac-GS                        00100000100001099999940000000025300000000253000001EURPCE0320170101                  57                
ARN62026011        8431927007193Supporto universale Ac-GS                  00070000100001099999940000000049800000000498000001EURPCE0320170101                  57                
ARN62026020        8431927044648Supporto a soffitto leggero Ac-BC          00010000100001099999940000000058800000000588000001EURPCE0320170101                  57                
ARN62026021        8431927044617Supporto a parete leggero Ac-BC            00400000100001099999940000000014700000000147000001EURPCE0320170101                  57                
ARN62026022        8431927065995Supporto leggero 60 Ac-BC                  00150000100001099999940000000045700000000457000001EURPCE0320170101                  57                
ARN62031060        8431927007247Supporto per canale 60x60 Ac-GC            00275000250002599999940000000029400000000294000001EURPCE0320170101                  57                
ARN62031084        8431927045874Protezione per profilo omega               00200000500005099999940000000005300000000053000001EURPCE0320170101                  57                
ARN62031085        8431927036858Tassello protezione profilo omega          00400000500005099999940000000005800000000058000001EURPCE0320170101                  57                
ARN62031090        8431927045171Connettore E90 Ac-GC                       00060000600006099999940000000042200000000422000001EURPCE0320170101                  57                
ARN62031104        8431927045478Supporto Omega Click L100 Ac-GC            00005000050000599999940000000071800000000718000001EURPCE0320170101                  57                
ARN62031154        8431927045485Supporto Omega Click L150 Ac-GC            00005000050000599999940000000096500000000965000001EURPCE0320170101                  57                
ARN62031204        8431927045492Supporto Omega Click L200 Ac-GC            00005000050000599999940000000121600000001216000001EURPCE0320170101                  57                
ARN62031304        8431927045508Supporto Omega Click L300 Ac-GC            00005000050000599999940000000145000000001450000001EURPCE0320170101                  57                
ARN62031404        8431927045515Supporto Omega Click L400 Ac-GC            00005000050000599999940000000172000000001720000001EURPCE0320170101                  57                
ARN62031504        8431927045522Attacco a soffitto Omega L500 Ac-GC        00005000050000599999940000000206000000002060000001EURPCE0320170101                  57                
ARN62031604        8431927045539Attacco a soffitto Omega L600 Ac-GC        00005000050000599999940000000233500000002335000001EURPCE0320170101                  57                
ARN62032104        8431927045546Supporto soffitto Click L100 Ac-GC         00004000040000499999940000000119000000001190000001EURPCE0320170101                  57                
ARN62032154        8431927045553Supporto soffitto Click L150 Ac-GC         00004000040000499999940000000157000000001570000001EURPCE0320170101                  57                
ARN62032204        8431927045560Supporto soffitto Click L200 Ac-GC         00004000040000499999940000000180000000001800000001EURPCE0320170101                  57                
ARN62032304        8431927045577Supporto soffitto Click L300 Ac-GC         00004000040000499999940000000207000000002070000001EURPCE0320170101                  57                
ARN62032404        8431927045584Supporto soffitto Click L400 Ac-GC         00004000040000499999940000000240000000002400000001EURPCE0320170101                  57                
ARN62035001        8431927044525Connettore E90 Ac-GC                       00015000150001599999940000000046300000000463000001EURPCE0320170101                  57                
ARN62035103        8431927039880Supporto rinforzato Click L100 AcGC        00004000040000499999940000000108000000001080000001EURPCE0320170101                  57                
ARN62035153        8431927039897Supporto rinforzato Click L150 AcGC        00004000040000499999940000000121500000001215000001EURPCE0320170101                  57                
ARN62035203        8431927039903Supporto rinforzato Click L200 AcGC        00004000040000499999940000000136500000001365000001EURPCE0320170101                  57                
ARN62035303        8431927039910Supporto rinforzato Click L300 AcGC        00004000040000499999940000000161500000001615000001EURPCE0320170101                  57                
ARN62035403        8431927039927Supporto rinforzato Click L400 AcGC        00004000040000499999940000000220500000002205000001EURPCE0320170101                  57                
ARN62035503        8431927039934Supporto rinforzato Click L500 AcGC        00004000040000499999940000000309000000003090000001EURPCE0320170101                  57                
ARN62035603        8431927039941Supporto rinforzato Click L600 AcGC        00004000040000499999940000000340000000003400000001EURPCE0320170101                  57                
ARN62035703        8431927066091Supporto rinforzato Click L700 AcGC        000040000400004999999B0000000760000000007600000001EURPCE0120170101                  57                
ARN62035753        8431927066299Supporto rinforzato Click L750 AcGC        000040000400004999999B0000000930000000009300000001EURPCE0120170101                  57                
ARN62035803        8431927066107Supporto rinforzato Click L800 AcGC        000040000400004999999B0000000980000000009800000001EURPCE0120170101                  57                
ARN62035903        8431927066114Supporto rinforzato Click L900 AcGC        000040000400004999999B0000001060000000010600000001EURPCE0120170101                  57                
ARN62035993        8431927066121Supporto rinforz. Click L1000 AcGC         000040000400004999999B0000001140000000011400000001EURPCE0120170101                  57                
ARN62036010        8431927007667Mini Supporto Ac-GC                        00100000100001099999940000000034800000000348000001EURPCE0320170101                  57                
ARN62036011        8431927007674Supporto universale Ac-GC                  00070000100001099999940000000087500000000875000001EURPCE0320170101                  57                
ARN62036020        8431927044655Supporto a soffitto leggero Ac-GC          00010000100001099999940000000086500000000865000001EURPCE0320170101                  57                
ARN62036021        8431927044624Supporto a parete leggero Ac-GC            00400000100001099999940000000024100000000241000001EURPCE0320170101                  57                
ARN62036022        8431927066008Supporto leggero 60 Ac-GC                  00150000100001099999940000000063300000000633000001EURPCE0320170101                  57                
ARN62037002        8431927046185Kit variabile per supporto Ac-GC           00004000040000499999940000000163000000001630000001EURPCE0320170101                  57                
ARN62051104        8431927078223Supporto Omega Click L100 INOX304          00005000050000599999940000000138500000001385000001EURPCE0320170101                  57                
ARN62051154        8431927078230Supporto Omega Click L150 INOX304          00005000050000599999940000000157500000001575000001EURPCE0320170101                  57                
ARN62051204        8431927078247Supporto Omega Click L200 INOX304          00005000050000599999940000000231000000002310000001EURPCE0320170101                  57                
ARN62051304        8431927078254Supporto Omega Click L300 INOX304          00005000050000599999940000000282000000002820000001EURPCE0320170101                  57                
ARN62051404        8431927078261Supporto Omega Click L400 INOX304          00005000050000599999940000000345000000003450000001EURPCE0320170101                  57                
ARN62051504        8431927078278Attacco soffitto Omega L500 INOX304        00005000050000599999940000000394000000003940000001EURPCE0320170101                  57                
ARN62051604        8431927078285Attacco soffitto Omega L600 INOX304        00005000050000599999940000000450000000004500000001EURPCE0320170101                  57                
ARN62052104        8431927078292Supporto soffitto L100 INOX316             00004000040000499999940000000252000000002520000001EURPCE0320170101                  57                
ARN62052154        8431927078308Supporto soffitto L150 INOX316             00004000040000499999940000000270000000002700000001EURPCE0320170101                  57                
ARN62052204        8431927078315Supporto soffitto L200 INOX316             00004000040000499999940000000360000000003600000001EURPCE0320170101                  57                
ARN62052304        8431927078322Supporto soffitto L300 INOX316             00004000040000499999940000000431000000004310000001EURPCE0320170101                  57                
ARN62052404        8431927078339Supporto soffitto L400 INOX316             00004000040000499999940000000490000000004900000001EURPCE0320170101                  57                
ARN62055103        8431927078346Supporto rinforzato L100 INOX304           00004000040000499999940000000241000000002410000001EURPCE0320170101                  57                
ARN62055153        8431927078353Supporto rinforzato L150 INOX304           00004000040000499999940000000265000000002650000001EURPCE0320170101                  57                
ARN62055203        8431927078360Supporto rinforzato L200 INOX304           00004000040000499999940000000297000000002970000001EURPCE0320170101                  57                
ARN62055303        8431927078377Supporto rinforzato L300 INOX304           00004000040000499999940000000368000000003680000001EURPCE0320170101                  57                
ARN62055403        8431927078384Supporto rinforzato L400 INOX304           00004000040000499999940000000605000000006050000001EURPCE0320170101                  57                
ARN62055503        8431927078391Supporto rinforzato L500 INOX304           00004000040000499999940000000682000000006820000001EURPCE0320170101                  57                
ARN62055603        8431927078407Supporto rinforzato L600 INOX304           00004000040000499999940000000775000000007750000001EURPCE0320170101                  57                
ARN62061060        8431927018564Supporto per canale 60x60 INOX316          00275000250002599999940000000056800000000568000001EURPCE0320170101                  57                
ARN62061104        8431927045591Supporto Omega Click L100 INOX316          00005000050000599999940000000195000000001950000001EURPCE0320170101                  57                
ARN62061154        8431927045607Supporto Omega Click L150 INOX316          00005000050000599999940000000220000000002200000001EURPCE0320170101                  57                
ARN62061204        8431927045614Supporto Omega Click L200 INOX316          00005000050000599999940000000304000000003040000001EURPCE0320170101                  57                
ARN62061304        8431927045621Supporto Omega Click L300 INOX316          00005000050000599999940000000375000000003750000001EURPCE0320170101                  57                
ARN62061404        8431927045638Supporto Omega Click L400 INOX316          00005000050000599999940000000457000000004570000001EURPCE0320170101                  57                
ARN62061504        8431927045645Attacco soffitto Omega L500 INOX316        00005000050000599999940000000523000000005230000001EURPCE0320170101                  57                
ARN62061604        8431927045652Attacco soffitto Omega L600 INOX316        00005000050000599999940000000598000000005980000001EURPCE0320170101                  57                
ARN62062104        8431927045669Supporto soffitto L100 INOX316             00004000040000499999940000000345000000003450000001EURPCE0320170101                  57                
ARN62062154        8431927045676Supporto soffitto L150 INOX316             00004000040000499999940000000370000000003700000001EURPCE0320170101                  57                
ARN62062204        8431927045683Supporto soffitto L200 INOX316             00004000040000499999940000000475000000004750000001EURPCE0320170101                  57                
ARN62062304        8431927045690Supporto soffitto L300 INOX316             00004000040000499999940000000555000000005550000001EURPCE0320170101                  57                
ARN62062404        8431927045706Supporto soffitto L400 INOX316             00004000040000499999940000000645000000006450000001EURPCE0320170101                  57                
ARN62065103        8431927040022Supporto rinforzato L100 INOX316           00004000040000499999940000000213300000002133000001EURPCE0320170101                  57                
ARN62065153        8431927040039Supporto rinforzato L150 INOX316           00004000040000499999940000000253000000002530000001EURPCE0320170101                  57                
ARN62065203        8431927040046Supporto rinforzato L200 INOX316           00004000040000499999940000000287000000002870000001EURPCE0320170101                  57                
ARN62065303        8431927040053Supporto rinforzato L300 INOX316           00004000040000499999940000000355000000003550000001EURPCE0320170101                  57                
ARN62065403        8431927040060Supporto rinforzato L400 INOX316           000040000400004999999B0000000530000000005300000001EURPCE0620170101                  57                
ARN62065503        8431927040077Supporto rinforzato L500 INOX316           000040000400004999999B0000000603000000006030000001EURPCE0620170101                  57                
ARN62065603        8431927040084Supporto rinforzato L600 INOX316           000040000400004999999B0000000705000000007050000001EURPCE0620170101                  57                
ARN62066010        8431927018762Mini Supporto INOX316                      00100000100001099999940000000130000000001300000001EURPCE0320170101                  57                
ARN62066011        8431927018779Supporto universale INOX316                00070000100001099999940000000293000000002930000001EURPCE0320170101                  57                
ARN62066022        8431927066015Supporto leggero 60 INOX316                00150000100001099999940000000116000000001160000001EURPCE0320170101                  57                
ARN62081060        8431927087430Supporto per canale 60x60 Ac-C8            00275000250002599999940000000029400000000294000001EURPCE0320170101                  57                
ARN62081104        8431927087980Supporto Omega Click L100 Ac-C8            00005000050000599999940000000071800000000718000001EURPCE0320170101                  57                
ARN62081154        8431927087997Supporto Omega Click L150 Ac-C8            00005000050000599999940000000096500000000965000001EURPCE0320170101                  57                
ARN62081204        8431927088000Supporto Omega Click L200 Ac-C8            00005000050000599999940000000121600000001216000001EURPCE0320170101                  57                
ARN62081304        8431927088017Supporto Omega Click L300 Ac-C8            00005000050000599999940000000145000000001450000001EURPCE0320170101                  57                
ARN62081404        8431927088024Supporto Omega Click L400 Ac-C8            00005000050000599999940000000172000000001720000001EURPCE0320170101                  57                
ARN62081504        8431927088031Attacco a soffitto Omega L500 Ac-C8        00005000050000599999940000000206000000002060000001EURPCE0320170101                  57                
ARN62081604        8431927088048Attacco a soffitto Omega L600 Ac-C8        00005000050000599999940000000233500000002335000001EURPCE0320170101                  57                
ARN62082104        8431927088055Supporto soffitto Click L100 Ac-C8         00004000040000499999940000000119000000001190000001EURPCE0320170101                  57                
ARN62082154        8431927088062Supporto soffitto Click L150 Ac-C8         00004000040000499999940000000157000000001570000001EURPCE0320170101                  57                
ARN62082204        8431927088079Supporto soffitto Click L200 Ac-C8         00004000040000499999940000000180000000001800000001EURPCE0320170101                  57                
ARN62082304        8431927088086Supporto soffitto Click L300 Ac-C8         00004000040000499999940000000207000000002070000001EURPCE0320170101                  57                
ARN62082404        8431927088093Supporto soffitto Click L400 Ac-C8         00004000040000499999940000000240000000002400000001EURPCE0320170101                  57                
ARN62085103        8431927088109Supporto rinforzato Click L100 AcGC        00004000040000499999940000000108000000001080000001EURPCE0320170101                  57                
ARN62085153        8431927088116Supporto rinforzato Click L150 AcGC        00004000040000499999940000000121500000001215000001EURPCE0320170101                  57                
ARN62085203        8431927088123Supporto rinforzato Click L200 AcGC        00004000040000499999940000000136500000001365000001EURPCE0320170101                  57                
ARN62085303        8431927088130Supporto rinforzato Click L300 AcGC        00004000040000499999940000000161500000001615000001EURPCE0320170101                  57                
ARN62085403        8431927088147Supporto rinforzato Click L400 AcGC        00004000040000499999940000000220500000002205000001EURPCE0320170101                  57                
ARN62085503        8431927088154Supporto rinforzato Click L500 AcGC        00004000040000499999940000000309000000003090000001EURPCE0320170101                  57                
ARN62085603        8431927088161Supporto rinforzato Click L600 AcGC        00004000040000499999940000000340000000003400000001EURPCE0320170101                  57                
ARN62086010        8431927087447Mini Supporto Ac-C8                        00100000100001099999940000000034800000000348000001EURPCE0320170101                  57                
ARN62086011        8431927087454Supporto universale Ac-C8                  00070000100001099999940000000087500000000875000001EURPCE0320170101                  57                
ARN62086020        8431927087461Supporto a soffitto leggero Ac-C8          00010000100001099999940000000086500000000865000001EURPCE0320170101                  57                
ARN62086021        8431927087478Supporto a parete leggero Ac-C8            00400000100001099999940000000024100000000241000001EURPCE0320170101                  57                
ARN62086022        8431927087485Supporto leggero 60 Ac-C8                  00150000100001099999940000000063300000000633000001EURPCE0320170101                  57                
ARN63022104        8431927049087Sospensione Click L100 Ac-GS               00010000100001099999940000000038500000000385000001EURPCE0320170101                  57                
ARN63022154        8431927049094Sospensione Click L150 Ac-GS               00010000100001099999940000000042900000000429000001EURPCE0320170101                  57                
ARN63022204        8431927045713Sospensione Click L200 Ac-GS               00010000100001099999940000000052000000000520000001EURPCE0320170101                  57                
ARN63022304        8431927045720Sospensione Click L300 Ac-GS               00010000100001099999940000000060200000000602000001EURPCE0320170101                  57                
ARN63022404        8431927045737Sospensione Click L400 Ac-GS               00010000100001099999940000000074000000000740000001EURPCE0320170101                  57                
ARN63022504        8431927045744Sospensione Click L500 Ac-GS               00010000100001099999940000000077500000000775000001EURPCE0320170101                  57                
ARN63022604        8431927045751Sospensione Click L600 Ac-GS               00010000100001099999940000000107500000001075000001EURPCE0320170101                  57                
ARN63032104        8431927049100Sospensione Click L100 Ac-GC               00010000100001099999940000000061000000000610000001EURPCE0320170101                  57                
ARN63032154        8431927049117Sospensione Click L150 Ac-GC               00010000100001099999940000000072500000000725000001EURPCE0320170101                  57                
ARN63032204        8431927045768Sospensione Click L200 Ac-GC               00010000100001099999940000000085000000000850000001EURPCE0320170101                  57                
ARN63032304        8431927045775Sospensione Click L300 Ac-GC               00010000100001099999940000000101500000001015000001EURPCE0320170101                  57                
ARN63032404        8431927045782Sospensione Click L400 Ac-GC               00010000100001099999940000000125000000001250000001EURPCE0320170101                  57                
ARN63032504        8431927045799Sospensione Click L500 Ac-GC               00010000100001099999940000000146000000001460000001EURPCE0320170101                  57                
ARN63032604        8431927045805Sospensione Click L600 Ac-GC               00010000100001099999940000000180000000001800000001EURPCE0320170101                  57                
ARN63034103        8431927066138Supporto simmetrico 2x100 Ac-GC            00004000040000499999940000000158000000001580000001EURPCE0320170101                  57                
ARN63034153        8431927066145Supporto simmetrico 2x150 Ac-GC            00004000040000499999940000000197000000001970000001EURPCE0320170101                  57                
ARN63034203        8431927066152Supporto simmetrico 2x200 Ac-GC            00004000040000499999940000000290000000002900000001EURPCE0320170101                  57                
ARN63034303        8431927066169Supporto simmetrico 2x300 Ac-GC            00004000040000499999940000000386000000003860000001EURPCE0320170101                  57                
ARN63082104        8431927088178Sospensione Click L100 AC-C8               00010000100001099999940000000061000000000610000001EURPCE0320170101                  57                
ARN63082154        8431927088185Sospensione Click L150 AC-C8               00010000100001099999940000000072500000000725000001EURPCE0320170101                  57                
ARN63082204        8431927088192Sospensione Click L200 AC-C8               00010000100001099999940000000085000000000850000001EURPCE0320170101                  57                
ARN63082304        8431927088208Sospensione Click L300 AC-C8               00010000100001099999940000000101500000001015000001EURPCE0320170101                  57                
ARN63082404        8431927088215Sospensione Click L400 AC-C8               00010000100001099999940000000125000000001250000001EURPCE0320170101                  57                
ARN63082504        8431927088222Sospensione Click L500 AC-C8               00010000100001099999940000000146000000001460000001EURPCE0320170101                  57                
ARN63082604        8431927088239Sospensione Click L600 AC-C8               00010000100001099999940000000180000000001800000001EURPCE0320170101                  57                
ARN64010020        8431927012586Giunto CLICK Ac-EZ                         00100000250002599999940000000025500000000255000001EURPCE0320170101                  57                
ARN64010035        8431927044570Giunto rapido CLICK Ac-EZ                  00200000500005099999940000000042500000000425000001EURPCE0320170101                  57                
ARN64010036        8431927044549Giunto base CLICK Ac-EZ                    00160000100001099999940000000043300000000433000001EURPCE0320170101                  57                
ARN64010038        8431927090638Giunto CLICK 4 Ac-EZ                       00340000200002099999940000000030600000000306000001EURPCE0320170101                  57                
ARN64010040        8431927090645Giunto CLICK 5 Ac-EZ                       00340000200002099999940000000030600000000306000001EURPCE0320170101                  57                
ARN64010041        8431927012593Placca di giunzione laterale Ac-EZ         00200000500005099999940000000017000000000170000001EURPCE0320170101                  57                
ARN64010059        8431927008435Dado flangiato M6 Ac-EZ                    00100001000010099999940000000076000000000760000100EURPCE0320170101                  57                
ARN64010060        8431927012609Morsetto di fissaggio Ac-EZ                01100000500005099999940000000007900000000079000001EURPCE0320170101                  57                
ARN64010061        8431927012616Giunto rinforzato Ac-EZ                    00700000500005099999940000000009400000000094000001EURPCE0320170101                  57                
ARN64010062        8431927012623Piastrina di fissaggio Ac-EZ               02000000500005099999940000000003900000000039000001EURPCE0320170101                  57                
ARN64010072        8431927066022Giunto rapido curve Ac-EZ                  01500000500005099999940000000011100000000111000001EURPCE0320170101                  57                
ARN64020030        8431927008442Giunto CLICK Ac-BC                         00100000250002599999940000000027100000000271000001EURPCE0320170101                  57                
ARN64020035        8431927044587Giunto rapido CLICK Ac-BC                  00200000500005099999940000000042500000000425000001EURPCE0320170101                  57                
ARN64020036        8431927044556Giunto base CLICK Ac-BC                    00160000100001099999940000000045800000000458000001EURPCE0320170101                  57                
ARN64020038        8431927090652Giunto CLICK 4 Ac-GC                       00340000200002099999940000000033600000000336000001EURPCE0320170101                  57                
ARN64020040        8431927090669Giunto CLICK 5 Ac-GC                       00340000200002099999940000000033600000000336000001EURPCE0320170101                  57                
ARN64020041        8431927008459Placca di giunzione laterale Ac-BC         00200000500005099999940000000021000000000210000001EURPCE0320170101                  57                
ARN64020059        8431927008466Dado flangiato M6 Ac-BC                    00100001000010099999940000000082000000000820000100EURPCE0320170101                  57                
ARN64020060        8431927008473Morsetto di fissaggio Ac-BC                01100000500005099999940000000008900000000089000001EURPCE0320170101                  57                
ARN64020061        8431927008480Giunto rinforzato Ac-BC                    00700000500005099999940000000012600000000126000001EURPCE0320170101                  57                
ARN64020062        8431927008497Piastrina di fissaggio Ac-BC               02000000500005099999940000000003900000000039000001EURPCE0320170101                  57                
ARN64020072        8431927066039Giunto rapido curve Ac-BC                  01500000500005099999940000000011100000000111000001EURPCE0320170101                  57                
ARN64030030        8431927036896Giunto CLICK Ac-GC                         00100000250002599999940000000036500000000365000001EURPCE0320170101                  57                
ARN64030035        8431927044594Giunto rapido CLICK Ac-GC                  00200000500005099999940000000049500000000495000001EURPCE0320170101                  57                
ARN64030036        8431927044563Giunto base CLICK Ac-GC                    00160000100001099999940000000048000000000480000001EURPCE0320170101                  57                
ARN64030041        8431927008503Placca di giunzione laterale Ac-GC         00200000500005099999940000000021800000000218000001EURPCE0320170101                  57                
ARN64030059        8431927008510Dado flangiato M6 Ac-GC                    00100001000010099999940000000140000000001400000100EURPCE0320170101                  57                
ARN64030060        8431927008527Morsetto di fissaggio Ac-GC                01100000500005099999940000000010200000000102000001EURPCE0320170101                  57                
ARN64030061        8431927008534Giunto rinforzato Ac-GC                    00700000500005099999940000000017600000000176000001EURPCE0320170101                  57                
ARN64030062        8431927008541Piastrina di fissaggio Ac-GC               02000000500005099999940000000005400000000054000001EURPCE0320170101                  57                
ARN64030072        8431927066046Giunto rapido curve Ac-GC                  01500000500005099999940000000015500000000155000001EURPCE0320170101                  57                
ARN64030160        8431927046277Morsetto di fissaggio 6X30 Ac-GC           01100000500005099999940000000011900000000119000001EURPCE0320170101                  57                
ARN64060041        8431927018786Placca giunzione laterale INOX316          002000005000050999999B0000000062000000000620000001EURPCE0620170101                  57                
ARN64060059        8431927018793Dado flangiato M6 INOX316                  00100001000010099999940000000005900000000059000001EURPCE0320170101                  57                
ARN64060060        8431927014818Morsetto di fissaggio INOX316              01100000500005099999940000000035000000000350000001EURPCE0320170101                  57                
ARN64060061        8431927014825Giunto rinforzato INOX316                  00700000500005099999940000000044400000000444000001EURPCE0320170101                  57                
ARN64060062        8431927014832Piastrina di fissaggio INOX316             02000000500005099999940000000015200000000152000001EURPCE0320170101                  57                
ARN64080030        8431927088246Giunto CLICK Ac-C8                         00100000250002599999940000000036500000000365000001EURPCE0320170101                  57                
ARN64080035        8431927087492Giunto rapido CLICK Ac-C8                  00200000500005099999940000000049500000000495000001EURPCE0320170101                  57                
ARN64080036        8431927087508Giunto base CLICK Ac-C8                    00160000100001099999940000000048000000000480000001EURPCE0320170101                  57                
ARN64080041        8431927087515Placca di giunzione laterale Ac-C8         00200000500005099999940000000021800000000218000001EURPCE0320170101                  57                
ARN64080060        8431927088260Morsetto di fissaggio Ac-C8                01100000500005099999940000000010400000000104000001EURPCE0320170101                  57                
ARN64080061        8431927088277Giunto rinforzato Ac-C8                    00700000500005099999940000000017600000000176000001EURPCE0320170101                  57                
ARN64080072        8431927087522Giunto rapido curve Ac-C8                  01500000500005099999940000000015500000000155000001EURPCE0320170101                  57                
ARN67010016        8431927092854Uscita per cavi Ac-GS                      00100000010000199999940000000072000000000720000001EURPCE0320170101                  57                
ARN67010030        8431927044662Supporto x corpi illuminanti Ac-EZ         00050000100001099999940000000067300000000673000001EURPCE0320170101                  57                
ARN67010040        8431927012630Supporto per tubi Ac-EZ                    00110000100001099999940000000045200000000452000001EURPCE0320170101                  57                
ARN67010043        8431927015945Sospensione centrale Click M8 Ac-EZ        00240000200002099999940000000021900000000219000001EURPCE0320170101                  57                
ARN67010046        8431927012654Sospensione centrale M8 Ac-EZ              00720000200002099999940000000011900000000119000001EURPCE0320170101                  57                
ARN67010053        8431927012685Giunto multiplo Ac-EZ                      00360000100001099999940000000024600000000246000001EURPCE0320170101                  57                
ARN67010056        8431927044310Dado per profili M8 Ac-EZ                  00800001000010099999940000000013900000000139000001EURPCE0320170101                  57                
ARN67010065        8431927044327Vite esagonale M8x20 Ac-EZ                 00100001000010099999940000000290000000002900000100EURPCE0320170101                  57                
ARN67010066        8431927044334Vite esagonale M8x35 Ac-EZ                 00100001000010099999940000000410000000004100000100EURPCE0320170101                  57                
ARN67010093        8431927080516Kit vite/dado M6x12 QST Ac-EZ              02000001000010099999940000000002400000000024000001EURPCE0320170101                  57                
ARN67010099        8431927008602Vite 6x12 QST Ac-EZ                        00100001000010099999940000000079000000000790000100EURPCE0320170101                  57                
ARN67010100        8431927008619Vite 6x20 QST Ac-EZ                        00100001000010099999940000000135000000001350000100EURPCE0320170101                  57                
ARN67010140        8431927008626Barra filettata M6 L500 Ac-GS              00050000010000199999940000000020900000000209000001EURPCE0320170101                  57                
ARN67010141        8431927008633Barra filettata M6 L1000 Ac-GS             00050000010000199999940000000027800000000278000001EURPCE0320170101                  57                
ARN67010143        8431927015952Sospensione centrale Click M6 Ac-EZ        00240000200002099999940000000021900000000219000001EURPCE0320170101                  57                
ARN67020010        8431927008718Vite esagonale M6x15 Ac-EZ                 00100001000010099999940000000910000000009100000100EURPCE0320170101                  57                
ARN67020013        8431927008725Rondella piana M10 Ac-BC                   00100001000010099999940000000123000000001230000100EURPCE0320170101                  57                
ARN67020014        8431927008732Dado esagonale M10 Ac-BC                   00100001000010099999940000000199000000001990000100EURPCE0320170101                  57                
ARN67020020        8431927046208Piede metallico 45 Ac-GS                   00010000100001099999940000000042500000000425000001EURPCE0320170101                  57                
ARN67020030        8431927044679Supporto x corpi illuminanti Ac-BC         00050000100001099999940000000067300000000673000001EURPCE0320170101                  57                
ARN67020039        8431927008749Uscita per cavi a fibra ottica             00080000100001099999940000000043400000000434000001EURPCE0320170101                  57                
ARN67020040        8431927008756Supporto per tubi Ac-GC                    00110000100001099999940000000048400000000484000001EURPCE0320170101                  57                
ARN67020043        8431927015976Sospensione centrale Click M8 Ac-BC        00240000200002099999940000000021900000000219000001EURPCE0320170101                  57                
ARN67020044        8431927008770Barra filettata M8 L500 Ac-BC              00050000010000199999940000000026000000000260000001EURPCE0320170101                  57                
ARN67020045        8431927008787Barra filettata M8 L1000 Ac-BC             00050000010000199999940000000035000000000350000001EURPCE0320170101                  57                
ARN67020046        8431927008794Sospensione centrale M8 Ac-BC              00720000200002099999940000000013000000000130000001EURPCE0320170101                  57                
ARN67020048        8431927014672Aggancio variab. x barre filettate         00025000010000199999940000000148000000001480000001EURPCE0320170101                  57                
ARN67020053        8431927008848Giunto multiplo Ac-BC                      00360000100001099999940000000026600000000266000001EURPCE0320170101                  57                
ARN67020054        8431927008855Vite esagonale M10x60 Ac-EZ                00100001000010099999940000000140000000001400000100EURPCE0320170101                  57                
ARN67020055        8431927008862Dado per profili M6 Ac-EZ                  00800001000010099999940000000013900000000139000001EURPCE0320170101                  57                
ARN67020058        8431927008879Dado M10 con molla x profili 21 EZ         00600001000010099999940000000013900000000139000001EURPCE0320170101                  57                
ARN67020059        8431927008886Vite esagonale M10x20 Ac-EZ                00100001000010099999940000000440000000004400000100EURPCE0320170101                  57                
ARN67020061        8431927008893Rondella piana M10 Ac-EZ                   00100001000010099999940000000123000000001230000100EURPCE0320170101                  57                
ARN67020062        8431927008909Dado esagonale M8 Ac-BC                    00100001000010099999940000000099000000000990000100EURPCE0320170101                  57                
ARN67020063        8431927008916Rondella piana M8 Ac-BC                    00100001000010099999940000000057500000000575000100EURPCE0320170101                  57                
ARN67020065        8431927015181Vite esagono incassato M10x20 Ac-EZ        00050000500005099999940000000012500000000125000001EURPCE0320170101                  57                
ARN67020067        8431927008923Manicotto filettato M8 Ac-BC               01250000500005099999940000000018400000000184000001EURPCE0320170101                  57                
ARN67020077        8431927008930Vite esagonale M10x35 Ac-EZ                00100001000010099999940000000550000000005500000100EURPCE0320170101                  57                
ARN67020079        8431927008947Dado esagonale M10 Ac-EZ                   00100001000010099999940000000199000000001990000100EURPCE0320170101                  57                
ARN67020083        8431927008954Rondella piana M8 Ac-EZ                    00100001000010099999940000000074500000000745000100EURPCE0320170101                  57                
ARN67020084        8431927008961Rondella dentellata M8                     00100001000010099999940000000144000000001440000100EURPCE0320170101                  57                
ARN67020086        8431927008978Rondella dentellata M10                    00100001000010099999940000000213000000002130000100EURPCE0320170101                  57                
ARN67020092        8431927008985Vite esagonale M8X65 Ac-EZ                 00100001000010099999940000000400000000004000000100EURPCE0320170101                  57                
ARN67020095        8431927008992Dado esagonale M8 Ac-EZ                    00100001000010099999940000000099000000000990000100EURPCE0320170101                  57                
ARN67020098        8431927009012Vite con punta conica M10x20 Ac-BC         00010000100001099999940000000010900000000109000001EURPCE0320170101                  57                
ARN67020100        8431927009029Vite 6x20 QST Ac-BC                        00100001000010099999940000000320000000003200000100EURPCE0320170101                  57                
ARN67020110        8431927045812Sospensione Click L1000 Ac-GS              00001000010000199999940000000176000000001760000001EURPCE0320170101                  57                
ARN67020111        8018138192261Sospensione Click L2000 Ac-GS              00001000010000199999940000000445000000004450000001EURPCE0320170101                  57                
ARN67020112        8431927045836Sospensione Click L3000 Ac-GS              00001000010000199999940000000665000000006650000001EURPCE0320170101                  57                
ARN67020120        8431927046215Piede metallico 90 Ac-GS                   00010000100001099999940000000048000000000480000001EURPCE0320170101                  57                
ARN67020140        8431927016065Barra filettata M6 L500 Ac-BC              00050000010000199999940000000038500000000385000001EURPCE0320170101                  57                
ARN67020141        8431927016072Barra filettata M6 L1000 Ac-BC             00050000010000199999940000000041800000000418000001EURPCE0320170101                  57                
ARN67020143        8431927015983Sospensione centrale Click M6 Ac-BC        00240000200002099999940000000021900000000219000001EURPCE0320170101                  57                
ARN67020145        8431927009036Barra filettata M10 L1000 Ac-BC            00050000010000199999940000000080500000000805000001EURPCE0320170101                  57                
ARN67020158        8431927045188Dado M10 con molla x profili 41 EZ         00600001000010099999940000000013900000000139000001EURPCE0320170101                  57                
ARN67020159        8431927045225Vite M10 con molla x profili EZ            00300000500005099999940000000022800000000228000001EURPCE0320170101                  57                
ARN67020520        8431927066176Distanziatore CLICK L100 Ac-GS             00160000100001099999940000000065500000000655000001EURPCE0320170101                  57                
ARN67020522        8431927066183Distanziatore CLICK L200 Ac-GS             00080000100001099999940000000078500000000785000001EURPCE0320170101                  57                
ARN67020524        8431927066190Distanziatore CLICK L300 Ac-GS             00060000100001099999940000000090500000000905000001EURPCE0320170101                  57                
ARN67020610        8018138910698Parete divisoria CLICK H25 Ac-GS           00060000600006099999940000000051500000000515000001EURLM 0320170101                  57                
ARN67020611        8018138900309Parete divisoria CLICK H50 Ac-GS           00048000480004899999940000000059900000000599000001EURLM 0320170101                  57                
ARN67020612        8018138906479Parete divisoria CLICK H80 Ac-GS           00036000360003699999940000000089900000000899000001EURLM 0320170101                  57                
ARN67030010        8431927044341Vite esagonale M10x60 Ac-GC                00100001000010099999940000001550000000015500000100EURPCE0320170101                  57                
ARN67030013        8431927044358Rondella piana M10 Ac-GC                   00100001000010099999940000000174000000001740000100EURPCE0320170101                  57                
ARN67030014        8431927044365Dado esagonale M10 Ac-GC                   00100001000010099999940000000490000000004900000100EURPCE0320170101                  57                
ARN67030016        8431927092861Uscita per cavi Ac-GC                      00100000010000199999940000000112000000001120000001EURPCE0320170101                  57                
ARN67030020        8431927046291Piede metallico 45 Ac-GC                   00010000100001099999940000000069000000000690000001EURPCE0320170101                  57                
ARN67030030        8431927044686Supporto x corpi illuminanti Ac-GC         00050000100001099999940000000080000000000800000001EURPCE0320170101                  57                
ARN67030043        8431927016003Sospensione centrale Click M8 Ac-GC        00240000200002099999940000000040000000000400000001EURPCE0320170101                  57                
ARN67030046        8431927009050Sospensione centrale M8 Ac-GC              00720000200002099999940000000018100000000181000001EURPCE0320170101                  57                
ARN67030047        8431927009067Giunto multiplo Ac-GC                      00360000100001099999940000000033000000000330000001EURPCE0320170101                  57                
ARN67030052        8431927009074Profilo pesante 41x21 Ac-GS                00003000030000399999940000000162000000001620000001EURLM 0320170101                  57                
ARN67030053        8431927009081Profilo pesante 41x41 Ac-GS                00003000030000399999940000000188000000001880000001EURLM 0320170101                  57                
ARN67030055        8431927009098Profilo pesante 41x21 Ac-GC                00003000030000399999940000000195000000001950000001EURLM 0320170101                  57                
ARN67030056        8431927044372Dado per profili M8 Ac-GC                  00800001000010099999940000000016100000000161000001EURPCE0320170101                  57                
ARN67030057        8431927009104Profilo pesante 41x41 Ac-GC                00003000030000399999940000000258000000002580000001EURLM 0320170101                  57                
ARN67030058        8431927044389Dado M10 con molla x profili 21 GC         00600001000010099999940000000016100000000161000001EURPCE0320170101                  57                
ARN67030059        8431927044396Vite esagonale M10x20 Ac-GC                00100001000010099999940000000660000000006600000100EURPCE0320170101                  57                
ARN67030060        8431927009128Aggancio a soffitto AC-GS                  00120000100001099999940000000032300000000323000001EURPCE0320170101                  57                
ARN67030061        8431927009135Aggancio soffitto regolabile AC-GS         00025000010000199999940000000070500000000705000001EURPCE0320170101                  57                
ARN67030062        8431927044402Dado esagonale M8 Ac-GC                    00100001000010099999940000000122000000001220000100EURPCE0320170101                  57                
ARN67030063        8431927044419Rondella piana M8 Ac-GC                    00100001000010099999940000000094000000000940000100EURPCE0320170101                  57                
ARN67030064        8431927009142Supporto verticale x profilo 41x41         000010000100001999999B0000000550000000005500000001EURPCE0120170101                  57                
ARN67030065        8431927044426Vite esagonale M8x20 Ac-GC                 00100001000010099999940000000380000000003800000100EURPCE0320170101                  57                
ARN67030066        8431927044433Vite esagonale M8x35 Ac-GC                 00100001000010099999940000000540000000005400000100EURPCE0320170101                  57                
ARN67030074        8431927009159Profilo leggero 41x41 Ac-GS                00003000030000399999940000000155000000001550000001EURLM 0320170101                  57                
ARN67030075        8431927009166Profilo leggero 41x21 Ac-GS                00003000030000399999940000000108000000001080000001EURLM 0320170101                  57                
ARN67030077        8431927044440Vite esagonale M10x35 Ac-GC                00100001000010099999940000000950000000009500000100EURPCE0320170101                  57                
ARN67030093        8431927080523Kit vite/dado M6x12 QST Ac-GC              02000001000010099999940000000003700000000037000001EURPCE0320170101                  57                
ARN67030094        8431927080530Kit vite esagonale/dado M8x20 Ac-EZ        00100001000010099999940000000004900000000049000001EURPCE0320170101                  57                
ARN67030099        8431927009210Vite 6x12 QST Ac-GC                        00100001000010099999940000000200000000002000000100EURPCE0320170101                  57                
ARN67030100        8431927009227Vite 6x20 QST Ac-GC                        00100001000010099999940000000390000000003900000100EURPCE0320170101                  57                
ARN67030109        8431927046284Vite 6x30 QST Ac-GC                        00100001000010099999940000000310000000003100000100EURPCE0320170101                  57                
ARN67030110        8431927045843Sospensione Click L1000 Ac-GC              00001000010000199999940000000260000000002600000001EURPCE0320170101                  57                
ARN67030111        8431927045850Sospensione Click L2000 Ac-GC              00001000010000199999940000000725000000007250000001EURPCE0320170101                  57                
ARN67030112        8431927045867Sospensione Click L3000 Ac-GC              00001000010000199999940000001085000000010850000001EURPCE0320170101                  57                
ARN67030120        8431927046222Piede metallico 90 Ac-GC                   00010000100001099999940000000075000000000750000001EURPCE0320170101                  57                
ARN67030143        8431927016010Sospensione centrale Click M6 Ac-GC        00240000200002099999940000000040000000000400000001EURPCE0320170101                  57                
ARN67030157        8431927045201Profilo pesante doppio 41x41 Ac-GC         00003000030000399999940000000650000000006500000001EURLM 0320170101                  57                
ARN67030158        8431927045218Dado M10 con molla x profili 41 GC         00600001000010099999940000000017200000000172000001EURPCE0320170101                  57                
ARN67030164        8431927045232Supporto verticale x profilo 41x82         000010000100001999999B0000000455000000004550000001EURPCE0120170101                  57                
ARN67030520        8431927066206Distanziatore CLICK L100 Ac-GC             00160000100001099999940000000081500000000815000001EURPCE0320170101                  57                
ARN67030522        8431927066213Distanziatore CLICK L200 Ac-GC             00080000100001099999940000000103500000001035000001EURPCE0320170101                  57                
ARN67030524        8431927066220Distanziatore CLICK L300 Ac-GC             00060000100001099999940000000124500000001245000001EURPCE0320170101                  57                
ARN67030539        8431927009326Distanziatore x L100/200 Ac-GS             00010000100001099999940000000053500000000535000001EURPCE0320170101                  57                
ARN67030540        8431927009333Distanziatore x L300/400 Ac-GS             00010000100001099999940000000066800000000668000001EURPCE0320170101                  57                
ARN67030541        8431927009340Distanziatore x L100/200 Ac-GC             00010000100001099999940000000083700000000837000001EURPCE0320170101                  57                
ARN67030542        8431927009357Distanziatore x L300/400 Ac-GC             00010000100001099999940000000111500000001115000001EURPCE0320170101                  57                
ARN67030610        8431927017055Parete divisoria CLICK H25 Ac-GC           00060000600006099999940000000081000000000810000001EURLM 0320170101                  57                
ARN67030611        8431927017062Parete divisoria CLICK H50 Ac-GC           00048000480004899999940000000098000000000980000001EURLM 0320170101                  57                
ARN67030612        8431927017079Parete divisoria CLICK H80 Ac-GC           00036000360003699999940000000148000000001480000001EURLM 0320170101                  57                
ARN67030644        8431927044938Aggancio soffitto regolabile Ac-GC         00001000010000199999940000000206000000002060000001EURPCE0320170101                  57                
ARN67030645        8431927009401Aggancio soffitto regolabile Ac-GS         00001000010000199999940000000094000000000940000001EURPCE0320170101                  57                
ARN67030646        8431927009418Profilo pesante L500 Ac-GS                 00001000010000199999940000000095000000000950000001EURPCE0320170101                  57                
ARN67030647        8431927009425Profilo pesante L1000 Ac-GS                00001000010000199999940000000206000000002060000001EURPCE0320170101                  57                
ARN67030660        8431927009432Supporto soffitto 41x41x500 Ac-GC          00001000010000199999940000000326000000003260000001EURPCE0320170101                  57                
ARN67030661        8431927009449Supporto soffitto 41x41x1000 Ac-GC         00001000010000199999940000000538000000005380000001EURPCE0320170101                  57                
ARN67030662        8431927009456Supporto soffitto doppio L500 Ac-GC        00001000010000199999940000000626000000006260000001EURPCE0320170101                  57                
ARN67030663        8431927009463Supporto soffit. doppio L1000 Ac-GC        00001000010000199999940000001095000000010950000001EURPCE0320170101                  57                
ARN67060010        8431927044457Vite esagonale M10x60 INOX316              00100001000010099999940000000037000000000370000001EURPCE0320170101                  57                
ARN67060014        8431927018809Dado esagonale M10 INOX316                 00100001000010099999940000000018700000000187000001EURPCE0320170101                  57                
ARN67060043        8431927016034Sospensione centr. Click M8 INOX316        00240000200002099999940000000042700000000427000001EURPCE0320170101                  57                
ARN67060046        8431927014849Sospensione centrale M8 INOX316            00720000200002099999940000000049200000000492000001EURPCE0320170101                  57                
ARN67060050        8431927046192Clip di fissaggio a guide                  00700001000010099999940000000029300000000293000001EURPCE0320170101                  57                
ARN67060053        8431927018816Giunto multiplo INOX316                    00360000100001099999940000000105000000001050000001EURPCE0320170101                  57                
ARN67060055        8431927018823Profilo pesante 41x21 INOX316              00003000030000399999940000000555000000005550000001EURLM 0320170101                  57                
ARN67060056        8431927044464Dado per profili M8 INOX316                00800001000010099999940000000073500000000735000001EURPCE0320170101                  57                
ARN67060057        8431927018830Profilo pesante 41x41 INOX316              00003000030000399999940000000896000000008960000001EURLM 0320170101                  57                
ARN67060058        8431927018847Dado per profili M10 INOX316               00800001000010099999940000000073500000000735000001EURPCE0320170101                  57                
ARN67060059        8431927044471Vite esagonale M10x20 INOX316              00100001000010099999940000000025500000000255000001EURPCE0320170101                  57                
ARN67060062        8431927018854Dado esagonale M8 INOX316                  00100001000010099999940000000004900000000049000001EURPCE0320170101                  57                
ARN67060063        8431927018861Rondella piana M8 INOX316                  00100001000010099999940000000003000000000030000001EURPCE0320170101                  57                
ARN67060064        8431927018878Rondella piana M10 INOX316                 00100001000010099999940000000004700000000047000001EURPCE0320170101                  57                
ARN67060065        8431927044488Vite esagonale M8x20 INOX316               00100001000010099999940000000012500000000125000001EURPCE0320170101                  57                
ARN67060066        8431927044495Vite esagonale M8x35 INOX316               00100001000010099999940000000030000000000300000001EURPCE0320170101                  57                
ARN67060077        8431927044501Vite esagonale M10x35 INOX316              00100001000010099999940000000026000000000260000001EURPCE0320170101                  57                
ARN67060086        8431927044518Rondella dentellata M10 INOX316            00100001000010099999940000000358000000003580000100EURPCE0320170101                  57                
ARN67060100        8431927018885Vite 6x20 QST INOX316                      00100001000010099999940000000019500000000195000001EURPCE0320170101                  57                
ARN67060141        8431927016119Barra filettata M6 L1000 INOX316           00050000010000199999940000000280000000002800000001EURPCE0320170101                  57                
ARN67060143        8431927016041Sospensione centr. Click M6 INOX316        00240000200002099999940000000042700000000427000001EURPCE0320170101                  57                
ARN67060145        8431927016102Barra filettata M10 L1000 INOX316          00050000010000199999940000000370000000003700000001EURPCE0320170101                  57                
ARN67060520        8431927066237Distanziatore CLICK L100 INOX316           00160000100001099999940000000167500000001675000001EURPCE0320170101                  57                
ARN67060522        8431927066244Distanziatore CLICK L200 INOX316           00080000100001099999940000000265500000002655000001EURPCE0320170101                  57                
ARN67060524        8431927066251Distanziatore CLICK L300 INOX316           00060000100001099999940000000315000000003150000001EURPCE0320170101                  57                
ARN67060541        8431927018892Distanziatore x L100/200 INOX316           00010000100001099999940000000247000000002470000001EURPCE0320170101                  57                
ARN67060542        8431927018908Distanziatore x L300/400 INOX316           00010000100001099999940000000364000000003640000001EURPCE0320170101                  57                
ARN67060610        8018138910681Parete divisoria CLICK H25 INOX316         000600006000060999999B0000000295000000002950000001EURLM 0620170101                  57                
ARN67060611        8018138910575Parete divisoria CLICK H50 INOX316         00048000480004899999940000000389000000003890000001EURLM 0320170101                  57                
ARN67060612        8018138910568Parete divisoria CLICK H80 INOX316         000360003600036999999B0000000509000000005090000001EURLM 0620170101                  57                
ARN67080030        8431927087539Supporto x corpi illuminanti Ac-C8         00050000100001099999940000000080000000000800000001EURPCE0320170101                  57                
ARN67080040        8431927088284Supporto per tubi Ac-C8                    00110000100001099999940000000048400000000484000001EURPCE0320170101                  57                
ARN67080043        8431927087546Sospensione centrale Click M8 Ac-C8        00240000200002099999940000000040000000000400000001EURPCE0320170101                  57                
ARN67080045        8431927093578Barra filettata M8 L1000 C8                000500000100001999999B0000000065500000000655000001EURPCE0120170101                  57                
ARN67080046        8431927087553Sospensione centrale M8 Ac-C8              00720000200002099999940000000018100000000181000001EURPCE0320170101                  57                
ARN67080053        8431927088291Giunto multiplo Ac-C8                      00360000100001099999940000000033000000000330000001EURPCE0320170101                  57                
ARN67080143        8431927087560Sospensione centrale Click M6 Ac-C8        00240000200002099999940000000040000000000400000001EURPCE0320170101                  57                
ARN68000010        8431927015860Supporto di fissaggio                      00400000200002099999940000000017400000000174000001EURPCE0320170101                  57                
ARN68000020        8018138154542Portaetichetta                             00050000500005099999940000000010000000000100000001EURPCE0320170101                  57                
ARN68000032        8431927016126Morsetto di terra 16-35 mmq                01000000200002099999940000000050500000000505000001EURPCE0320170101                  57                
ARN68000033        8431927051189Morsetto di terra 35-50 mmq                00300000200002099999940000000073000000000730000001EURPCE0320170101                  57                
ARN68000034        8431927051196Morsetto di terra 16-50 mmq                01000000200002099999940000000046000000000460000001EURPCE0320170101                  57                
ARN68000035        8431927051202Morsetto di terra 50-110 mmq               00600000200002099999940000000080500000000805000001EURPCE0320170101                  57                
ARN68000036        8431927066336Giunzione trecciata 12 mmq                 00500000100001099999940000000097500000000975000001EURPCE0320170101                  57                
ARN68000037        8431927066343Giunzione trecciata 16 mmq                 00500000100001099999940000000101200000001012000001EURPCE0320170101                  57                
ARN68000040        8431927017529Supporto in plastica per scatole           00300000200002099999940000000009900000000099000001EURPCE0320170101                  57                
ARN68000049        8431927009647Puntalino di protezione                    10000001000010099999940000000003900000000039000001EURPCE0320170101                  57                
ARN68000052        8431927009654Zinco spray 400 ml                         00020000010000199999940000000390000000003900000001EURPCE0320170101                  57                
ARN68000053        8431927091680Zinco spray 400 ml NERO                    00020000010000199999940000000780000000007800000001EURPCE0320170101                  57                
ARN68000058        8431927009661Cesoie per taglio griglia                  00001000010000199999940000002840000000028400000001EURPCE0320170101                  57                
