LISTINO METEL       ARN052783904882/20132013030120130701LISTINO PREZZI ARNOCANALI                                            020                                                 
ARN027.8           8018138128505Morsetto x tondino / bandella Ac-GC        00010000100001099999940000000032500000000325000001EURPCE0320130301                  71                
ARN10489.3         8018138174410Scatola 4-3mod KB-KC103 BIANCO PURO        00012000120001299999940000000186000000001860000001EURPCE0320130301                  12                
ARN10489.6         8018138137958Scatola 4-3 mod. x KB-KC103 BIANCO         00012000120001299999940000000186000000001860000001EURPCE0320130301                  12                
ARN10489.AC        8018138188158Scatola 4-3mod KB103 ACERO                 00012000010000199999940000000250000000002500000001EURPCE0320130301                  10                
ARN10489.AL        8018138184839Scatola 4mod KB103 ALLUMINIO               00012000010000199999940000000260000000002600000001EURPCE0320130301                  10                
ARN10489.CL        8018138185423Scatola 4-3mod KB103 CILIEGIO              00012000010000199999940000000250000000002500000001EURPCE0320130301                  10                
ARN10489.FG        8018138188165Scatola 4-3mod KB103 FAGGIO                00012000010000199999940000000250000000002500000001EURPCE0320130301                  10                
ARN10489.QC        8018138188172Scatola 4-3mod KB103 QUERCIA               00012000010000199999940000000250000000002500000001EURPCE0320130301                  10                
ARN10489.WG        8018138185416Scatola 4-3 mod WENGE'                     00012000010000199999940000000250000000002500000001EURPCE0320130301                  10                
ARN1049            8018138111200Utensile raddrizzatore multiuso            00001000010000199999940000000390000000003900000001EURPCE0320130301                  71                
ARN1053            8018138119213Nastro bimetallico Al/Cu                   00005000050000599999940000000150000000001500000001EURPCE0320130301                  71                
ARN10689.3         8018138174427Scatola 6-7mod KB-KC103 BIANCO PURO        00009000090000999999940000000239000000002390000001EURPCE0320130301                  12                
ARN10689.6         8018138134483Scatola 6-7 mod. x KB-KC103 BIANCO         00009000090000999999940000000239000000002390000001EURPCE0320130301                  12                
ARN10689.AC        8018138188189Scatola 6-7mod KB103 ACERO                 00009000010000199999940000000290000000002900000001EURPCE0320130301                  10                
ARN10689.AL        8018138184853Scatola 6-7mod KB103 ALLUMINIO             00009000010000199999940000000290000000002900000001EURPCE0320130301                  10                
ARN10689.CL        8018138185355Scatola 6-7mod KB103 CILIEGIO              00009000010000199999940000000290000000002900000001EURPCE0320130301                  10                
ARN10689.FG        8018138188196Scatola 6-7mod KB103 FAGGIO                00009000010000199999940000000290000000002900000001EURPCE0320130301                  10                
ARN10689.QC        8018138188202Scatola 6-7mod KB103 QUERCIA               00009000010000199999940000000290000000002900000001EURPCE0320130301                  10                
ARN10689.WG        8018138185706Scatola 6-7mod KB103 WENGE'                00009000010000199999940000000290000000002900000001EURPCE0320130301                  10                
ARN1082.10         8018138127591Raddrizzatondino d10 + svolgitore          00001000010000199999940000021000000000210000000001EURPCE0320130301                  71                
ARN1082.8          8018138127607Raddrizzatondino d8 + svolgitore           00001000010000199999940000021000000000210000000001EURPCE0320130301                  71                
ARN10889.2         8018138186314Scatola 3 mod KC103 ANTRACITE              00010000100001099999940000000115000000001150000001EURPCE0320130301                  12                
ARN10889.3         8018138186192Scatola 3 mod KC103 BIANCO PURO            00010000100001099999940000000105000000001050000001EURPCE0320130301                  12                
ARN10889.6         8018138186260Scatola 3 mod KC103 BIANCO                 00010000100001099999940000000105000000001050000001EURPCE0320130301                  12                
ARN10889.AL        8018138186451Scatola 6-7mod KB-KC103 ALLUMINIO          00009000010000199999940000000269000000002690000001EURPCE0320130301                  10                
ARN1211            8018138111309Collare per tubi d 90-150 mm RAME          00005000050000599999940000000080000000000800000001EURPCE0320130301                  71                
ARN1234P0701       4011126177138Pressacavo IP68 Pg 7 GRIGIO                00500000500005099999940000000006800000000068000001EURPCE0320130301                  81                
ARN1234P0901       4011126177121Pressacavo IP68 Pg 9 GRIGIO                00500000500005099999940000000007900000000079000001EURPCE0320130301                  81                
ARN1234P1101       4011126177114Pressacavo IP68 Pg 11 GRIGIO               00500000500005099999940000000008500000000085000001EURPCE0320130301                  81                
ARN1234P1301       4011126177107Pressacavo IP68 Pg 13,5 GRIGIO             00500000500005099999940000000009600000000096000001EURPCE0320130301                  81                
ARN1234P1601       4011126177091Pressacavo IP68 Pg 16 GRIGIO               00500000500005099999940000000010900000000109000001EURPCE0320130301                  81                
ARN1234P2101       4011126177084Pressacavo IP68 Pg 21 GRIGIO               00250000250002599999940000000016500000000165000001EURPCE0320130301                  81                
ARN1234P2901       4011126177077Pressacavo IP68 Pg 29 GRIGIO               00100000100001099999940000000029100000000291000001EURPCE0320130301                  81                
ARN1234P3601       4011126177060Pressacavo IP68 Pg 36 GRIGIO               00100000100001099999940000000095700000000957000001EURPCE0320130301                  81                
ARN1234P4201       4011126177053Pressacavo IP68 Pg 42 GRIGIO               00005000050000599999940000000150000000001500000001EURPCE0320130301                  81                
ARN124M1201B       8018138159677Pressacavo IP68 M12 GRIGIO                 00080000800008099999940000000005000000000050000001EURPCE0320130301                  81                
ARN124M12EX03      8018138153606Pressacavo IP68 EEx II M12 NERO            001000010000100999999B0000000014200000000142000001EURPCE0620130301                  81                
ARN124M1601B       8018138159684Pressacavo IP68 M16 GRIGIO                 00300003000030099999940000000005700000000057000001EURPCE0320130301                  81                
ARN124M16EX03      8018138153613Pressacavo IP68 EEx II M16 NERO            00100001000010099999940000000014800000000148000001EURPCE0320130301                  81                
ARN124M2001B       8018138159691Pressacavo IP68 M20 GRIGIO                 00200002000020099999940000000006400000000064000001EURPCE0320130301                  81                
ARN124M20EX03      8018138153620Pressacavo IP68 EEx II M20 NERO            00050000500005099999940000000020000000000200000001EURPCE0320130301                  81                
ARN124M2501B       8018138159707Pressacavo IP68 M25 GRIGIO                 00120001200012099999940000000010900000000109000001EURPCE0320130301                  81                
ARN124M25EX03      8018138153637Pressacavo IP68 EEx II M25 NERO            00025000250002599999940000000028500000000285000001EURPCE0320130301                  81                
ARN124M3201B       8018138159714Pressacavo IP68 M32 GRIGIO                 00060000600006099999940000000020500000000205000001EURPCE0320130301                  81                
ARN124M32EX03      8018138153644Pressacavo IP68 EEx II M32 NERO            00010000100001099999940000000057900000000579000001EURPCE0320130301                  81                
ARN124M4001B       8018138159721Pressacavo IP68 M40 GRIGIO                 00040000400004099999940000000034500000000345000001EURPCE0320130301                  81                
ARN124M40EX03      8018138153651Pressacavo IP68 EEx II M40 NERO            000070000700007999999B0000000082800000000828000001EURPCE0620130301                  81                
ARN124P0701B       8018138137460Pressacavo IP68+dado Pg7 BLISTER           00100001000010099999940000000006400000000064000001EURPCE0320130301                  81                
ARN124P0701BE      8018138165340Pressacavo IP68+dado Pg7 BLISTER           00100001000010099999940000000004200000000042000001EURPCE0320130301                  81                
ARN124P0901B       8018138137477Pressacavo IP68+dado Pg 9 BLISTER          00300003000030099999940000000006700000000067000001EURPCE0320130301                  81                
ARN124P0901BE      8018138165357Pressacavo IP68+dado Pg 9 BLISTER          00300003000030099999940000000004500000000045000001EURPCE0320130301                  81                
ARN124P1101B       8018138137484Pressacavo IP68+dado Pg 11 BLISTER         00250002500025099999940000000007700000000077000001EURPCE0320130301                  81                
ARN124P1101BE      8018138165364Pressacavo IP68+dado Pg 11 BLISTER         00250002500025099999940000000004600000000046000001EURPCE0320130301                  81                
ARN124P1301B       8018138137491Pressacavo IP68+dado Pg13,5 BLISTER        00200002000020099999940000000008200000000082000001EURPCE0320130301                  81                
ARN124P1301BE      8018138165371Pressacavo IP68+dado Pg13,5 BLISTER        00200002000020099999940000000005100000000051000001EURPCE0320130301                  81                
ARN124P1601B       8018138137507Pressacavo IP68+dado Pg 16 BLISTER         00150001500015099999940000000009600000000096000001EURPCE0320130301                  81                
ARN124P1601BE      8018138165388Pressacavo IP68+dado Pg 16 BLISTER         00150001500015099999940000000006400000000064000001EURPCE0320130301                  81                
ARN124P2101B       8018138137514Pressacavo IP68+dado Pg 21 BLISTER         00100001000010099999940000000014200000000142000001EURPCE0320130301                  81                
ARN124P2101BE      8018138165395Pressacavo IP68+dado Pg 21 BLISTER         00100001000010099999940000000009300000000093000001EURPCE0320130301                  81                
ARN124P2901B       8018138137521Pressacavo IP68+dado Pg 29 BLISTER         00050000500005099999940000000027500000000275000001EURPCE0320130301                  81                
ARN124P2901BE      8018138165401Pressacavo IP68+dado Pg 29 BLISTER         00050000500005099999940000000018600000000186000001EURPCE0320130301                  81                
ARN124SM1203       8018138137897Pressacavo SPYRA M12 NERO                  001000010000100999999B0000000009600000000096000001EURPCE0620130301                  81                
ARN124SM1603       8018138137903Pressacavo SPYRA M16 NERO                  00040000400004099999940000000012300000000123000001EURPCE0320130301                  81                
ARN124SM2003       8018138137910Pressacavo SPYRA M20 NERO                  00025000250002599999940000000013500000000135000001EURPCE0320130301                  81                
ARN124SM2503       8018138137927Pressacavo SPYRA M25 NERO                  00010000100001099999940000000024500000000245000001EURPCE0320130301                  81                
ARN124SP0703       8018138137835Pressacavo SPYRA Pg 7 NERO                 00100001000010099999940000000007900000000079000001EURPCE0320130301                  81                
ARN124SP0903       8018138137842Pressacavo SPYRA Pg 9 NERO                 00050000500005099999940000000009500000000095000001EURPCE0320130301                  81                
ARN124SP1103       8018138137859Pressacavo SPYRA Pg 11 NERO                00025000250002599999940000000011600000000116000001EURPCE0320130301                  81                
ARN124SP1303       8018138137866Pressacavo SPYRA Pg 13,5 NERO              00025000250002599999940000000013100000000131000001EURPCE0320130301                  81                
ARN124SP1603       8018138137873Pressacavo SPYRA Pg 16 NERO                00020000200002099999940000000018300000000183000001EURPCE0320130301                  81                
ARN124SP2103       8018138137880Pressacavo SPYRA Pg 21 NERO                00010000100001099999940000000024800000000248000001EURPCE0320130301                  81                
ARN129200A3        8018138189667Colonna MOBILE duo H200 BIANCA             00001000010000199999940000006500000000065000000001EURPCE0320130301                  19                
ARN129200AA        8018138189674Colonna MOBILE duo H200 ALLUMINIO          00001000010000199999940000006500000000065000000001EURPCE0320130301                  19                
ARN129200VN        8018138189681Colonna MOBILE duo H200 NERA               00001000010000199999940000006500000000065000000001EURPCE0320130301                  19                
ARN12932A3         8018138188240Minicolonna duo H30 BIANCA                 00001000010000199999940000001090000000010900000001EURPCE0320130301                  19                
ARN12932AA         8018138171082Minicolonna duo H30 ALLUMINIO              00001000010000199999940000001250000000012500000001EURPCE0320130301                  19                
ARN12932NA         8018138188257Minicolonna duo H30 NERA ALLUMINIO         00001000010000199999940000001190000000011900000001EURPCE0320130301                  19                
ARN12932V3         8018138188264Minicolonna duo H30 ALLU BIANCO            00001000010000199999940000001090000000010900000001EURPCE0320130301                  19                
ARN12932VA         8018138145816Minicolonna duo H30 ALLU NERO              00001000010000199999940000001090000000010900000001EURPCE0320130301                  19                
ARN12932VN         8018138145823Minicolonna duo H30 NERO                   00001000010000199999940000001090000000010900000001EURPCE0320130301                  19                
ARN129336A3        8018138188271Colonna duo H270-330 BIANCA                00001000010000199999940000005600000000056000000001EURPCE0320130301                  19                
ARN129336AA        8018138171044Colonna duo H270-330 ALLUMINIO             00001000010000199999940000006230000000062300000001EURPCE0320130301                  19                
ARN129336NA        8018138188288Colonna duo H270-330 NERA ALLUMINIO        00001000010000199999940000005900000000059000000001EURPCE0320130301                  19                
ARN129336V3        8018138188295Colonna duo H270-330 ALLU BIANCO           00001000010000199999940000005600000000056000000001EURPCE0320130301                  19                
ARN129336VA        8018138132328Colonna duo H270-330 ALLU NERO             00001000010000199999940000005600000000056000000001EURPCE0320130301                  19                
ARN129336VN        8018138132335Colonna duo H270-330 NERA                  00001000010000199999940000005600000000056000000001EURPCE0320130301                  19                
ARN129388A3        8018138188301Colonna duo H270-380 BIANCA                00001000010000199999940000006150000000061500000001EURPCE0320130301                  19                
ARN129388AA        8018138171051Colonna duo H270-380 ALLUMINIO             00001000010000199999940000006950000000069500000001EURPCE0320130301                  19                
ARN129388NA        8018138188318Colonna duo H270-380 NERA ALLUMINIO        00001000010000199999940000006600000000066000000001EURPCE0320130301                  19                
ARN129388V3        8018138188325Colonna duo H270-380 ALLU BIANCO           00001000010000199999940000006150000000061500000001EURPCE0320130301                  19                
ARN129388VA        8018138132366Colonna duo H270-380 ALLU NERO             00001000010000199999940000006150000000061500000001EURPCE0320130301                  19                
ARN129388VN        8018138132373Colonna duo H270-380 NERA                  00001000010000199999940000006150000000061500000001EURPCE0320130301                  19                
ARN12954A3         8018138188332Minicolonna duo H50 BIANCA                 00001000010000199999940000001750000000017500000001EURPCE0320130301                  19                
ARN12954AA         8018138171075Minicolonna duo H50 ALLUMINIO              00001000010000199999940000001920000000019200000001EURPCE0320130301                  19                
ARN12954NA         8018138188349Minicolonna duo H50 NERA ALLUMINIO         00001000010000199999940000001830000000018300000001EURPCE0320130301                  19                
ARN12954V3         8018138188356Minicolonna duo H50 ALLU BIANCO            00001000010000199999940000001750000000017500000001EURPCE0320130301                  19                
ARN12954VA         8018138132380Minicolonna duo H50 ALLU NERO              00001000010000199999940000001750000000017500000001EURPCE0320130301                  19                
ARN12954VN         8018138132397Minicolonna duo H50 NERO                   00001000010000199999940000001750000000017500000001EURPCE0320130301                  19                
ARN12976A3         8018138188219Minicolonna duo H70 BIANCA                 00001000010000199999940000001960000000019600000001EURPCE0320130301                  19                
ARN12976AA         8018138171068Minicolonna duo H70 ALLUMINIO              00001000010000199999940000002190000000021900000001EURPCE0320130301                  19                
ARN12976NA         8018138188226Minicolonna duo H70 NERA ALLUMINIO         00001000010000199999940000001890000000018900000001EURPCE0320130301                  19                
ARN12976V3         8018138188233Minicolonna duo H70 ALLU BIANCO            00001000010000199999940000001960000000019600000001EURPCE0320130301                  19                
ARN12976VA         8018138132403Minicolonna duo H70 ALLU NERO              00001000010000199999940000001960000000019600000001EURPCE0320130301                  19                
ARN12976VN         8018138132410Minicolonna duo H70 NERO                   00001000010000199999940000001960000000019600000001EURPCE0320130301                  19                
ARN1370B           8018138172560Supporto per barre d16 mm ZAMA             00010000100001099999940000000050000000000500000001EURPCE0320130301                  71                
ARN1370SB          8018138123111Supporto per bandella M6 in Ac-GC          00020000200002099999940000000026800000000268000001EURPCE0320130301                  71                
ARN1370ST          8018138127621Supporto universale M6 in Ac-GC            00020000200002099999940000000026800000000268000001EURPCE0320130301                  71                
ARN1376.10         8018138152142Morsetto giunzione lineare OTTONE          00010000100001099999940000000071000000000710000001EURPCE0320130301                  71                
ARN1410            8018138127638Scaricatore sovratensione analogico        00008000010000199999940000000750000000007500000001EURPCE0120130701                  78                
ARN1410D           8018138151947Scaricatore sovratensione analogico        00008000010000199999940000000690000000006900000001EURPCE0320130301                  78                
ARN1410RJ          8018138191424Scaricatore sovratensione analogico        00008000010000199999940000000730000000007300000001EURPCE0120130701                  78                
ARN1413BNC         8018138151992Scaricatore x videosistemi                 000010000100001999999B0000000990000000009900000001EURPCE0620130301                  78                
ARN1416SAT         8018138152012Scaricatore x impianti SAT                 00008000010000199999940000000900000000009000000001EURPCE0320130301                  78                
ARN1416TV          8018138152005Scaricatore x impianti TV                  00008000010000199999940000000900000000009000000001EURPCE0320130301                  78                
ARN1416TV-SAT      8018138189520Scaricatore x impianti SAT                 00008000010000199999940000000990000000009900000001EURPCE0320130301                  78                
ARN1440            8018138191479Cartuccia di ricambio per 1440             00008000010000199999940000000690000000006900000001EURPCE0120130701                  78                
ARN1440.1          8018138178586Scaricatore fulmine T1 1polo               00008000010000199999940000000890000000008900000001EURPCE0320130301                  78                
ARN1440.100TT      8018138151572Scaricatore fulmine T1 1poloxNPE           00008000010000199999940000003100000000031000000001EURPCE0320130301                  78                
ARN1440.1-50       8018138151558Scaricatore fulmine T1 1polo               00008000010000199999940000001990000000019900000001EURPCE0320130301                  78                
ARN1440.1-60F      8018138151565Scaricatore fulmine T1 1polo+TLS           000080000100001999999B0000002600000000026000000001EURPCE0620130301                  78                
ARN1440.1F         8018138178593Scaricatore fulmine T1 1polo+TLS           00008000010000199999940000000990000000009900000001EURPCE0320130301                  78                
ARN1440.2TT        8018138190823Scaricatore T1 1+1 poli                    00008000080000899999940000001840000000018400000001EURPCE0320130301                  78                
ARN1440.2TTF       8018138190830Scaricatore T1 1+1 poli con TLS            00008000080000899999940000001890000000018900000001EURPCE0320130301                  78                
ARN1440.4          8018138151404Scaricatore sovratensione T1 4poli         00004000010000199999940000003200000000032000000001EURPCE0320130301                  78                
ARN1440.4-50       8018138178609Scaricatore sovratensione T1 4poli         000010000100001999999B0000008800000000088000000001EURPCE0620130301                  78                
ARN1440.4-50TT     8018138190861Scaricatore T1 3+1 poli con TLS            00001000010000199999940000009500000000095000000001EURPCE0320130301                  78                
ARN1440.4F         8018138190847Scaricatore T1 4 poli con TLS              00004000040000499999940000003250000000032500000001EURPCE0320130301                  78                
ARN1440.4TT        8018138151657Scaricatore sovratensione T1 3+1p          00004000010000199999940000003850000000038500000001EURPCE0320130301                  78                
ARN1440.4TTF       8018138190854Scaricatore T1 3+1 poli con TLS            00004000040000499999940000003870000000038700000001EURPCE0320130301                  78                
ARN159SM           8018138119534Supporto di fissaggio a guida DIN          00020000200002099999940000000005200000000052000001EURPCE0320130301                  91                
ARN1603-13         4011126017090Guarnizione anelli asportab. Pg13,5        001000010000100999999B0000000003900000000039000001EURPCE0620130301                  81                
ARN1783            4011126037609Fissatubo d 5-16mm GRIGIO CHIARO           01000010000100099999940000000005500000000055000001EURPCE0320130301                  83                
ARN1784            4011126037593Fissatubo d 14-24mm GRIGIO CHIARO          005000050000500999999B0000000009000000000090000001EURPCE0620130301                  83                
ARN1893/1309       4011126024371Riduzione PG13,5-PG9 GRIGIA                000500005000050999999B0000000008000000000080000001EURPCE0620130301                  81                
ARN1893/1609       4011126024395Riduzione PG16 - PG9 GRIGIA                000500005000050999999B0000000009000000000090000001EURPCE0620130301                  81                
ARN1893/1611       4011126024357Riduzione PG16 - PG11 GRIGIA               000500005000050999999B0000000010000000000100000001EURPCE0620130301                  81                
ARN1893/2113       4011126024029Riduzione PG21-PG13,5 GRIGIA               000500005000050999999B0000000020000000000200000001EURPCE0620130301                  81                
ARN1893/2116       4011126024333Riduzione PG21 - PG16 GRIGIA               000500005000050999999B0000000025000000000250000001EURPCE0620130301                  81                
ARN19TA            8018138112603Tacchetto x incasso parete/soffitto        00100001000010099999940000000008600000000086000001EURPCE0320130301                  83                
ARN2040            8018138112757Fungo captazione superf. carrabili         00002000020000299999940000000290000000002900000001EURPCE0320130301                  71                
ARN213             8018138112801Morsetto x 2 tondini Ac-GC                 00010000100001099999940000000020600000000206000001EURPCE0320130301                  73                
ARN213.2           8018138112818Morsetto x tondino/bandella Ac-GC          00010000100001099999940000000020600000000206000001EURPCE0320130301                  73                
ARN22              8018138123616Morsetto di sezionamento OTTONE            00006000060000699999940000000124000000001240000001EURPCE0320130301                  72                
ARN22CP            8018138130898Morsetto di sezionamento OTTONE            00006000060000699999940000000145000000001450000001EURPCE0320130301                  72                
ARN22CPGDO         8018138188127Morsetto di sezionamento OTTONE            00012000120001299999940000000150000000001500000001EURPCE0320130301                  72                
ARN2403.20         8018138119695Morsetto per dispersori d20 in ZAMA        00040000400004099999940000000020600000000206000001EURPCE0320130301                  73                
ARN2404.20         8018138127652Morsetto per d18-20 RAME NICHELATO         00005000050000599999940000000134900000001349000001EURPCE0320130301                  73                
ARN2405            8018138132441Morsetto per d18-20 RAME NICHELATO         00005000050000599999940000000133900000001339000001EURPCE0320130301                  73                
ARN2440            8018138191394Cartuccia di ricambio per 2440             00004000010000199999940000001800000000018000000001EURPCE0120130701                  78                
ARN2440.1000       8018138191349Cartuccia di ricambio per 2440.1002        00008000010000199999940000001200000000012000000001EURPCE0120130701                  78                
ARN2440.1002       8018138178616SPD combinato x fotovoltaico 1000V         00001000010000199999940000004500000000045000000001EURPCE0320130301                  78                
ARN2440.1F         8018138191370Scaricatore T1+T2 1 polo con TLS           00001000010000199999940000001990000000019900000001EURPCE0120130701                  78                
ARN2440.2TF        8018138151503Scaricatore combinato T1+T2 1+1p+TLS       00001000010000199999940000004500000000045000000001EURPCE0320130701                  78                
ARN2440.4F         8018138191387Scaricatore T1+T2 4 poli con TLS           00001000010000199999940000008800000000088000000001EURPCE0120130701                  78                
ARN2440.4TF        8018138151480Scaricatore combinato T1+T2 3+1p+TLS       00001000010000199999940000009500000000095000000001EURPCE0320130701                  78                
ARN250P07          8018138138955Pressacavo conico Pg 7 GRIGIO              00150001500015099999940000000003200000000032000001EURPCE0320130301                  81                
ARN250P09          8018138138962Pressacavo conico Pg 9 GRIGIO              00500005000050099999940000000003300000000033000001EURPCE0320130301                  81                
ARN250P11          8018138138979Pressacavo conico Pg11 GRIGIO              00400004000040099999940000000003400000000034000001EURPCE0320130301                  81                
ARN250P13          8018138138986Pressacavo conico Pg13,5 GRIGIO            00300003000030099999940000000003500000000035000001EURPCE0320130301                  81                
ARN250P16          8018138138993Pressacavo conico Pg 16 GRIGIO             00200002000020099999940000000004300000000043000001EURPCE0320130301                  81                
ARN250P21          8018138139006Pressacavo conico Pg 21 GRIGIO             00150001500015099999940000000006400000000064000001EURPCE0320130301                  81                
ARN250P29          8018138139013Pressacavo conico Pg 29 GRIGIO             00080000800008099999940000000010900000000109000001EURPCE0320130301                  81                
ARN250P36          8018138139020Pressacavo conico Pg 36 GRIGIO             00030000300003099999940000000020900000000209000001EURPCE0320130301                  81                
ARN2532M63A        8018138137644Pressacavo IP68 M63 OTTONE-NICHEL          000050000500005999999B0000000380000000003800000001EURPCE0620130301                  81                
ARN27.8            8018138128499Morsetto x tondino / bandella Ac-GC        00015000150001599999940000000039500000000395000001EURPCE0320130301                  71                
ARN27.816          8018138140644Mors.collegamento d.16/10-8 Ac-GC          00005000050000599999940000000095000000000950000001EURPCE0320130301                  71                
ARN2761-2          8018138113105Guida a C 20x10 mm forata Ac-EZ            00040000400004099999940000000033000000000330000001EURLM 0320130301                  83                
ARN289.6           8018138119435Scatola 3-4 mod.x 7089-10089 BIANCA        00004000040000499999940000000089000000000890000001EURPCE0320130301                  11                
ARN3005.8          8018138127669Supporto CLIK x tondino d8 mm RAME         00015000150001599999940000000025000000000250000001EURPCE0320130301                  71                
ARN303.1           8018138113167Morsetto 1 foro x tondino Ac-GC            00050000500005099999940000000013900000000139000001EURPCE0320130301                  73                
ARN303.2           8018138113174Morsetto 2 fori x 2 tondini Ac-GC          00020000200002099999940000000029900000000299000001EURPCE0320130301                  73                
ARN303GDO.1        8018138177916Morsetto 1 foro x tondino Ac-GC            00040000400004099999940000000020600000000206000001EURPCE0320130301                  73                
ARN3115.18         8018138132496Dispersore filettato d18 RAMATO            00140000700007099999940000000185400000001854000001EURPCE0320130301                  73                
ARN3115.18GDO      8018138180886Dispersore filettato d18 RAMATO            00040000400004099999940000000210000000002100000001EURPCE0320130301                  73                
ARN312.10          8018138127683Dispersore croce 50x50x3 1,0m Ac-GC        001000010000100999999B0000000133000000001330000001EURPCE0620130301                  73                
ARN312.15          8018138127690Dispersore croce 50x50x3 1,5m Ac-GC        001000010000100999999B0000000195000000001950000001EURPCE0620130301                  73                
ARN313.10          8018138113303Dispersore croce 50x50x5 AC-GC 1m          00100001000010099999940000000146500000001465000001EURPCE0320130301                  73                
ARN313.15          8018138113310Dispersore croce 50x50x5 Ac-GC 1,5m        00100001000010099999940000000213000000002130000001EURPCE0320130301                  73                
ARN313.20          8018138113327Dispersore croce 50x50x5 Ac-GC 2m          00050000500005099999940000000289500000002895000001EURPCE0320130301                  73                
ARN313.25          8018138113334Dispersore croce 50x50x5 Ac-GC 2,5m        00025000250002599999940000000407000000004070000001EURPCE0320130301                  73                
ARN313SC           8018138128307Sali diminuzione resistività Kg 3,5        00001000010000199999940000000250000000002500000001EURPCE0320130301                  73                
ARN315.20          8018138113389Dispersore tondo d20 1,5 m Ac-GC           00100001000010099999940000000185400000001854000001EURPCE0320130301                  73                
ARN316.25          8018138113419Dispersore innesto Ø25 L1,5m Ac-GC         00025000250002599999940000000432600000004326000001EURPCE0320130301                  73                
ARN317.30.3        8018138113471Bandella 30x3 mm Ac-GC                     00250002500025099999940000000051500000000515000001EURKGM0320130301                  74                
ARN317.30.35       8018138113488Bandella 30x3,5 mm Ac-GC                   00250002500025099999940000000051500000000515000001EURKGM0320130301                  74                
ARN317.30.35M      8018138138016Bandella 30x3,5 mm Ac-GC                   00300003000030099999940000000043800000000438000001EURLM 0320130301                  74                
ARN317.30.3M       8018138138009Bandella 30x3 mm Ac-GC                     00350003500035099999940000000037600000000376000001EURLM 0320130301                  74                
ARN318.10          8018138113501Tondino d 10 mm Ac-GC                      00233002330023399999940000000051500000000515000001EURKGM0320130301                  74                
ARN318.10M         8018138138030Tondino d 10 mm Ac-GC                      00370003700037099999940000000033500000000335000001EURLM 0320130301                  74                
ARN318.8           8018138113518Tondino d 8 mm Ac-GC                       00200002000020099999940000000051500000000515000001EURKGM0320130301                  74                
ARN318.8M          8018138138023Tondino d 8 mm Ac-GC                       00500005000050099999940000000022200000000222000001EURLM 0320130301                  74                
ARN327.8           8018138131505Morsetto x tondino in RAME                 00010000100001099999940000000250000000002500000001EURPCE0320130301                  71                
ARN327F2           8018138113600Dispersore piastra 500x500x3 Ac-GC         00001000010000199999940000000650000000006500000001EURPCE0320130301                  73                
ARN32A             8018138132168Morsetto sezionamento Ac-GC                00010000100001099999940000000019500000000195000001EURPCE0320130301                  71                
ARN3303.1          8018138119787Morsetto 1 foro x tondino RAME             00010000100001099999940000000018000000000180000001EURPCE0320130301                  73                
ARN3315.18         8018138122626Dispersore tondo d18 RAMATO 100micr        00140000700007099999940000000175100000001751000001EURPCE0320130301                  73                
ARN3318.8          8018138113631Tondino d 8 mm RAME                        00100001000010099999940000000350000000003500000001EURKGM0320130301                  74                
ARN25250V          8018138123166Pozzetto con coperchio 25x25 VERDE         00012000120001299999940000000222000000002220000001EURPCE0320130301                  75                
ARN2525G           8018138122541Pozzetto portapalo 25x25 GRIGIO            00012000120001299999940000000245000000002450000001EURPCE0320130301                  75                
ARN2525R           8018138122565Pozzetto portapalo 25x25 MATTONE           00012000120001299999940000000255000000002550000001EURPCE0320130301                  75                
ARN2525V           8018138122558Pozzetto portapalo 25x25 VERDE             00012000120001299999940000000245000000002450000001EURPCE0320130301                  75                
ARN2532M12A        8018138139433Pressacavo IP68 M12 OTTONE-NICHEL          000500005000050999999B0000000031000000000310000001EURPCE0620130301                  81                
ARN2532M16A        8018138139440Pressacavo IP68 M16 OTTONE-NICHEL          000500005000050999999B0000000035000000000350000001EURPCE0620130301                  81                
ARN2532M20A        8018138139457Pressacavo IP68 M20 OTTONE-NICHEL          000500005000050999999B0000000043500000000435000001EURPCE0620130301                  81                
ARN2532M25A        8018138139464Pressacavo IP68 M25 OTTONE-NICHEL          000250002500025999999B0000000054500000000545000001EURPCE0620130301                  81                
ARN2532M32A        8018138137613Pressacavo IP68 M32 OTTONE-NICHEL          000250002500025999999B0000000078000000000780000001EURPCE0620130301                  81                
ARN2532M40A        8018138137620Pressacavo IP68 M40 OTTONE-NICHEL          000100001000010999999B0000000117000000001170000001EURPCE0620130301                  81                
ARN2532M50A        8018138137637Pressacavo IP68 M50 OTTONE-NICHEL          000050000500005999999B0000000210000000002100000001EURPCE0620130301                  81                
ARN3420M2503       8018138166644Controdado esagon.M25 GRIGIO               00150001500015099999940000000002400000000024000001EURPCE0320130301                  81                
ARN3420M32         8018138139198Controdado esagon.M32 GRIGIO               00075000750007599999940000000004300000000043000001EURPCE0320130301                  81                
ARN3420M3203       8018138166576Controdado esagon.M32 GRIGIO               00075000750007599999940000000004300000000043000001EURPCE0320130301                  81                
ARN3420M40         8018138139204Controdado esagon.M40 GRIGIO               00030000300003099999940000000006700000000067000001EURPCE0320130301                  81                
ARN3420M4003       8018138166606Controdado esagon.M40 GRIGIO               00030000300003099999940000000006700000000067000001EURPCE0320130301                  81                
ARN3420M50         8018138139211Controdado esagon.M50 GRIGIO               00030000300003099999940000000010400000000104000001EURPCE0320130301                  81                
ARN3420M5003       8018138166552Controdado esagon.M50 GRIGIO               00030000300003099999940000000010400000000104000001EURPCE0320130301                  81                
ARN3420M63         8018138139228Controdado esagon.M63 GRIGIO               00020000200002099999940000000013700000000137000001EURPCE0320130301                  81                
ARN3420M6303       8018138166613Controdado esagon.M63 GRIGIO               00020000200002099999940000000013700000000137000001EURPCE0320130301                  81                
ARN3420P07         8018138139051Controdado esagonale Pg7 GRIGIO            00400004000040099999940000000001100000000011000001EURPCE0320130301                  81                
ARN3420P09         8018138139068Controdado esagonale Pg9 GRIGIO            00300003000030099999940000000001200000000012000001EURPCE0320130301                  81                
ARN3420P09K        8018138153750Controdado esagonale Pg9 GRIGIO            00300003000030099999940000000001200000000012000001EURPCE0320130301                  81                
ARN3420P11         8018138139075Controdado esagonale Pg11 GRIGIO           00300003000030099999940000000001400000000014000001EURPCE0320130301                  81                
ARN3420P11K        8018138153767Controdado esagonale Pg11 GRIGIO           00300003000030099999940000000001400000000014000001EURPCE0320130301                  81                
ARN3420P13         8018138139082Controdado esagonale Pg13,5 GRIGIO         00250002500025099999940000000001500000000015000001EURPCE0320130301                  81                
ARN3420P13K        8018138153774Controdado esagonale Pg13,5 GRIGIO         00250002500025099999940000000001500000000015000001EURPCE0320130301                  81                
ARN3420P16         8018138139099Controdado esagonale Pg16 GRIGIO           00200002000020099999940000000001600000000016000001EURPCE0320130301                  81                
ARN3420P16K        8018138153781Controdado esagonale Pg16 GRIGIO           00200002000020099999940000000001600000000016000001EURPCE0320130301                  81                
ARN3420P21         8018138139105Controdado esagonale Pg21 GRIGIO           00100001000010099999940000000002500000000025000001EURPCE0320130301                  81                
ARN3420P21K        8018138153798Controdado esagonale Pg21 GRIGIO           00100001000010099999940000000002500000000025000001EURPCE0320130301                  81                
ARN3420P29         8018138139112Controdado esagonale Pg29 GRIGIO           00060000600006099999940000000004300000000043000001EURPCE0320130301                  81                
ARN3420P36         8018138139129Controdado esagonale Pg36 GRIGIO           00030000300003099999940000000006600000000066000001EURPCE0320130301                  81                
ARN3420P42         8018138139136Controdado esagonale Pg42 GRIGIO           00030000300003099999940000000010400000000104000001EURPCE0320130301                  81                
ARN3420P48         8018138139143Controdado esagonale Pg48 GRIGIO           00020000200002099999940000000013300000000133000001EURPCE0320130301                  81                
ARN3440.2TF        8018138151541Scaricatore comb. cl.B+C+D 1+1p+TLS        000010000100001999999B0000005400000000054000000001EURPCE0620130301                  78                
ARN3440.4TF        8018138151527Scaricatore comb. cl.B+C+D 3+1p+TLS        000010000100001999999B0000012000000000120000000001EURPCE0620130301                  78                
ARN350M1201        8018138167238Pressacavo IP68 M12 GRIGIO                 00150001500015099999940000000003700000000037000001EURPCE0320130301                  81                
ARN350M1203        8018138150834Pressacavo IP68 M12 NERO                   00150001500015099999940000000005000000000050000001EURPCE0320130301                  81                
ARN350M1601        8018138167245Pressacavo IP68 M16 GRIGIO                 00100001000010099999940000000004100000000041000001EURPCE0320130301                  81                
ARN350M1603        8018138150858Pressacavo IP68 M16 NERO                   00100001000010099999940000000005400000000054000001EURPCE0320130301                  81                
ARN350M2001        8018138167252Pressacavo IP68 M20 GRIGIO                 00050000500005099999940000000004500000000045000001EURPCE0320130301                  81                
ARN350M2003        8018138150872Pressacavo IP68 M20 NERO                   00050000500005099999940000000006700000000067000001EURPCE0320130301                  81                
ARN350M2501        8018138167269Pressacavo IP68 M25 GRIGIO                 00040000400004099999940000000007800000000078000001EURPCE0320130301                  81                
ARN350M2503        8018138179453Pressacavo IP68 M25 NERO                   00040000400004099999940000000011300000000113000001EURPCE0320130301                  81                
ARN350M3201        8018138167276Pressacavo IP68 M32 GRIGIO                 00020000200002099999940000000014900000000149000001EURPCE0320130301                  81                
ARN350M3203        8018138150919Pressacavo IP68 M32 NERO                   00020000200002099999940000000021100000000211000001EURPCE0320130301                  81                
ARN350M4001        8018138167283Pressacavo IP68 M40 GRIGIO                 00010000100001099999940000000027900000000279000001EURPCE0320130301                  81                
ARN350M4003        8018138150933Pressacavo IP68 M40 NERO                   00010000100001099999940000000038700000000387000001EURPCE0320130301                  81                
ARN350M5001        8018138167290Pressacavo IP68 M50 GRIGIO                 00006000060000699999940000000047800000000478000001EURPCE0320130301                  81                
ARN350M5003        8018138150957Pressacavo IP68 M50 NERO                   00006000060000699999940000000076100000000761000001EURPCE0320130301                  81                
ARN350M6301        8018138167306Pressacavo IP68 M63 GRIGIO                 00005000050000599999940000000055700000000557000001EURPCE0320130301                  81                
ARN350M6303        8018138150971Pressacavo IP68 M63 NERO                   00005000050000599999940000000086000000000860000001EURPCE0320130301                  81                
ARN350P0701        8018138167139Pressacavo IP68 Pg 7 GRIGIO                00150001500015099999940000000003900000000039000001EURPCE0320130301                  81                
ARN350P0901        8018138167146Pressacavo IP68 Pg 9 GRIGIO                00100001000010099999940000000004100000000041000001EURPCE0320130301                  81                
ARN350P1101        8018138167153Pressacavo IP68 Pg 11 GRIGIO               00080000800008099999940000000004300000000043000001EURPCE0320130301                  81                
ARN350P1301        8018138167160Pressacavo IP68 Pg 13,5 GRIGIO             00060000600006099999940000000004500000000045000001EURPCE0320130301                  81                
ARN350P1601        8018138167177Pressacavo IP68 Pg 16 GRIGIO               00050000500005099999940000000005000000000050000001EURPCE0320130301                  81                
ARN350P2101        8018138167184Pressacavo IP68 Pg 21 GRIGIO               00025000250002599999940000000007400000000074000001EURPCE0320130301                  81                
ARN350P2901        8018138167191Pressacavo IP68 Pg 29 GRIGIO               00010000100001099999940000000016600000000166000001EURPCE0320130301                  81                
ARN350P3601        8018138167207Pressacavo IP68 Pg 36 GRIGIO               00007000070000799999940000000033400000000334000001EURPCE0320130301                  81                
ARN350P4201        8018138167214Pressacavo IP68 Pg 42 GRIGIO               00006000060000699999940000000047800000000478000001EURPCE0320130301                  81                
ARN350P4801        8018138167221Pressacavo IP68 Pg 48 GRIGIO               00005000050000599999940000000052800000000528000001EURPCE0320130301                  81                
ARN371T            8018138127744Supporto x tetti lisci Acciaio INOX        00010000100001099999940000000039000000000390000001EURPCE0320130301                  71                
ARN372T            8018138127768Supporto x coppi 200-350 INOX              00030000010000199999940000000081900000000819000001EURPCE0320130301                  71                
ARN382             8018138140668Morsetto gronda/tondino Ac-GC              00010000100001099999940000000054000000000540000001EURPCE0320130301                  71                
ARN384             8018138140675Morsetto lamiere 18mm/tondino Ac-GC        00004000040000499999940000000110000000001100000001EURPCE0320130301                  71                
ARN386A200         8018138132199Barra adduzione d16 Ac-GC 2 m              000010000100001999999B0000000220000000002200000001EURPCE0620130301                  71                
ARN391T            8018138127782Supporto x tegole L210 Acciaio INOX        00010000100001099999940000000053600000000536000001EURPCE0320130301                  71                
ARN392             8018138127959Morsetto multiuso tond./tond. Ac-GC        00015000150001599999940000000037000000000370000001EURPCE0320130301                  71                
ARN393.100         8018138119879Supporto leggero x tetti piani H100        00025000250002599999940000000085000000000850000001EURPCE0320130301                  71                
ARN393.55          8018138119893Supporto leggero x tetti piani H55         00025000250002599999940000000039000000000390000001EURPCE0320130301                  71                
ARN393TB           8018138127799Supporto pesante per tetti piani           00060000600006099999940000000043000000000430000001EURPCE0320130301                  71                
ARN394T            8018138127812Supporto x d8-10 x tegole L210 INOX        000600000100001999999B0000000071100000000711000001EURPCE0620130301                  71                
ARN404.20          8018138114447Morsetto x dispersori d20-25 Ac-GC         00020000200002099999940000000028800000000288000001EURPCE0320130301                  73                
ARN405.25          8018138140699Morsetto AC-ZN x disp.tondi d25            00004000040000499999940000000097900000000979000001EURPCE0320130301                  73                
ARN414.2           8018138151893Scaricatore sovratensione T3 1+1p          00008000080000899999940000001300000000013000000001EURPCE0320130301                  78                
ARN414.4           8018138151916Scaricatore sovratensione T3 3+1p          00004000010000199999940000001900000000019000000001EURPCE0320130301                  78                
ARN414M4           8018138151930Scaricatore miniaturizzato T3 2poli        00004000040000499999940000000580000000005800000001EURPCE0320130301                  78                
ARN416TV-SAT       8018138191400Scaricatore per impianti TV e SAT          00008000010000199999940000000990000000009900000001EURPCE0120130701                  78                
ARN420M12          8018138139570Controdado esag. M12 OTTONE-NICHEL         001000010000100999999B0000000002800000000028000001EURPCE0620130301                  81                
ARN420M16          8018138139587Controdado esag. M16 OTTONE-NICHEL         001000010000100999999B0000000004000000000040000001EURPCE0620130301                  81                
ARN420M20          8018138139594Controdado esag. M20 OTTONE-NICHEL         001000010000100999999B0000000005000000000050000001EURPCE0620130301                  81                
ARN420M25          8018138139600Controdado esag. M25 OTTONE-NICHEL         000500005000050999999B0000000007400000000074000001EURPCE0620130301                  81                
ARN420M32          8018138139617Controdado esag. M32 OTTONE-NICHEL         000500005000050999999B0000000009000000000090000001EURPCE0620130301                  81                
ARN420M40          8018138139624Controdado esag. M40 OTTONE-NICHEL         000100001000010999999B0000000018900000000189000001EURPCE0620130301                  81                
ARN420M50          8018138139631Controdado esag. M50 OTTONE-NICHEL         000050000500005999999B0000000034300000000343000001EURPCE0620130301                  81                
ARN420M63          8018138139648Controdado esag. M63 OTTONE-NICHEL         000050000500005999999B0000000046100000000461000001EURPCE0620130301                  81                
ARN420P07          8018138139471Controdado esagonale Pg 7 OTTONE           002000020000200999999B0000000002400000000024000001EURPCE0620130301                  81                
ARN420P09          8018138139488Controdado esagonale Pg 9 OTTONE           002000020000200999999B0000000002700000000027000001EURPCE0620130301                  81                
ARN420P11          8018138139495Controdado esagonale Pg 11 OTTONE          001000010000100999999B0000000002800000000028000001EURPCE0620130301                  81                
ARN3334            8018138119794Morsetto lamiere 5 mm/tondino RAME         00005000050000599999940000000120000000001200000001EURPCE0320130301                  71                
ARN334             8018138119800Morsetto lamiere 5 mm/tondino Ac-GC        00010000100001099999940000000050000000000500000001EURPCE0320130301                  71                
ARN335             4011126032444Morsetto lamiere/tondino OTTONE            00005000050000599999940000000072000000000720000001EURPCE0320130301                  71                
ARN336.2           8018138113679Morsetto sezionamento Ac-GC                00008000080000899999940000000155000000001550000001EURPCE0320130301                  71                
ARN3370ST          8018138127720Supporto universale M6 in RAME             00020000200002099999940000000042000000000420000001EURPCE0320130301                  71                
ARN3372            8018138122633Supporto x coppi 200-350 RAME              00010000100001099999940000000174100000001741000001EURPCE0320130301                  71                
ARN3372.8          8018138119817Supporto CLIK x coppi 200-350 RAME         00030000010000199999940000000125000000001250000001EURPCE0320130301                  71                
ARN3382            8018138140651Morsetto gronda/tondino RAME               00010000100001099999940000000125000000001250000001EURPCE0320130301                  71                
ARN3386B414        8018138131734Barra adduzione d14 RAME 4 m               000010000100001999999B0000001800000000018000000001EURPCE0620130301                  71                
ARN3391.8          8018138119824Supporto CLIK d8 L210 x tegole RAME        00010000100001099999940000000082000000000820000001EURPCE0320130301                  71                
ARN3392            8018138146707Morsetto multiuso tond./tond. RAME         00005000050000599999940000000113000000001130000001EURPCE0320130301                  71                
ARN3394.8          8018138119831Supporto CLIK d8 L410 x tegole RAME        000500000100001999999B0000000105000000001050000001EURPCE0620130301                  71                
ARN3403.20         8018138130539Morsetto per dispersori Ø18 in RAME        00040000400004099999940000000020600000000206000001EURPCE0320130301                  73                
ARN3403.20GDO      8018138180893Morsetto per dispersori Ø18 in RAME        00030000300003099999940000000027300000000273000001EURPCE0320130301                  73                
ARN3404.20         8018138122640Morsetto RAMATO x disp.tondi d18-20        00020000200002099999940000000034000000000340000001EURPCE0320130301                  73                
ARN3420M12         8018138139150Controdado esagon.M12 GRIGIO               00300003000030099999940000000001200000000012000001EURPCE0320130301                  81                
ARN3420M1203       8018138166538Controdado esagon.M12 GRIGIO               00300003000030099999940000000001200000000012000001EURPCE0320130301                  81                
ARN3420M16         8018138139167Controdado esagon.M16 GRIGIO               00300003000030099999940000000001400000000014000001EURPCE0320130301                  81                
ARN3420M1603       8018138166521Controdado esagon.M16 GRIGIO               00300003000030099999940000000001400000000014000001EURPCE0320130301                  81                
ARN3420M20         8018138139174Controdado esagon.M20 GRIGIO               00200002000020099999940000000001600000000016000001EURPCE0320130301                  81                
ARN3420M2003       8018138166514Controdado esagon.M20 GRIGIO               00200002000020099999940000000001600000000016000001EURPCE0320130301                  81                
ARN3420M25         8018138139181Controdado esagon.M25 GRIGIO               00150001500015099999940000000002400000000024000001EURPCE0320130301                  81                
ARN420P13          8018138139501Controdado esagonale Pg 13,5 OTTONE        001000010000100999999B0000000003100000000031000001EURPCE0620130301                  81                
ARN420P16          8018138139518Controdado esagonale Pg 16 OTTONE          000500005000050999999B0000000003800000000038000001EURPCE0620130301                  81                
ARN420P21          8018138139525Controdado esagonale Pg 21 OTTONE          000500005000050999999B0000000005200000000052000001EURPCE0620130301                  81                
ARN420P29          8018138139532Controdado esagonale Pg 29 OTTONE          000200002000020999999B0000000010600000000106000001EURPCE0620130301                  81                
ARN440             8018138151787Cartuccia di ricambio per 440              00008000080000899999940000000700000000007000000001EURPCE0320130301                  78                
ARN440.1           8018138151374Scaricatore sovratensione 1 polo T2        00008000080000899999940000000800000000008000000001EURPCE0320130301                  78                
ARN440.1.550       8018138151824Scaricatore classeC 1p 550V                00008000080000899999940000000980000000009800000001EURPCE0320130301                  78                
ARN440.1000        8018138166002Cartuccia di ricambio per 440.1002         00008000010000199999940000000630000000006300000001EURPCE0120130701                  78                
ARN440.1002        8018138178500Scaricatore per fotovoltaico 1000V         00008000080000899999940000002100000000021000000001EURPCE0320130301                  78                
ARN440.1-15        8018138178654Scaricatore sovratensione 1 polo T1        00008000080000899999940000000450000000004500000001EURPCE0320130301                  78                
ARN440.1F          8018138151770Scaricatore sovratensione T2 1p+TLS        00008000010000199999940000001010000000010100000001EURPCE0320130301                  78                
ARN440.1TT         8018138151794Scaricatore T2 1polo x NPE                 00008000080000899999940000000980000000009800000001EURPCE0320130301                  78                
ARN440.2           8018138151381Scaricatore sovratensione T2 2 poli        00008000080000899999940000001550000000015500000001EURPCE0320130301                  78                
ARN440.2-15        8018138189698Scaricatore sovratensione T2 2 poli        00008000080000899999940000000900000000009000000001EURPCE0320130301                  78                
ARN440.2F          8018138151725Scaricatore sovratensione T2 2p+TLS        00008000010000199999940000001960000000019600000001EURPCE0320130301                  78                
ARN440.2TT         8018138151756Scaricatore sovratensione T2 1+1p          00008000080000899999940000001750000000017500000001EURPCE0320130301                  78                
ARN440.2TTF        8018138151763Scaricatore T2 1+1p+TLS                    000080000100001999999B0000002140000000021400000001EURPCE0620130301                  78                
ARN440.3           8018138151701Scaricatore sovratensione T2 3 poli        00005000050000599999940000002350000000023500000001EURPCE0320130301                  78                
ARN440.3F          8018138151718Scaricatore sovratensione T2 2p+TLS        00005000010000199999940000002590000000025900000001EURPCE0320130301                  78                
ARN440.4           8018138151398Scaricatore sovratensione T2 4 poli        00004000040000499999940000003150000000031500000001EURPCE0320130301                  78                
ARN440.414.2       8018138159295Scaricatore combinato C+D 1+1p             00008000010000199999940000001500000000015000000001EURPCE0320130301                  78                
ARN440.4-15        8018138189704Scaricatore sovratensione T2 4 poli        00004000040000499999940000001700000000017000000001EURPCE0320130301                  78                
ARN440.4F          8018138151695Scaricatore sovratensione T2 4p+TLS        00004000010000199999940000003500000000035000000001EURPCE0320130301                  78                
ARN440.4TT         8018138151732Scaricatore sovratensione T2 3+1p          00004000040000499999940000003450000000034500000001EURPCE0320130301                  78                
ARN440.4TTF        8018138151749Scaricatore T2 3+1p+TLS                    000040000100001999999B0000003760000000037600000001EURPCE0620130301                  78                
ARN440.500         8018138191356Cartuccia di ricambio per 440.502          00008000010000199999940000000650000000006500000001EURPCE0120130701                  78                
ARN440.502         8018138178661Scaricatore per fotovoltaico 500V          00008000080000899999940000001550000000015500000001EURPCE0320130301                  78                
ARN440.550         8018138151848Cartuccia di ricambio per 440.1.550        00008000080000899999940000000850000000008500000001EURPCE0320130301                  78                
ARN440.800         8018138191363Cartuccia di ricambio per 440.802          00008000010000199999940000000550000000005500000001EURPCE0120130701                  78                
ARN440.802         8018138178517Scaricatore per fotovoltaico 800V          00008000080000899999940000001850000000018500000001EURPCE0320130301                  78                
ARN440-15          8018138178692Cartuccia di ricambio per 440-15           00008000080000899999940000000400000000004000000001EURPCE0320130301                  78                
ARN440TT           8018138151817Spinterometro di ricambio per 440          000080000800008999999B0000000900000000009000000001EURPCE0620130301                  78                
ARN441             8018138188455Cartuccia di ricambio per 441              00008000080000899999940000000460000000004600000001EURPCE0320130301                  78                
ARN441.2TT         8018138188509Scaricatore sovratensione T2 1+1p          00008000080000899999940000000999000000009990000001EURPCE0320130301                  78                
ARN441.4TT         8018138188523Scaricatore sovratensione T2 3+1p          00004000040000499999940000001990000000019900000001EURPCE0320130301                  78                
ARN441TT           8018138188547Cartuccia di ricambio per 441TT            00008000080000899999940000000550000000005500000001EURPCE0320130301                  78                
ARN445GL           8018138134537Giunto a scatto H40 mm                     00030000300003099999940000000017000000000170000001EURPCE0320130301                  36                
ARN5005.8          8018138119985Supporto CLIK x tondino d8 mm INOX         00030000300003099999940000000018500000000185000001EURPCE0320130301                  71                
ARN5011F           8018138148589Morsettiera unip.11 fori 63A GRIGIA        00020000200002099999940000000048500000000485000001EURPCE0320130301                  91                
ARN5011N           8018138148893Morsettiera ripartizione 11fori BLU        00020000200002099999940000000048500000000485000001EURPCE0320130301                  94                
ARN5015F           8018138148596Morsettiera unip.15 fori 63A GRIGIA        00020000200002099999940000000059500000000595000001EURPCE0320130301                  91                
ARN5015N           8018138148909Morsettiera ripartizione 15fori BLU        00020000200002099999940000000059500000000595000001EURPCE0320130301                  94                
ARN5028.8          8018138120004Supporto CLIK d8 INOX con tassello         00015000150001599999940000000050000000000500000001EURPCE0320130301                  71                
ARN503C.3          8018138170603Placca cieca int. 83,5 BIANCO PURO         00030000300003099999940000000019000000000190000001EURPCE0320130301                  29                
ARN504C.3          8018138170610Placca cieca int. 108,5 BIANCO PURO        00010000100001099999940000000024500000000245000001EURPCE0320130301                  29                
ARN507F            8018138148572Morsettiera unip. 7 fori 63A GRIGIA        00020000200002099999940000000035000000000350000001EURPCE0320130301                  91                
ARN507N            8018138148886Morsettiera ripartizione 7 fori BLU        00020000200002099999940000000035000000000350000001EURPCE0320130301                  94                
ARN514M12          8018138155839Tappo filettato M12 GRIGIO                 00500005000050099999940000000002200000000022000001EURPCE0320130301                  81                
ARN514M16          8018138155846Tappo filettato M16 GRIGIO                 00300003000030099999940000000002400000000024000001EURPCE0320130301                  81                
ARN514M20          8018138155853Tappo filettato M20 GRIGIO                 00200002000020099999940000000002700000000027000001EURPCE0320130301                  81                
ARN514M25          8018138155860Tappo filettato M25 GRIGIO                 00100001000010099999940000000003000000000030000001EURPCE0320130301                  81                
ARN514M32          8018138155877Tappo filettato M32 GRIGIO                 00060000600006099999940000000005200000000052000001EURPCE0320130301                  81                
ARN514M40          8018138155884Tappo filettato M40 GRIGIO                 00050000500005099999940000000009600000000096000001EURPCE0320130301                  81                
ARN514M50          8018138155891Tappo filettato M50 GRIGIO                 00030000300003099999940000000013600000000136000001EURPCE0320130301                  81                
ARN514M63          8018138155907Tappo filettato M63 GRIGIO                 00020000200002099999940000000015600000000156000001EURPCE0320130301                  81                
ARN514P07          8018138155754Tappo filettato Pg 7 GRIGIO                00500005000050099999940000000001200000000012000001EURPCE0320130301                  81                
ARN514P09          8018138155761Tappo filettato Pg 9 GRIGIO                00400004000040099999940000000001200000000012000001EURPCE0320130301                  81                
ARN514P11          8018138155778Tappo filettato Pg 11 GRIGIO               00300003000030099999940000000001400000000014000001EURPCE0320130301                  81                
ARN514P13          8018138155785Tappo filettato Pg13,5 GRIGIO              00200002000020099999940000000001500000000015000001EURPCE0320130301                  81                
ARN514P16          8018138155792Tappo filettato Pg 16 GRIGIO               00200002000020099999940000000001700000000017000001EURPCE0320130301                  81                
ARN514P21          8018138155808Tappo filettato Pg 21 GRIGIO               00100001000010099999940000000002400000000024000001EURPCE0320130301                  81                
ARN514P29          8018138155815Tappo filettato Pg 29 GRIGIO               00060000600006099999940000000004300000000043000001EURPCE0320130301                  81                
ARN514P36          8018138155822Tappo filettato Pg 36 GRIGIO               00030000300003099999940000000008700000000087000001EURPCE0320130301                  81                
ARN514P42          4011126019810Tappo filettato Pg 42 GRIGIO               00025000250002599999940000000015500000000155000001EURPCE0320130301                  81                
ARN514P48          4011126019360Tappo filettato Pg 48 GRIGIO               00010000100001099999940000000020000000000200000001EURPCE0320130301                  81                
ARN519-12          8018138155631Bandella asolata 12x0,75 Ac-SZ             00010000100001099999940000000169000000001690000001EURPCE0320130301                  35                
ARN519-17          8018138155648Bandella asolata 17x0,75 Ac-SZ             00010000100001099999940000000189000000001890000001EURPCE0320130301                  35                
ARN530P07          4011126012156Pressacavo IP54 Pg 7 OTTONE                002000020000200999999B0000000014000000000140000001EURPCE0620130301                  81                
ARN530P09          4011126012149Pressacavo IP54 Pg 9 OTTONE                002000020000200999999B0000000015000000000150000001EURPCE0620130301                  81                
ARN530P11          4011126012002Pressacavo IP54 Pg 11 OTTONE               001000010000100999999B0000000016000000000160000001EURPCE0620130301                  81                
ARN530P13          4011126012064Pressacavo IP54 Pg 13,5 OTTONE             001000010000100999999B0000000020000000000200000001EURPCE0620130301                  81                
ARN530P16          4011126012446Pressacavo IP54 Pg 16 OTTONE               000500005000050999999B0000000023500000000235000001EURPCE0620130301                  81                
ARN530P21          4011126012378Pressacavo IP54 Pg 21 OTTONE               000500005000050999999B0000000033500000000335000001EURPCE0620130301                  81                
ARN530P29          4011126012316Pressacavo IP54 Pg 29 OTTONE               000200002000020999999B0000000069500000000695000001EURPCE0620130301                  81                
ARN534-2           8018138115567Guida DIN EN 50035 32x15x1,5 chiusa        00020000200002099999940000000046000000000460000001EURLM 0320130301                  46                
ARN534LO-2         8018138115574Guida DIN EN 50035 32x15x1,5 forata        00020000200002099999940000000050000000000500000001EURLM 0320130301                  46                
ARN536-2           8018138115604Guida DIN EN 50022 35x7,5x1 chiusa         00040000400004099999940000000026000000000260000001EURLM 0320130301                  46                
ARN536LO-2         8018138115611Guida DIN EN 50022 35x7,5x1 forata         00040000400004099999940000000029000000000290000001EURLM 0320130301                  46                
ARN537-2           8018138115628Guida DIN EN 50022 35x15x1,5 chiusa        00020000200002099999940000000044000000000440000001EURLM 0320130301                  46                
ARN537LO-2         8018138115635Guida DIN EN 50022 35x15x1,5 forata        00020000200002099999940000000049000000000490000001EURLM 0320130301                  46                
ARN5393.65         8018138120080Supp.leggero x tetti piani CLIK H65        00025000250002599999940000000059000000000590000001EURPCE0320130301                  71                
ARN60211100        8431927012395Griglia 100X35 Elettrozincata              00024000240002499999940000000078000000000780000001EURLM 0320130301                  61                
ARN60211200        8431927012401Griglia 200X35 Elettrozincata              00018000180001899999940000000112000000001120000001EURLM 0320130301                  61                
ARN60211300        8431927012418Griglia 300X35 Elettrozincata              00018000180001899999940000000146000000001460000001EURLM 0320130301                  61                
ARN60212060        8431927012425Griglia 60x60 Elettrozincata               00036000360003699999940000000060500000000605000001EURLM 0320130301                  61                
ARN60212100        8431927012432Griglia 100X60 Elettrozincata              00024000240002499999940000000088000000000880000001EURLM 0320130301                  61                
ARN60212101        8018138168204Griglia 100X60 Elettrozincata              00024000240002499999940000000078000000000780000001EURLM 0320130301                  61                
ARN60212150        8431927012449Griglia 150X60 Elettrozincata              00024000240002499999940000000108000000001080000001EURLM 0320130301                  61                
ARN60212151        8018138168211Griglia 150X60 Elettrozincata              00018000180001899999940000000086000000000860000001EURLM 0320130301                  61                
ARN60212200        8431927012456Griglia 200X60 Elettrozincata              00018000180001899999940000000134000000001340000001EURLM 0320130301                  61                
ARN60212201        8018138168228Griglia 200X60 Elettrozincata              00018000180001899999940000000106000000001060000001EURLM 0320130301                  61                
ARN60212300        8431927012463Griglia 300X60 Elettrozincata              00012000120001299999940000000166000000001660000001EURLM 0320130301                  61                
ARN60212301        8018138168235Griglia 300X60 Elettrozincata              00012000120001299999940000000146000000001460000001EURLM 0320130301                  61                
ARN60212400        8431927012470Griglia 400X60 Elettrozincata              00012000120001299999940000000225000000002250000001EURLM 0320130301                  61                
ARN60212500        8431927012487Griglia 500X60 Elettrozincata              00006000060000699999940000000270000000002700000001EURLM 0320130301                  61                
ARN60212600        8431927012494Griglia 600x60 Elettrozincata              000060000600006999999B0000000330000000003300000001EURLM 0620130301                  61                
ARN60213200        8431927012500Griglia 200x100 Elettrozincata             00012000120001299999940000000194000000001940000001EURLM 0320130301                  61                
ARN60213300        8431927012517Griglia 300x100 Elettrozincata             00006000060000699999940000000259000000002590000001EURLM 0320130301                  61                
ARN60213400        8431927012524Griglia 400x100 Elettrozincata             00006000060000699999940000000292000000002920000001EURLM 0320130301                  61                
ARN60213500        8431927012531Griglia 500x100 Elettrozincata             00006000060000699999940000000385000000003850000001EURLM 0320130301                  61                
ARN60213600        8431927012548Griglia 600x100 Elettrozincata             000060000600006999999B0000000543000000005430000001EURLM 0620130301                  61                
ARN60251100        8431927006837Griglia 100x35 acciaio INOX                00024000240002499999940000000198000000001980000001EURLM 0320130301                  61                
ARN60251200        8431927006844Griglia 200X35 acciaio INOX                000180001800018999999B0000000245000000002450000001EURLM 0620130301                  61                
ARN60251300        8431927006851Griglia 300X35 acciaio INOX                000180001800018999999B0000000390000000003900000001EURLM 0620130301                  61                
ARN60252060        8431927006868Griglia 60x60 acciaio INOX                 00036000360003699999940000000354000000003540000001EURLM 0320130301                  61                
ARN60252100        8431927006875Griglia 100X60 acciaio INOX                00024000240002499999940000000484000000004840000001EURLM 0320130301                  61                
ARN60252150        8431927006882Griglia 150X60 acciaio INOX                00024000240002499999940000000572000000005720000001EURLM 0320130301                  61                
ARN60252200        8431927006899Griglia 200X60 acciaio INOX                00018000180001899999940000000660000000006600000001EURLM 0320130301                  61                
ARN60252300        8431927006905Griglia 300X60 acciaio INOX                00012000120001299999940000000837000000008370000001EURLM 0320130301                  61                
ARN60252400        8431927006912Griglia 400X60 acciaio INOX                00006000060000699999940000001040000000010400000001EURLM 0320130301                  61                
ARN60253200        8431927006943Griglia 200x100 acciaio INOX               000060000600006999999B0000000868000000008680000001EURLM 0620130301                  61                
ARN60253300        8431927006950Griglia 300x100 acciaio INOX               000060000600006999999B0000001040000000010400000001EURLM 0620130301                  61                
ARN60253400        8431927006967Griglia 400x100 acciaio INOX               000060000600006999999B0000001227000000012270000001EURLM 0620130301                  61                
ARN60253500        8431927006974Griglia 500x100 acciaio INOX               000060000600006999999B0000001435000000014350000001EURLM 0620130301                  61                
ARN60253600        8431927006981Griglia 600x100 acciaio INOX               000060000600006999999B0000001950000000019500000001EURLM 0620130301                  61                
ARN605             8018138115956Supporto max 8 apparecchi modulari         00020000020000299999940000000035500000000355000001EURPCE0320130301                  39                
ARN605-4           8018138120134Supporto max 4 apparecchi modulari         00010000100001099999940000000029000000000290000001EURPCE0320130301                  32                
ARN62011060        8431927012579Supporto per canale 60x60 Ac-EZ            00200000250002599999940000000029000000000290000001EURPCE0320130301                  62                
ARN62021104        8431927045355Supporto Omega Click L100 Ac-SZ            00005000050000599999940000000065500000000655000001EURPCE0320130301                  62                
ARN62021154        8431927045362Supporto Omega Click L150 Ac-SZ            00005000050000599999940000000075000000000750000001EURPCE0320130301                  62                
ARN62021204        8431927045379Supporto Omega Click L200 Ac-SZ            00005000050000599999940000000081000000000810000001EURPCE0320130301                  62                
ARN62021304        8431927045386Supporto Omega Click L300 Ac-SZ            00005000050000599999940000000103000000001030000001EURPCE0320130301                  62                
ARN62021404        8431927045393Supporto Omega Click L400 Ac-SZ            00005000050000599999940000000164500000001645000001EURPCE0320130301                  62                
ARN62021504        8431927045409Attacco a soffitto Omega L500 Ac-SZ        00005000050000599999940000000151000000001510000001EURPCE0320130301                  62                
ARN62021604        8431927045416Attacco a soffitto Omega L600 Ac-SZ        000050000500005999999B0000000177000000001770000001EURPCE0620130301                  62                
ARN62022104        8431927045423Supp.soffitto Omega Click L100 AcSZ        00004000040000499999940000000135000000001350000001EURPCE0320130301                  62                
ARN62022154        8431927045430Supp.soffitto Omega Click L150 AcSZ        00004000040000499999940000000145000000001450000001EURPCE0320130301                  62                
ARN62022204        8431927045447Supp.soffitto Omega Click L200 AcSZ        00004000040000499999940000000161000000001610000001EURPCE0320130301                  62                
ARN62022304        8431927045454Supp.soffitto Omega Click L300 AcSZ        00004000040000499999940000000187000000001870000001EURPCE0320130301                  62                
ARN62022404        8431927045461Supp.soffitto Omega Click L400 AcSZ        00004000040000499999940000000218000000002180000001EURPCE0320130301                  62                
ARN62025103        8431927039811Supporto rinforzato Click L100 AcSZ        00004000040000499999940000000062500000000625000001EURPCE0320130301                  62                
ARN62025153        8431927039828Supporto rinforzato Click L150 AcSZ        00004000040000499999940000000073000000000730000001EURPCE0320130301                  62                
ARN62025203        8431927039835Supporto rinforzato Click L200 AcSZ        00004000040000499999940000000088500000000885000001EURPCE0320130301                  62                
ARN62025303        8431927039842Supporto rinforzato Click L300 AcSZ        00004000040000499999940000000106000000001060000001EURPCE0320130301                  62                
ARN62025403        8431927039859Supporto rinforzato Click L400 AcSZ        00004000040000499999940000000155000000001550000001EURPCE0320130301                  62                
ARN62025503        8431927039866Supporto rinforzato Click L500 AcSZ        00004000040000499999940000000185000000001850000001EURPCE0320130301                  62                
ARN62025603        8431927039873Supporto rinforzato Click L600 AcSZ        000040000400004999999B0000000215000000002150000001EURPCE0620130301                  62                
ARN62026010        8431927007186Mini Supporto Ac-EZ                        00100000100001099999940000000040000000000400000001EURPCE0320130301                  63                
ARN62026011        8431927007193Supporto universale Ac-SZ                  00070000100001099999940000000064000000000640000001EURPCE0320130301                  63                
ARN62061060        8431927018564Supporto per canale 60x60 INOX             00200000250002599999940000000094000000000940000001EURPCE0320130301                  62                
ARN62065103        8431927040022Supporto rinforzato Click L100 INOX        00004000040000499999940000000155000000001550000001EURPCE0320130301                  62                
ARN62065153        8431927040039Supporto rinforzato Click L150 INOX        00004000040000499999940000000294000000002940000001EURPCE0320130301                  62                
ARN62065203        8431927040046Supporto rinforzato Click L200 INOX        00004000040000499999940000000318000000003180000001EURPCE0320130301                  62                
ARN62065303        8431927040053Supporto rinforzato Click L300 INOX        00004000040000499999940000000365000000003650000001EURPCE0320130301                  62                
ARN62065403        8431927040060Supporto rinforzato Click L400 INOX        000040000400004999999B0000000520000000005200000001EURPCE0620130301                  62                
ARN62065503        8431927040077Supporto rinforzato Click L500 INOX        000040000400004999999B0000000593000000005930000001EURPCE0620130301                  62                
ARN62065603        8431927040084Supporto rinforzato Click L600 INOX        000040000400004999999B0000000676000000006760000001EURPCE0620130301                  62                
ARN62066010        8431927018762Mini Supporto INOX                         00100000100001099999940000000130000000001300000001EURPCE0320130301                  63                
ARN63022204        8431927045713Sospensione Click L200 Ac-SZ               00010000100001099999940000000057000000000570000001EURPCE0320130301                  62                
ARN63022304        8431927045720Sospensione Click L300 Ac-SZ               00010000100001099999940000000068000000000680000001EURPCE0320130301                  62                
ARN63022404        8431927045737Sospensione Click L400 Ac-SZ               00010000100001099999940000000091500000000915000001EURPCE0320130301                  62                
ARN633-1.6         8018138116052Mensola per canali L 120 BIANCA            00010000080000899999940000000059000000000590000001EURPCE0320130701                  35                
ARN633-2.1         8018138116069Mensola per canali L 150 GRIGIA            00010000100001099999940000000063000000000630000001EURPCE0320130301                  35                
ARN633-2.6         8018138116076Mensola per canali L 150 BIANCA            00010000120001299999940000000063000000000630000001EURPCE0320130701                  35                
ARN633-3.1         8018138116083Mensola per canali L 250 GRIGIA            00010000100001099999940000000069000000000690000001EURPCE0320130301                  35                
ARN633-3.6         8018138116090Mensola per canali L 250 BIANCA            00010000100001099999940000000069000000000690000001EURPCE0320130301                  35                
ARN634FF           8018138116113Giunto a vite H60/80 (2 pezzi)             00010000100001099999940000000015000000000150000001EURPCE0320130301                  35                
ARN635FF           8018138116144Giunto a vite H40 (2 pezzi)                00010000100001099999940000000014000000000140000001EURPCE0320130301                  35                
ARN636SD           8018138116151Giunto snodato a vite H60/80 (2 pz)        00010000100001099999940000000020000000000200000001EURPCE0320130301                  35                
ARN64010020        8431927012586Giunto CLICK Ac-EZ                         00100000250002599999940000000048000000000480000001EURPCE0320130301                  63                
ARN64010041        8431927012593Placca di giunzione laterale Ac-EZ         00200000500005099999940000000019000000000190000001EURPCE0320130301                  63                
ARN64010060        8431927012609Morsetto di fissaggio Ac-EZ                01100000500005099999940000000014000000000140000001EURPCE0320130301                  63                
ARN64010061        8431927012616Giunto rinforzato Ac-EZ                    00700000500005099999940000000019500000000195000001EURPCE0320130301                  63                
ARN64010062        8431927012623Piastrina di fissaggio Ac-EZ               02000000500005099999940000000006500000000065000001EURPCE0320130301                  63                
ARN64060041        8431927018786Placca di giunzione laterale INOX          00200000500005099999940000000062500000000625000001EURPCE0320130301                  63                
ARN64060060        8431927014818Morsetto di fissaggio INOX                 01100000500005099999940000000036500000000365000001EURPCE0320130301                  63                
ARN64060061        8431927014825Giunto rinforzato INOX                     00100001000010099999940000000043000000000430000001EURPCE0320130301                  63                
ARN64060062        8431927014832Piastrina di fissaggio INOX                02000000500005099999940000000015000000000150000001EURPCE0320130301                  63                
ARN64110061        8018138169522Giunto rinforzato Ac-EZ                    00100001000010099999940000000015000000000150000001EURPCE0320130301                  63                
ARN645GL           8018138131581Giunto a scatto H60 mm                     00030000300003099999940000000018000000000180000001EURPCE0320130301                  36                
ARN646Z.1          8018138131567Giunto scatto H60 x T GRIGIO (2 pz)        00002000020000299999940000000020000000000200000001EURPCE0320130301                  36                
ARN646Z.6          8018138132687Giunto scatto H60 x T BIANCO (2 pz)        00002000020000299999940000000020000000000200000001EURPCE0320130301                  36                
ARN6700.3          8018138189711Derivazione 115x115 BIANCO PURO            00020000200002099999940000000162000000001620000001EURPCE0320130301                  39                
ARN6700.6          8018138117639Scatola derivazione 115x115 BIANCA         00020000200002099999940000000162000000001620000001EURPCE0320130301                  39                
ARN6700BT12.6      8018138134599Scatola equipotenz. 12 fori BIANCA         00004000040000499999940000000260000000002600000001EURPCE0320130301                  39                
ARN6700S.3         8018138143355Derivazione 115x115 BIANCO PURO            00020000200002099999940000000180000000001800000001EURPCE0320130301                  39                
ARN6700S.6         8018138117660Scatola derivazione 115x115 BIANCA         00020000200002099999940000000180000000001800000001EURPCE0320130301                  39                
ARN6700TE14.3      8018138176483Scatola equipotenz. 14 fori BIANCA         00004000040000499999940000000310000000003100000001EURPCE0320130301                  39                
ARN6700TE14.6      8018138134605Scatola equipotenz. 14 fori BIANCA         00004000040000499999940000000310000000003100000001EURPCE0320130301                  39                
ARN6701.3          8018138184815Derivazione 155x155 BIANCO PURO            00006000060000699999940000000252000000002520000001EURPCE0320130301                  39                
ARN6701.6          8018138117707Scatola derivazione 155x155 BIANCA         00006000060000699999940000000252000000002520000001EURPCE0320130301                  39                
ARN67010040        8431927012630Uscita per tubi Ac-EZ                      00110000100001099999940000000045000000000450000001EURPCE0320130301                  63                
ARN67010043        8431927015945Sospensione centrale Click M8 Ac-EZ        00240000200002099999940000000033000000000330000001EURPCE0320130301                  62                
ARN67010046        8431927012654Sospensione centrale M8 Ac-EZ              00720000200002099999940000000013500000000135000001EURPCE0320130301                  62                
ARN67010053        8431927012685Giunto multiplo Ac-EZ                      00360000100001099999940000000047500000000475000001EURPCE0320130301                  63                
ARN670120.1        8018138139709Scatola SCATTO derivaz. L120 GRIGIO        00006000010000199999940000000190000000001900000001EURPCE0320130301                  39                
ARN670120.6        8018138134612Scatola SCATTO derivaz. L120 BIANCO        00006000010000199999940000000190000000001900000001EURPCE0320130301                  39                
ARN670150.1        8018138139716Scatola SCATTO derivaz. L150 GRIGIO        00006000010000199999940000000245000000002450000001EURPCE0320130301                  39                
ARN670150.6        8018138134629Scatola SCATTO derivaz. L150 BIANCO        00006000010000199999940000000245000000002450000001EURPCE0320130301                  39                
ARN6701BT20.6      8018138134636Scatola equipotenz. 20 fori BIANCA         00006000010000199999940000000380000000003800000001EURPCE0320130301                  39                
ARN6701S.3         8018138143362Derivazione 155x155 BIANCO PURO            00006000060000699999940000000345000000003450000001EURPCE0320130301                  39                
ARN6701S.6         8018138117738Scatola derivazione 155x155 BIANCA         00006000060000699999940000000345000000003450000001EURPCE0320130301                  39                
ARN6701TE28.3      8018138176490Scatola equipotenz. 30 fori BIANCA         00006000060000699999940000000620000000006200000001EURPCE0320130301                  39                
ARN6701TE28.6      8018138134643Scatola equipotenz. 30 fori BIANCA         00006000060000699999940000000620000000006200000001EURPCE0320130301                  39                
ARN6702.3          8018138189728Derivazione 200x200 BIANCO PURO            00006000060000699999940000000350000000003500000001EURPCE0320130301                  39                
ARN6702.6          8018138117783Scatola derivazione 200x200 BIANCA         00006000060000699999940000000350000000003500000001EURPCE0320130301                  39                
ARN67020039        8431927008749Uscita per cavi a fibra ottica             00080000100001099999940000000043000000000430000001EURPCE0320130301                  63                
ARN67020610        8018138910698Parete divisoria CLICK H25 x 3000          00060000600006099999940000000057000000000570000001EURLM 0320130301                  63                
ARN67020611        8018138900309Parete divisoria CLICK H50 x 3000          00048000480004899999940000000068000000000680000001EURLM 0320130301                  63                
ARN67020612        8018138906479Parete divisoria CLICK H80 x 3000          00036000360003699999940000000094000000000940000001EURLM 0320130301                  63                
ARN6702-80.3       8018138185768Adattatore H80 x 6702 BIANCO PURO          00015000010000199999940000000050000000000500000001EURPCE0320130301                  39                
ARN6702-80.6       8018138127928Adattatore canali H80 x 6702 BIANCO        00015000010000199999940000000050000000000500000001EURPCE0320130301                  39                
ARN6702BT34.6      8018138134650Scatola equipotenz. 34 fori BIANCA         00004000010000199999940000000530000000005300000001EURPCE0320130301                  39                
ARN6702S.1         8018138117813Scatola derivazione 200x200 GRIGIA         00006000060000699999940000000460000000004600000001EURPCE0320130301                  39                
ARN6702S.2         8018138117820Scatola derivaz. 200x200 ANTRACITE         00004000040000499999940000000390000000003900000001EURPCE0320130301                  32                
ARN6702S.3         8018138143379Derivazione 200x200 BIANCO PURO            00006000060000699999940000000460000000004600000001EURPCE0320130301                  39                
ARN6702S.6         8018138117837Scatola derivazione 200x200 BIANCA         00006000060000699999940000000460000000004600000001EURPCE0320130301                  39                
ARN6702TE56.3      8018138176506Scatola equipotenz. 60 fori BIANCA         00004000010000199999940000000890000000008900000001EURPCE0320130301                  39                
ARN6702TE56.6      8018138134667Scatola equipotenz. 60 fori BIANCA         00004000010000199999940000000890000000008900000001EURPCE0320130301                  39                
ARN6703.3          8018138189735Derivazione 280x280 BIANCO PURO            00003000030000399999940000000537000000005370000001EURPCE0320130301                  39                
ARN6703.6          8018138117882Scatola derivazione 280x280 BIANCA         00003000030000399999940000000537000000005370000001EURPCE0320130301                  39                
ARN67030539        8431927009326Distanziatore x pass. L100-200 AcSZ        00010000100001099999940000000069000000000690000001EURPCE0320130301                  63                
ARN67030540        8431927009333Distanziatore x pass. L300-600 AcSZ        00010000100001099999940000000087000000000870000001EURPCE0320130301                  63                
ARN6703S.1         8018138117912Scatola derivazione 280x280 GRIGIA         00003000030000399999940000000590000000005900000001EURPCE0320130301                  39                
ARN6703S.3         8018138176513Derivazione 280x280 BIANCO PURO            00002000020000299999940000000590000000005900000001EURPCE0320130301                  39                
ARN6703S.6         8018138117929Scatola derivazione 280x280 BIANCA         00002000020000299999940000000590000000005900000001EURPCE0320130301                  39                
ARN67060053        8431927018816Giunto multiplo INOX                       00360000100001099999940000000141500000001415000001EURPCE0320130301                  63                
ARN67060610        8018138910681Parete divisoria INOX 25x3000              000600006000060999999B0000000230000000002300000001EURLM 0620130301                  63                
ARN67060611        8018138910575Parete divisoria INOX 50x3000              000480004800048999999B0000000310000000003100000001EURLM 0620130301                  63                
ARN67060612        8018138910568Parete divisoria INOX 100x3000             000360003600036999999B0000000390000000003900000001EURLM 0620130301                  63                
ARN672200.1        8018138139723Scatola SCATTO derivaz. L200 GRIGIO        00004000010000199999940000000310000000003100000001EURPCE0320130301                  39                
ARN672200.6        8018138134681Scatola SCATTO derivaz. L200 BIANCO        00004000010000199999940000000310000000003100000001EURPCE0320130301                  39                
ARN680             8018138117974Scatola 3-4-5moduli x canali H60/80        00010000100001099999940000000066000000000660000001EURPCE0320130301                  39                
ARN68000010        8431927015860Supporto per fascette reggicavo            00400000200002099999940000000017000000000170000001EURPCE0320130301                  63                
ARN68000058        8431927009661Tronchese                                  00001000010000199999940000003900000000039000000001EURPCE0320130301                  63                
ARN68000060        8431927009678Distanziatore pavimento Poliammide         00100001000010099999940000000044000000000440000001EURPCE0320130301                  63                
ARN683             8018138120271Scatola 3 moduli x canali H60              00010000100001099999940000000035500000000355000001EURPCE0320130301                  39                
ARN683-40          8018138123791Scatola 3 moduli x canali H40              00012000120001299999940000000033500000000335000001EURPCE0320130301                  39                
ARN686             8018138120288Scatola 3-4-6 moduli x canali H60          00012000120001299999940000000065000000000650000001EURPCE0320130301                  39                
ARN686S            8018138171136Scatola 3-4-6 moduli x canali H60          00012000120001299999940000000063000000000630000001EURPCE0320130301                  30                
ARN7089.6          8018138118025Scatola 3-4 mod. x KB-KC72 BIANCA          00010000100001099999940000000119000000001190000001EURPCE0320130301                  11                
ARN72020060        8431927011053Coperchio GRIGLIA L 60 Ac-SZ               00024000240002499999940000000065500000000655000001EURLM 0320130301                  61                
ARN72020100        8431927011077Coperchio GRIGLIA L 100 Ac-SZ              00016000160001699999940000000079000000000790000001EURLM 0320130301                  61                
ARN72020150        8431927011121Coperchio GRIGLIA L 150 Ac-SZ              00016000160001699999940000000101000000001010000001EURLM 0320130301                  61                
ARN72020200        8431927011176Coperchio GRIGLIA L 200 Ac-SZ              00008000080000899999940000000113500000001135000001EURLM 0320130301                  61                
ARN72020300        8431927011220Coperchio GRIGLIA L 300 Ac-SZ              00008000080000899999940000000169000000001690000001EURLM 0320130301                  61                
ARN72020400        8431927011275Coperchio GRIGLIA L 400 Ac-SZ              00008000080000899999940000000250000000002500000001EURLM 0320130301                  61                
ARN72020500        8431927011329Coperchio GRIGLIA L 500 Ac-SZ              000040000400004999999B0000000300000000003000000001EURLM 0620130301                  61                
ARN72020600        8431927011374Coperchio GRIGLIA L 600 Ac-SZ              000040000400004999999B0000000350000000003500000001EURLM 0620130301                  61                
ARN72050060        8431927011787Coperchio GRIGLIA L 60 INOX                00024000240002499999940000000240000000002400000001EURLM 0320130301                  61                
ARN72050100        8431927011794Coperchio GRIGLIA L 100 INOX               00024000240002499999940000000350000000003500000001EURLM 0320130301                  61                
ARN72050150        8431927011800Coperchio GRIGLIA L 150 INOX               000120001200012999999B0000000440000000004400000001EURLM 0620130301                  61                
ARN72050200        8431927011817Coperchio GRIGLIA L 200 INOX               00012000120001299999940000000570000000005700000001EURLM 0320130301                  61                
ARN72050300        8431927011824Coperchio GRIGLIA L 300 INOX               000080000800008999999B0000000793000000007930000001EURLM 0620130301                  61                
ARN72050400        8431927011831Coperchio GRIGLIA L 400 INOX               000080000800008999999B0000000999000000009990000001EURLM 0620130301                  61                
ARN7489.3          8018138174434Scatola 4-3mod KB-KC72 BIANCO PURO         00012000120001299999940000000099500000000995000001EURPCE0320130301                  11                
ARN7489.6          8018138137989Scatola 4-3 mod. x KB-KC72 BIANCO          00012000120001299999940000000099500000000995000001EURPCE0320130301                  11                
