LISTINO METEL       BTI109918601552014  2014010120140616BTICINO LIST.2014RR Agg.Giu14                                        020                                                 
BTIBHAL10103       8005543457887Testaletto - Canale gas 1,2 metri LightTech00001000010000199999910000000888600000008886000001EURPCE0320140101CIV7              CIV.-104-42-102   
BTIBHAL10104       8005543457894Testaletto - Canale gas 1,6 metri LightTech00001000010000199999910000001184700000011847000001EURPCE0320140101CIV7              CIV.-104-42-102   
BTIBHBA10101       8005543457436Testaletto - Canale gas 3 metri bianco     00001000010000199999910000002285000000022850000001EURPCE0320140101CIV7              CIV.-104-42-102   
BTIBH00106         8005543462522Testaletto - Ident AFNOR protossido d'azoto00010000100001099999910000000126900000001269000001EURPCE0320140101CIV7              CIV.-104-42-102   
BTIBHAL102         8005543462621Testaletto - Coppia testate canale gas TH  00001000010000199999910000000176400000001764000001EURPCE0320140101CIV7              CIV.-104-42-102   
BTIBH00108         8005543462560Testaletto - Ident AFNOR aria              00010000100001099999910000000126900000001269000001EURPCE0320140101CIV7              CIV.-104-42-102   
BTIBH00107         8005543462546Testaletto - Ident AFNOR ossigeno          00010000100001099999910000000126900000001269000001EURPCE0320140101CIV7              CIV.-104-42-102   
BTIBHBA102         8005543462676Testaletto - Coppia testate canale gas bian00001000010000199999910000000176400000001764000001EURPCE0320140101CIV7              CIV.-104-42-102   
BTIBH00109         8005543462584Testaletto - Ident AFNOR vuoto             00010000100001099999910000000126900000001269000001EURPCE0320140101CIV7              CIV.-104-42-102   
BTIBHBA10102       8005543458099Testaletto - Canale gas 0,9 metri bianco   00001000010000199999910000000677000000006770000001EURPCE0320140101CIV7              CIV.-104-42-102   
BTIBHAL10102       8005543457849Testaletto - Canale gas 0,9 metri LightTech00001000010000199999910000000677000000006770000001EURPCE0320140101CIV7              CIV.-104-42-102   
BTIBHAL10101       8005543457795Testaletto - Canale gas 3 metri Light Tech 00001000010000199999910000002285000000022850000001EURPCE0320140101CIV7              CIV.-104-42-102   
BTIBHBA10103       8005543458105Testaletto - Canale gas 1,2 metri bianco   00001000010000199999910000000888600000008886000001EURPCE0320140101CIV7              CIV.-104-42-102   
BTIBH00204         8005543462607Testaletto - Gancio flebo                  00010000100001099999910000000153300000001533000001EURPCE0320140101CIV7              CIV.-104-42-102   
BTIBHBA10104       8005543458112Testaletto - Canale gas 1,6 metri bianco   00001000010000199999910000001184700000011847000001EURPCE0320140101CIV7              CIV.-104-42-102   
BTIBHBA10105       8005543462720Testaletto - Canale gas 0,5 metri bianco   00002000020000299999910000000440900000004409000001EURPCE0320140101CIV7              CIV.-104-42-102   
BTIBHAL104         8005543463444Testaletto -  Kit instal valvola AFNOR Tech00004000040000499999910000000176400000001764000001EURPCE0320140101CIV7              CIV.-104-42-102   
BTIBHAL103         8005543462638Testaletto - Kit instal valvola UNI Tech   00004000040000499999910000000176400000001764000001EURPCE0320140101CIV7              CIV.-104-42-102   
BTIBHBA104         8005543462652Testaletto -  Kit instal valvola AFNOR wh  00004000040000499999910000000176400000001764000001EURPCE0320140101CIV7              CIV.-104-42-102   
BTIBHBA103         8005543462683Testaletto -  Kit instal valvola UNI bianco00004000040000499999910000000176400000001764000001EURPCE0320140101CIV7              CIV.-104-42-102   
BTIBH00204AB       8005543470015Testaletto - Gancio flebo antib            00010000100001099999910000000200600000002006000001EURPCE0320140101CIV7              CIV.-104-42-102   
BTIBHAL21207TH     8005543463512Testaletto - L1200 1+1x24W/2x39W allum     00001000010000199999910000008614400000086144000001EURPCE0320140101CIV7              CIV.-104-42-102   
BTIBHAL31412TH     8005543463567Testaletto - L1600 1+1x24W/2x28W allum     00001000010000199999910000010812000000108120000001EURPCE0320140101CIV7              CIV.-104-42-102   
BTIBHBA21207AM     8005543464205Testaletto - L1200 1+1x24W/2x39W bianco    00001000010000199999910000008614400000086144000001EURPCE0320140101CIV7              CIV.-104-42-102   
BTIBHAL21210TH     8005543463543Testaletto - L1200 1+1x24W/2x39W allum     00001000010000199999910000008614400000086144000001EURPCE0320140101CIV7              CIV.-104-42-102   
BTIBHBA31412AM     8005543464250Testaletto - L1600 1+1x24W/2x28W bianco    00001000010000199999910000010812000000108120000001EURPCE0320140101CIV7              CIV.-104-42-102   
BTIBHBA21204AM     8005543464175Testaletto - L1200 1+1x24W/2x39W bianco    00001000010000199999910000008614400000086144000001EURPCE0320140101CIV7              CIV.-104-42-102   
BTIBHBA21210AM     8005543464236Testaletto - L1200 1+1x24W/2x39W bianco    00001000010000199999910000008614400000086144000001EURPCE0320140101CIV7              CIV.-104-42-102   
BTIBHBA31415AM     8005543464281Testaletto - L1600 1+1x24W/2x28W bianco    00001000010000199999910000010812000000108120000001EURPCE0320140101CIV7              CIV.-104-42-102   
BTIBHBA104AB       8005543470091Testaletto - Kit instal valvo AFNOR anti   00004000040000499999910000000229300000002293000001EURPCE0320140101CIV7              CIV.-104-42-102   
BTIBHAL21204TH     8005543463482Testaletto - L1200 1+1x24W/2x39W allum     00001000010000199999910000008614400000086144000001EURPCE0320140101CIV7              CIV.-104-42-102   
BTIBHBA11001AM     8005543457252Testaletto - L900 1+1x24W/2x24W bianco     00001000010000199999910000006944400000069444000001EURPCE0320140101CIV7              CIV.-104-42-102   
BTIBHAL31415TH     8005543463598Testaletto - L1600 1+1x24W/2x28W allum     00001000010000199999910000010812000000108120000001EURPCE0320140101CIV7              CIV.-104-42-102   
BTIBHAL10105       8005543462706Testaletto - Canale gas 0,5 metri LightTech00002000020000299999910000000440900000004409000001EURPCE0320140101CIV7              CIV.-104-42-102   
BTIBHAL21211TH     8005543463550Testaletto - L1200 1+1x24W/2x39W allum     00001000010000199999910000008614400000086144000001EURPCE0320140101CIV7              CIV.-104-42-102   
BTIBHBA21208AM     8005543464212Testaletto - L1200 1+1x24W/2x39W bianco    00001000010000199999910000008614400000086144000001EURPCE0320140101CIV7              CIV.-104-42-102   
BTIBHBA31416AM     8005543464298Testaletto - L1600 1+1x24W/2x28W bianco    00001000010000199999910000010812000000108120000001EURPCE0320140101CIV7              CIV.-104-42-102   
BTIBHAL21208TH     8005543463529Testaletto - L1200 1+1x24W/2x39W allum     00001000010000199999910000008614400000086144000001EURPCE0320140101CIV7              CIV.-104-42-102   
BTIBHBA21205AM     8005543464182Testaletto - L1200 1+1x24W/2x39W bianco    00001000010000199999910000008614400000086144000001EURPCE0320140101CIV7              CIV.-104-42-102   
BTIBHBA31413AM     8005543464267Testaletto - L1600 1+1x24W/2x28W bianco    00001000010000199999910000010812000000108120000001EURPCE0320140101CIV7              CIV.-104-42-102   
BTIBHBA10104AB     8005543470053Testaletto - Canale gas 1,6 metri bia antib00001000010000199999910000001533900000015339000001EURPCE0320140101CIV7              CIV.-104-42-102   
BTIBHAL21008TH     8005543457924Testaletto - L1200 1+1x24W/2x24W allum     00001000010000199999910000008614400000086144000001EURPCE0320140101CIV7              CIV.-104-42-102   
BTIBHAL11001TH     8005543457917Testaletto - L900 1+1x24W/2x24W allum      00001000010000199999910000006944400000069444000001EURPCE0320140101CIV7              CIV.-104-42-102   
BTIBHAL11000TH     8005543457900Testaletto - L900 1+1x24W/2x24W allum      00001000010000199999910000006944400000069444000001EURPCE0320140101CIV7              CIV.-104-42-102   
BTIBHBA11000AM     8005543457245Testaletto - L900 1+1x24W/2x24W bianco     00001000010000199999910000006944400000069444000001EURPCE0320140101CIV7              CIV.-104-42-102   
BTIBHAL21202TH     8005543463468Testaletto - L1200 1+1x24W/2x39W allum     00001000010000199999910000008614400000086144000001EURPCE0320140101CIV7              CIV.-104-42-102   
BTIBHAL21205TH     8005543463499Testaletto - L1200 1+1x24W/2x39W allum     00001000010000199999910000008614400000086144000001EURPCE0320140101CIV7              CIV.-104-42-102   
BTIBHAL21203TH     8005543463475Testaletto - L1200 1+1x24W/2x39W allum     00001000010000199999910000008614400000086144000001EURPCE0320140101CIV7              CIV.-104-42-102   
BTIBHAL21206TH     8005543463505Testaletto - L1200 1+1x24W/2x39W allum     00001000010000199999910000008614400000086144000001EURPCE0320140101CIV7              CIV.-104-42-102   
BTIBHAL31413TH     8005543463574Testaletto - L1600 1+1x24W/2x28W allum     00001000010000199999910000010812000000108120000001EURPCE0320140101CIV7              CIV.-104-42-102   
BTIBHAL21209TH     8005543463536Testaletto - L1200 1+1x24W/2x39W allum     00001000010000199999910000008614400000086144000001EURPCE0320140101CIV7              CIV.-104-42-102   
BTIBHAL31416TH     8005543463604Testaletto - L1600 1+1x24W/2x28W allum     00001000010000199999910000010812000000108120000001EURPCE0320140101CIV7              CIV.-104-42-102   
BTIBHAL31417TH     8005543463611Testaletto - L1600 1+1x24W/2x28W allum     00001000010000199999910000010812000000108120000001EURPCE0320140101CIV7              CIV.-104-42-102   
BTIBHBA21211AM     8005543464243Testaletto - L1200 1+1x24W/2x39W bianco    00001000010000199999910000008614400000086144000001EURPCE0320140101CIV7              CIV.-104-42-102   
BTIBHAL31414TH     8005543463581Testaletto - L1600 1+1x24W/2x28W allum     00001000010000199999910000010812000000108120000001EURPCE0320140101CIV7              CIV.-104-42-102   
BTIBHBA21202AM     8005543464151Testaletto - L1200 1+1x24W/2x39W bianco    00001000010000199999910000008614400000086144000001EURPCE0320140101CIV7              CIV.-104-42-102   
BTIBHBA21206AM     8005543464199Testaletto - L1200 1+1x24W/2x39W bianco    00001000010000199999910000008614400000086144000001EURPCE0320140101CIV7              CIV.-104-42-102   
BTIBHBA21209AM     8005543464229Testaletto - L1200 1+1x24W/2x39W bianco    00001000010000199999910000008614400000086144000001EURPCE0320140101CIV7              CIV.-104-42-102   
BTIBHBA21203AM     8005543464168Testaletto - L1200 1+1x24W/2x39W bianco    00001000010000199999910000008614400000086144000001EURPCE0320140101CIV7              CIV.-104-42-102   
BTIBHBA31414AM     8005543464274Testaletto - L1600 1+1x24W/2x28W bianco    00001000010000199999910000010812000000108120000001EURPCE0320140101CIV7              CIV.-104-42-102   
BTIBHBA31417AM     8005543464304Testaletto - L1600 1+1x24W/2x28W bianco    00001000010000199999910000010812000000108120000001EURPCE0320140101CIV7              CIV.-104-42-102   
BTIBHBA102AB       8005543470060Testaletto - Coppia testate canale gas anti00001000010000199999910000000229300000002293000001EURPCE0320140101CIV7              CIV.-104-42-102   
BTIBHBA10103AB     8005543470046Testaletto - Canale gas 1,2 metri bia antib00001000010000199999910000001155100000011551000001EURPCE0320140101CIV7              CIV.-104-42-102   
BTIBHBA103AB       8005543470077Testaletto - Kit instal valvola UNI anti   00004000040000499999910000000229300000002293000001EURPCE0320140101CIV7              CIV.-104-42-102   
BTIBHBA10102AB     8005543470039Testaletto - Canale gas 0,9 metri bia antib00001000010000199999910000000880000000008800000001EURPCE0320140101CIV7              CIV.-104-42-102   
BTIBHBA21008AM     8005543457269Testaletto - L1200 1+1x24W/2x24W bianco    00001000010000199999910000008614400000086144000001EURPCE0320140101CIV7              CIV.-104-42-102   
BTILNA4802LBA      8005543422649LL - placca 2P bamboo                      00005000050000599999910000000487000000004870000001EURPCE0320140101CIV.              CIV.-109-43-122   
BTILNA4802PK       8005543422786LL - placca 2P park                        00005000050000599999910000000132700000001327000001EURPCE0320140101CIV.              CIV.-109-43-122   
BTILNA4802RK       8005543422809LL - placca 2P brick                       00005000050000599999910000000132700000001327000001EURPCE0320140101CIV.              CIV.-109-43-122   
BTILNA4802OA       8005543422748LL - placca 2P oro freddo                  00005000050000599999910000000257500000002575000001EURPCE0320140101CIV.              CIV.-109-43-122   
BTILNA4826VD       8005543426425LL - placca 3+3P verde                     00005000050000599999910000000143000000001430000001EURPCE0320140101CIV.              CIV.-109-43-122   
BTILNA4826OD       8005543426326LL - placca 3+3P arancio                   00005000050000599999910000000143000000001430000001EURPCE0320140101CIV.              CIV.-109-43-122   
BTILNA4803AE       8005543423868LL - placca 3P avenue                      00010000100001099999910000000132700000001327000001EURPCE0320140101CIV.              CIV.-109-43-122   
BTILNA4807LBA      8005543425763LL - placca 7P bamboo                      00001000010000199999910000000974000000009740000001EURPCE0320140101CIV.              CIV.-109-43-122   
BTILNA4804RK       8005543424667LL - placca 4P brick                       00005000050000599999910000000179500000001795000001EURPCE0320140101CIV.              CIV.-109-43-122   
BTILNA4826KG       8005543426241LL - placca 3+3P grigio ghiaccio           00005000050000599999910000000143000000001430000001EURPCE0320140101CIV.              CIV.-109-43-122   
BTILNA4804LCA      8005543424520LL - placca 4P ciliegio americano          00001000010000199999910000000746600000007466000001EURPCE0320140101CIV.              CIV.-109-43-122   
BTILNA4826LBA      8005543426449LL - placca 3+3P bamboo                    00001000010000199999910000000827700000008277000001EURPCE0320140101CIV.              CIV.-109-43-122   
BTILNA4804NA       8005543424568LL - placca 4P native                      00005000050000599999910000000242800000002428000001EURPCE0320140101CIV.              CIV.-109-43-122   
BTILND4802KR       8005543446508LL - placca 2P personalizzabile            00010000100001099999910000000079500000000795000001EURPCE0320140101CIV.              CIV.-109-43-122   
BTILNA4807KG       8005543425749LL - placca 7P grigio ghiaccio             00001000010000199999910000000168200000001682000001EURPCE0320140101CIV.              CIV.-109-43-122   
BTILNA4807LCA      8005543425770LL - placca 7P ciliegio americano          00001000010000199999910000001106300000011063000001EURPCE0320140101CIV.              CIV.-109-43-122   
BTILNA4826AD       8005543426067LL - placca 3+3P azzurro                   00005000050000599999910000000143000000001430000001EURPCE0320140101CIV.              CIV.-109-43-122   
BTILNA4804PK       8005543424643LL - placca 4P park                        00005000050000599999910000000179500000001795000001EURPCE0320140101CIV.              CIV.-109-43-122   
BTILNA4807PK       8005543425831LL - placca 7P park                        00001000010000199999910000000265800000002658000001EURPCE0320140101CIV.              CIV.-109-43-122   
BTILNA4826RK       8005543426364LL - placca 3+3P brick                     00005000050000599999910000000225600000002256000001EURPCE0320140101CIV.              CIV.-109-43-122   
BTILNA4807CB       8005543425725LL - placca 7P club                        00001000010000199999910000000265800000002658000001EURPCE0320140101CIV.              CIV.-109-43-122   
BTILNA4804CB       8005543424407LL - placca 4P club                        00005000050000599999910000000179500000001795000001EURPCE0320140101CIV.              CIV.-109-43-122   
BTILNA4826CB       8005543426180LL - placca 3+3P club                      00005000050000599999910000000225600000002256000001EURPCE0320140101CIV.              CIV.-109-43-122   
BTILNA4804LBA      8005543424506LL - placca 4P bamboo                      00001000010000199999910000000657100000006571000001EURPCE0320140101CIV.              CIV.-109-43-122   
BTILNA4826BZ       8005543426166LL - placca 3+3P bronzo                    00005000050000599999910000000375600000003756000001EURPCE0320140101CIV.              CIV.-109-43-122   
BTILNA4807LNC      8005543425824LL - placca 7P noce nazionale              00001000010000199999910000001106300000011063000001EURPCE0320140101CIV.              CIV.-109-43-122   
BTILNA4807VD       8005543425862LL - placca 7P verde                       00001000010000199999910000000168200000001682000001EURPCE0320140101CIV.              CIV.-109-43-122   
BTILNA4807RK       8005543425879LL - placca 7P brick                       00001000010000199999910000000265800000002658000001EURPCE0320140101CIV.              CIV.-109-43-122   
BTILNA4826PK       8005543426340LL - placca 3+3P park                      00005000050000599999910000000225600000002256000001EURPCE0320140101CIV.              CIV.-109-43-122   
BTILNA4807AD       8005543425664LL - placca 7P azzurro                     00001000010000199999910000000168200000001682000001EURPCE0320140101CIV.              CIV.-109-43-122   
BTILNA4807OD       8005543425817LL - placca 7P arancio                     00001000010000199999910000000168200000001682000001EURPCE0320140101CIV.              CIV.-109-43-122   
BTILNA4826LCA      8005543426456LL - placca 3+3P ciliegio americano        00001000010000199999910000000940500000009405000001EURPCE0320140101CIV.              CIV.-109-43-122   
BTILNA4826OA       8005543426302LL - placca 3+3P oro freddo                00005000050000599999910000000437100000004371000001EURPCE0320140101CIV.              CIV.-109-43-122   
BTILNA4807OA       8005543425800LL - placca 7P oro frdeeo                  00001000010000199999910000000514600000005146000001EURPCE0320140101CIV.              CIV.-109-43-122   
BTILNA4804BZ       8005543424421LL - placca 4P bronzo                      00005000050000599999910000000298200000002982000001EURPCE0320140101CIV.              CIV.-109-43-122   
BTILNA4804AD       8005543424308LL - placca 4P azzurro                     00010000100001099999910000000113600000001136000001EURPCE0320140101CIV.              CIV.-109-43-122   
BTILNA4804NS       8005543424582LL - placca 4P nichel                      00005000050000599999910000000298200000002982000001EURPCE0320140101CIV.              CIV.-109-43-122   
BTILNA4807NS       8005543425794LL - placca 7P nichel                      00001000010000199999910000000441500000004415000001EURPCE0320140101CIV.              CIV.-109-43-122   
BTILNA4826AE       8005543426081LL - placca 3+3P avenue                    00005000050000599999910000000225600000002256000001EURPCE0320140101CIV.              CIV.-109-43-122   
BTILNA4802OD       8005543422762LL - placca 2P arancio                     00010000100001099999910000000084300000000843000001EURPCE0320140101CIV.              CIV.-109-43-122   
BTILNA4826SQ       8005543426388LL - placca 3+3P square                    00005000050000599999910000000225600000002256000001EURPCE0320140101CIV.              CIV.-109-43-122   
BTILNA4802TE       8005543422847LL - placca 2P tech                        00010000100001099999910000000060300000000603000001EURPCE0320140101CIV.              CIV.-109-43-122   
BTILNA4826TE       8005543426401LL - placca 3+3P tech                      00005000050000599999910000000102200000001022000001EURPCE0320140101CIV.              CIV.-109-43-122   
BTILNA4807TE       8005543425855LL - placca 7P tech                        00001000010000199999910000000120400000001204000001EURPCE0320140101CIV.              CIV.-109-43-122   
BTILNA4804TE       8005543424704LL - placca 4P tech                        00010000100001099999910000000081200000000812000001EURPCE0320140101CIV.              CIV.-109-43-122   
BTILNA4826AR       8005543426128LL - placca 3+3P antracite                 00010000100001099999910000000068400000000684000001EURPCE0320140101CIV.              CIV.-109-43-122   
BTILNA4826ACS      8005543426043LL - placca 3+3P acciaio spazzolato        00005000050000599999910000000305600000003056000001EURPCE0320140101CIV.              CIV.-109-43-122   
BTILND4807KR       8005543446607LL - placca 7P personalizzabile            00001000010000199999910000000158800000001588000001EURPCE0320140101CIV.              CIV.-109-43-122   
BTILNA4802CB       8005543422564LL - placca 2P club                        00005000050000599999910000000132700000001327000001EURPCE0320140101CIV.              CIV.-109-43-122   
BTILNA4802SQ       8005543422823LL - placca 2P square                      00005000050000599999910000000132700000001327000001EURPCE0320140101CIV.              CIV.-109-43-122   
BTILNA4802LCA      8005543422663LL - placca 2P ciliegio americano          00005000050000599999910000000553200000005532000001EURPCE0320140101CIV.              CIV.-109-43-122   
BTILNA4802AR       8005543422502LL - placca 2P antracite                   00010000100001099999910000000040100000000401000001EURPCE0320140101CIV.              CIV.-109-43-122   
BTILNA4804AE       8005543424346LL - placca 4P avenue                      00005000050000599999910000000179500000001795000001EURPCE0320140101CIV.              CIV.-109-43-122   
BTILNA4804LNC      8005543424544LL - placca 4P noce nazionale              00001000010000199999910000000746600000007466000001EURPCE0320140101CIV.              CIV.-109-43-122   
BTILNA4803ACS      8005543423844LL - placca 3P acciaio spazzolato          00010000100001099999910000000180100000001801000001EURPCE0320140101CIV.              CIV.-109-43-122   
BTILNA4807AE       8005543425671LL - placca 7P avenue                      00001000010000199999910000000265800000002658000001EURPCE0320140101CIV.              CIV.-109-43-122   
BTILNA4807NA       8005543425787LL - placca 7P native                      00001000010000199999910000000359700000003597000001EURPCE0320140101CIV.              CIV.-109-43-122   
BTILNA4803TE       8005543424247LL - placca 3P tech                        00020000200002099999910000000060300000000603000001EURPCE0320140101CIV.              CIV.-109-43-122   
BTILNA4803NA       8005543424100LL - placca 3P native                      00010000100001099999910000000180100000001801000001EURPCE0320140101CIV.              CIV.-109-43-122   
BTILNA4803AD       8005543424742LL - placca 3P azzurro                     00020000200002099999910000000084300000000843000001EURPCE0320140101CIV.              CIV.-109-43-122   
BTILNA4803KA       8005543423981LL - placca 3P acquamarina                 00020000200002099999910000000084300000000843000001EURPCE0320140101CIV.              CIV.-109-43-122   
BTILNA4826NA       8005543426265LL - placca 3+3P native                    00005000050000599999910000000305600000003056000001EURPCE0320140101CIV.              CIV.-109-43-122   
BTILNA4807GL       8005543497463LL - placca 7P argento lunare              00001000010000199999910000000265800000002658000001EURPCE0320140101CIV.              CIV.-109-43-122   
BTILNA4826LNC      8005543426463LL - placca 3+3P noce nazionale            00001000010000199999910000000940500000009405000001EURPCE0320140101CIV.              CIV.-109-43-122   
BTILNA4804GL       8005543497432LL - placca 4P argento lunare              00005000050000599999910000000179500000001795000001EURPCE0320140101CIV.              CIV.-109-43-122   
BTILNA4803OA       8005543424148LL - placca 3P oro freddo                  00010000100001099999910000000257500000002575000001EURPCE0320140101CIV.              CIV.-109-43-122   
BTILNA4826KF       8005543426227LL - placca 3+3P fumo di londra            00005000050000599999910000000143000000001430000001EURPCE0320140101CIV.              CIV.-109-43-122   
BTILNA4802NS       8005543422724LL - placca 2P nichel                      00005000050000599999910000000220800000002208000001EURPCE0320140101CIV.              CIV.-109-43-122   
BTILNA4819LBA      8005543506806LL - placca 2P bamboo                      00001000010000199999910000000487000000004870000001EURPCE0320140101CIV.              CIV.-109-43-122   
BTILNA4819RK       8005543507018LL - placca 2P brick                       00001000010000199999910000000132700000001327000001EURPCE0320140101CIV.              CIV.-109-43-122   
BTILNA4803NS       8005543424124LL - placca 3P nichel                      00010000100001099999910000000220800000002208000001EURPCE0320140101CIV.              CIV.-109-43-122   
BTILNA4802ACS      8005543422427LL - placca 2P acciaio spazzolato          00005000050000599999910000000180100000001801000001EURPCE0320140101CIV.              CIV.-109-43-122   
BTILNA4802AG       8005543422489LL - placca 2P argento                     00005000050000599999910000000180100000001801000001EURPCE0320140101CIV.              CIV.-109-43-122   
BTILNA4826KA       8005543426203LL - placca 3+3P acquamarina               00005000050000599999910000000143000000001430000001EURPCE0320140101CIV.              CIV.-109-43-122   
BTILNA4802BI       8005543422526LL - placca 2P bianca                      00010000100001099999910000000040100000000401000001EURPCE0320140101CIV.              CIV.-109-43-122   
BTILND4826KR       8005543446614LL - placca 3+3P personalizzabile          00005000050000599999910000000134900000001349000001EURPCE0320140101CIV.              CIV.-109-43-122   
BTILNA4807AR       8005543425688LL - placca 7P antracite                   00010000100001099999910000000080100000000801000001EURPCE0320140101CIV.              CIV.-109-43-122   
BTILNA4803CB       8005543423967LL - placca 3P club                        00010000100001099999910000000132700000001327000001EURPCE0320140101CIV.              CIV.-109-43-122   
BTILNA4803LBA      8005543424049LL - placca 3P bamboo                      00010000100001099999910000000487000000004870000001EURPCE0320140101CIV.              CIV.-109-43-122   
BTILNA4803BI       8005543423929LL - placca 3P bianca                      00020000200002099999910000000040100000000401000001EURPCE0320140101CIV.              CIV.-109-43-122   
BTILNA4803RK       8005543424209LL - placca 3P brick                       00010000100001099999910000000132700000001327000001EURPCE0320140101CIV.              CIV.-109-43-122   
BTILNA4803OD       8005543424162LL - placca 3P arancio                     00020000200002099999910000000084300000000843000001EURPCE0320140101CIV.              CIV.-109-43-122   
BTILNA4802NA       8005543422700LL - placca 2P native                      00005000050000599999910000000180100000001801000001EURPCE0320140101CIV.              CIV.-109-43-122   
BTILNA4803KG       8005543424025LL - placca 3P grigio ghiaccio             00020000200002099999910000000084300000000843000001EURPCE0320140101CIV.              CIV.-109-43-122   
BTILNA4826AG       8005543426104LL - placca 3+3P argento                   00005000050000599999910000000305600000003056000001EURPCE0320140101CIV.              CIV.-109-43-122   
BTILNA4804ACS      8005543424285LL - placca 4P acciaio spazzolato          00005000050000599999910000000242800000002428000001EURPCE0320140101CIV.              CIV.-109-43-122   
BTILNA4826BI       8005543426142LL - placca 3+3P bianca                    00010000100001099999910000000068400000000684000001EURPCE0320140101CIV.              CIV.-109-43-122   
BTILNA4803SQ       8005543424223LL - placca 3P square                      00010000100001099999910000000132700000001327000001EURPCE0320140101CIV.              CIV.-109-43-122   
BTILNA4804SQ       8005543424681LL - placca 4P square                      00005000050000599999910000000179500000001795000001EURPCE0320140101CIV.              CIV.-109-43-122   
BTILNA4807AG       8005543425701LL - placca 7P argento                     00001000010000199999910000000359700000003597000001EURPCE0320140101CIV.              CIV.-109-43-122   
BTILNA4807BI       8005543425886LL - placca 7P bianca                      00010000100001099999910000000080100000000801000001EURPCE0320140101CIV.              CIV.-109-43-122   
BTILNA4803LNC      8005543424087LL - placca 3P noce nazionale              00010000100001099999910000000553200000005532000001EURPCE0320140101CIV.              CIV.-109-43-122   
BTILNA4804OA       8005543424605LL - placca 4P oro freddo                  00005000050000599999910000000347400000003474000001EURPCE0320140101CIV.              CIV.-109-43-122   
BTILNA4807SQ       8005543425848LL - placca 7P square                      00001000010000199999910000000265800000002658000001EURPCE0320140101CIV.              CIV.-109-43-122   
BTILNA4819AE       8005543506714LL - placca 2P avenue                      00010000100001099999910000000132700000001327000001EURPCE0320140101CIV.              CIV.-109-43-122   
BTILNA4819AC       8005543506776LL - placca 2P acciaio                     00010000100001099999910000000132700000001327000001EURPCE0320140101CIV.              CIV.-109-43-122   
BTILNA4819GL       8005543506875LL - placca 2P argento lunare              00010000100001099999910000000132700000001327000001EURPCE0320140101CIV.              CIV.-109-43-122   
BTILNA4819SQ       8005543506998LL - placca 2P square                      00010000100001099999910000000132700000001327000001EURPCE0320140101CIV.              CIV.-109-43-122   
BTILNA4826NS       8005543426289LL - placca 3+3P nichel                    00005000050000599999910000000375600000003756000001EURPCE0320140101CIV.              CIV.-109-43-122   
BTILNA4803KF       8005543424001LL - placca 3P fumo di londra              00020000200002099999910000000084300000000843000001EURPCE0320140101CIV.              CIV.-109-43-122   
BTILNA4807BZ       8005543425718LL - placca 7P bronzo                      00001000010000199999910000000441500000004415000001EURPCE0320140101CIV.              CIV.-109-43-122   
BTILNA4804BI       8005543424384LL - placca 4P bianca                      00010000100001099999910000000054100000000541000001EURPCE0320140101CIV.              CIV.-109-43-122   
BTILNA4807KF       8005543425756LL - placca 7P fumo di londra              00001000010000199999910000000168200000001682000001EURPCE0320140101CIV.              CIV.-109-43-122   
BTILNA4803VD       8005543424261LL - placca 3P verde                       00020000200002099999910000000084300000000843000001EURPCE0320140101CIV.              CIV.-109-43-122   
BTILNA4803AR       8005543423905LL - placca 3P antracite                   00020000200002099999910000000040100000000401000001EURPCE0320140101CIV.              CIV.-109-43-122   
BTILNA4803LCA      8005543424063LL - placca 3P ciliegio americano          00010000100001099999910000000553200000005532000001EURPCE0320140101CIV.              CIV.-109-43-122   
BTILNA4804AR       8005543424360LL - placca 4P antracite                   00010000100001099999910000000054100000000541000001EURPCE0320140101CIV.              CIV.-109-43-122   
BTILNA4803AG       8005543423882LL - placca 3P argento                     00010000100001099999910000000180100000001801000001EURPCE0320140101CIV.              CIV.-109-43-122   
BTILNA4807ACS      8005543425657LL - placca 7P acciaio spazzolato          00001000010000199999910000000359700000003597000001EURPCE0320140101CIV.              CIV.-109-43-122   
BTILNA4803BZ       8005543423943LL - placca 3P bronzo                      00010000100001099999910000000220800000002208000001EURPCE0320140101CIV.              CIV.-109-43-122   
BTILNA4819AG       8005543506691LL - placca 2P argento                     00010000100001099999910000000180100000001801000001EURPCE0320140101CIV.              CIV.-109-43-122   
BTILNA4802LNC      8005543422687LL - placca 2P noce nazionale              00005000050000599999910000000553200000005532000001EURPCE0320140101CIV.              CIV.-109-43-122   
BTILNA4807KA       8005543425732LL - placca 7P acquamarina                 00001000010000199999910000000168200000001682000001EURPCE0320140101CIV.              CIV.-109-43-122   
BTILNA4826GL       8005543497494LL - placca 3+3P argento lunare            00001000010000199999910000000225600000002256000001EURPCE0320140101CIV.              CIV.-109-43-122   
BTILNA4826AC       8005543497470LL - placca 3+3P acciaio                   00001000010000199999910000000225600000002256000001EURPCE0320140101CIV.              CIV.-109-43-122   
BTILNA4819OD       8005543507032LL - placca 2P arancio                     00020000200002099999910000000084300000000843000001EURPCE0320140101CIV.              CIV.-109-43-122   
BTILNA4803PK       8005543424186LL - placca 3P park                        00010000100001099999910000000132700000001327000001EURPCE0320140101CIV.              CIV.-109-43-122   
BTILNA4802BZ       8005543422540LL - placca 2P bronzo                      00005000050000599999910000000220800000002208000001EURPCE0320140101CIV.              CIV.-109-43-122   
BTILNA4804AG       8005543424322LL - placca 4P argento                     00005000050000599999910000000242800000002428000001EURPCE0320140101CIV.              CIV.-109-43-122   
BTILNA4802AE       8005543422465LL - placca 2P avenue                      00005000050000599999910000000132700000001327000001EURPCE0320140101CIV.              CIV.-109-43-122   
BTILNA4819KA       8005543506851LL - placca 2P acquamarina                 00020000200002099999910000000084300000000843000001EURPCE0320140101CIV.              CIV.-109-43-122   
BTILNA4819CB       8005543506899LL - placca 2P club                        00001000010000199999910000000132700000001327000001EURPCE0320140101CIV.              CIV.-109-43-122   
BTILNA4819PK       8005543507025LL - placca 2P park                        00001000010000199999910000000132700000001327000001EURPCE0320140101CIV.              CIV.-109-43-122   
BTILNA4804OD       8005543424629LL - placca 4P arancio                     00010000100001099999910000000113600000001136000001EURPCE0320140101CIV.              CIV.-109-43-122   
BTILNA4819AR       8005543506936LL - placca 2P antracite                   00020000200002099999910000000040100000000401000001EURPCE0320140101CIV.              CIV.-109-43-122   
BTILNA4819KF       8005543506837LL - placca 2P fumo di londra              00020000200002099999910000000084300000000843000001EURPCE0320140101CIV.              CIV.-109-43-122   
BTILNA4819BZ       8005543506905LL - placca 2P bronzo                      00001000010000199999910000000220800000002208000001EURPCE0320140101CIV.              CIV.-109-43-122   
BTILNA4819VD       8005543506950LL - placca 2P verde                       00020000200002099999910000000084300000000843000001EURPCE0320140101CIV.              CIV.-109-43-122   
BTILND4804KR       8005543446584LL - placca 4P personalizzabile            00010000100001099999910000000109900000001099000001EURPCE0320140101CIV.              CIV.-109-43-122   
BTILNA4819ACS      8005543506752LL - placca 2P acciaio spazzolato          00010000100001099999910000000180100000001801000001EURPCE0320140101CIV.              CIV.-109-43-122   
BTILNA4819NS       8005543507063LL - placca 2P nichel                      00001000010000199999910000000220800000002208000001EURPCE0320140101CIV.              CIV.-109-43-122   
BTILNA4819TE       8005543506974LL - placca 2P tech                        00020000200002099999910000000060300000000603000001EURPCE0320140101CIV.              CIV.-109-43-122   
BTILNA4819BI       8005543506912LL - placca 2P bianca                      00020000200002099999910000000040100000000401000001EURPCE0320140101CIV.              CIV.-109-43-122   
BTILNA4802AD       8005543422441LL - placca 2P azzurro                     00010000100001099999910000000084300000000843000001EURPCE0320140101CIV.              CIV.-109-43-122   
BTILNA4802KF       8005543422601LL - placca 2P fumo di londra              00010000100001099999910000000084300000000843000001EURPCE0320140101CIV.              CIV.-109-43-122   
BTILNA4819NA       8005543507070LL - placca 2P native                      00001000010000199999910000000180100000001801000001EURPCE0320140101CIV.              CIV.-109-43-122   
BTILNA4807AC       8005543497456LL - placca 7P acciaio                     00001000010000199999910000000265800000002658000001EURPCE0320140101CIV.              CIV.-109-43-122   
BTILND4803KR       8005543446560LL - placca 3P personalizzabile            00020000200002099999910000000079500000000795000001EURPCE0320140101CIV.              CIV.-109-43-122   
BTILNA4819KG       8005543506813LL - placca 2P grigio ghiaccio             00020000200002099999910000000084300000000843000001EURPCE0320140101CIV.              CIV.-109-43-122   
BTILNA4819AD       8005543506738LL - placca 2P azzurro                     00020000200002099999910000000084300000000843000001EURPCE0320140101CIV.              CIV.-109-43-122   
BTILNA4804KG       8005543424483LL - placca 4P grigio ghiaccio             00010000100001099999910000000113600000001136000001EURPCE0320140101CIV.              CIV.-109-43-122   
BTILNA4802GL       8005543497357LL - placca 2P argento lunare              00005000050000599999910000000132700000001327000001EURPCE0320140101CIV.              CIV.-109-43-122   
BTILNA4802AC       8005543497333LL - placca 2P acciaio                     00005000050000599999910000000132700000001327000001EURPCE0320140101CIV.              CIV.-109-43-122   
BTILNA4819LNC      8005543507087LL - placca 2P noce nazionale              00001000010000199999910000000553200000005532000001EURPCE0320140101CIV.              CIV.-109-43-122   
BTILND4819KR       8005543507094LL - placca 2P personalizzabile            00020000200002099999910000000079500000000795000001EURPCE0320140101CIV.              CIV.-109-43-122   
BTILNA4804AC       8005543497418LL - placca 4P acciaio                     00005000050000599999910000000179500000001795000001EURPCE0320140101CIV.              CIV.-109-43-122   
BTILNA4804KF       8005543424469LL - placca 4P fumo di londra              00010000100001099999910000000113600000001136000001EURPCE0320140101CIV.              CIV.-109-43-122   
BTILNA4802KG       8005543422625LL - placca 2P grigio ghiaccio             00010000100001099999910000000084300000000843000001EURPCE0320140101CIV.              CIV.-109-43-122   
BTILNA4802KA       8005543422588LL - placca 2P acquamarina                 00010000100001099999910000000084300000000843000001EURPCE0320140101CIV.              CIV.-109-43-122   
BTILNA4802VD       8005543422861LL - placca 2P verde                       00010000100001099999910000000084300000000843000001EURPCE0320140101CIV.              CIV.-109-43-122   
BTILNA4804KA       8005543424445LL - placca 4P acquamarina                 00010000100001099999910000000113600000001136000001EURPCE0320140101CIV.              CIV.-109-43-122   
BTILNA4804VD       8005543424728LL - placca 4P verde                       00010000100001099999910000000113600000001136000001EURPCE0320140101CIV.              CIV.-109-43-122   
BTILNA4803GL       8005543497395LL - placca 3P argento lunare              00010000100001099999910000000132700000001327000001EURPCE0320140101CIV.              CIV.-109-43-122   
BTILNA4819LCA      8005543506790LL - placca 2P ciliegio americano          00001000010000199999910000000553200000005532000001EURPCE0320140101CIV.              CIV.-109-43-122   
BTILNA4803AC       8005543497371LL - placca 3P acciaio                     00010000100001099999910000000132700000001327000001EURPCE0320140101CIV.              CIV.-109-43-122   
BTILNA4819OA       8005543507056LL - placca 2P oro freddo                  00001000010000199999910000000257500000002575000001EURPCE0320140101CIV.              CIV.-109-43-122   
BTINT4001A         8005543420850LL - interruttore 1P 16A 1m tech           00010000100001099999910000000075600000000756000001EURPCE0320140101CIV.              CIV.-109-44-133   
BTINT4034N         8005543419892LL - pulsante 1P NC 10A 1m tech            00010000100001099999910000000099900000000999000001EURPCE0320140101CIV.              CIV.-109-44-133   
BTINT4044N         8005543419991LL - pulsante NO 2P 10A 1m tech            00010000100001099999910000000122300000001223000001EURPCE0320140101CIV.              CIV.-109-44-133   
BTINT4185          8012199505053light tech - presa duplex univer 2P+T 16A  00005000050000599999910000000225600000002256000001EURPCE0320140101CIV.              CIV.-109-44-133   
BTINT4011          8012199507170light tech - interruttore 2P 32A           00010000100001099999910000000331800000003318000001EURPCE0320140101CIV.              CIV.-109-44-133   
BTINT4016          8012199708577light tech - selettore rotativo 0-1-2-3    00001000010000199999910000000939300000009393000001EURPCE0320140101CIV.              CIV.-109-44-133   
BTINT4027          8012199431512light tech - commutatore due tasti 1-0-2   00010000100001099999910000000187600000001876000001EURPCE0320140101CIV.              CIV.-109-44-133   
BTINT4033          8012199431543light tech - pulsante 1P NO 10A a tirante  00005000050000599999910000000150200000001502000001EURPCE0320140101CIV.              CIV.-109-44-133   
BTINT4036          8012199431604light tech - doppio pulsante 1P NO 16A     00010000100001099999910000000157800000001578000001EURPCE0320140101CIV.              CIV.-109-44-133   
BTINT4037          8012199431635light tech - 2 pulsanti NO interbloccati   00010000100001099999910000000221500000002215000001EURPCE0320140101CIV.              CIV.-109-44-133   
BTINT4038R         8012199431666light tech - pulsante + portalamp rosso    00010000100001099999910000000176200000001762000001EURPCE0320140101CIV.              CIV.-109-44-133   
BTINT4115          8012199431970light tech - presa 2P+T 10A di sicurezza   00010000100001099999910000000137100000001371000001EURPCE0320140101CIV.              CIV.-109-44-133   
BTINT4119          8012199432007light tech - presa 2P+T 16A 250Vac         00010000100001099999910000000082700000000827000001EURPCE0320140101CIV.              CIV.-109-44-133   
BTINT4140          8012199432205light tech - presa std tedesco/italiano P3000010000100001099999910000000166800000001668000001EURPCE0320140101CIV.              CIV.-109-44-133   
BTINT4140/16       8012199491738light tech - presa UNEL e bipasso 10/16A   00040000400004099999910000000167300000001673000001EURPCE0320140101CIV.              CIV.-109-44-133   
BTINT4142          8012199433516light tech - presa 2P+T 10/16A francia     00001000010000199999910000000124000000001240000001EURPCE0320140101CIV.              CIV.-109-44-133   
BTINT4143          8012199433547light tech - presa 2P 10/16A francia       00001000010000199999910000000126300000001263000001EURPCE0320140101CIV.              CIV.-109-44-133   
BTINT4148A         8012199432281light tech - presa std tedesco supporto    00001000010000199999910000000137100000001371000001EURPCE0320140101CIV.              CIV.-109-44-133   
BTINT4164/13       8012199650951light tech - presa 2P+T Svizzera tipo 13   00001000010000199999910000000143900000001439000001EURPCE0320140101CIV.              CIV.-109-44-133   
BTINT4180/2        8012199482439light tech - presa duplex bipasso 10/16A   00010000100001099999910000000144700000001447000001EURPCE0320140101CIV.              CIV.-109-44-133   
BTINT4180/3        8012199482446light tech - presa triplex bipasso 10/16A  00005000050000599999910000000206700000002067000001EURPCE0320140101CIV.              CIV.-109-44-133   
BTINT4202DC        8012199437729light tech - presa TV derivata condensatore00010000100001099999910000000206300000002063000001EURPCE0320140101CIV.              CIV.-109-44-133   
BTINT4202P         8012199437750light tech - presa TV passante maschio     00010000100001099999910000000283800000002838000001EURPCE0320140101CIV.              CIV.-109-44-133   
BTINT4202PT        8012199437781light tech - presa TV passante maschio + R 00010000100001099999910000000283800000002838000001EURPCE0320140101CIV.              CIV.-109-44-133   
BTINT4210D         8012199535531light tech - presa TV/RD/SAT derivata      00001000010000199999910000000644600000006446000001EURPCE0320140101CIV.              CIV.-109-44-133   
BTINT4214D         8012199840987light tech - presta tv sat demix diretta   00010000100001099999910000000288800000002888000001EURPCE0320140101CIV.              CIV.-109-44-133   
BTINT4258/11N      8012199437545light tech - connettore RJ11 (4/6) tipo K1000010000100001099999910000000152200000001522000001EURPCE0320140101CIV.              CIV.-109-44-133   
BTINT4262/11       8012199432595light tech - connettore RJ11 AMP           00010000100001099999910000000207800000002078000001EURPCE0320140101CIV.              CIV.-109-44-133   
BTINT4262/12       8012199432625light tech - connettore RJ12 AMP           00010000100001099999910000000210200000002102000001EURPCE0320140101CIV.              CIV.-109-44-133   
BTINT4269F         8012199435190light tech - connettore TV standard F      00005000050000599999910000000133900000001339000001EURPCE0320140101CIV.              CIV.-109-44-133   
BTINT4269R         8012199435220light tech - modulo doppio RCA             00005000050000599999910000000133900000001339000001EURPCE0320140101CIV.              CIV.-109-44-133   
BTINT4291          8012199432656light tech - presa mignon 2P 6A 24V        00010000100001099999910000000105900000001059000001EURPCE0320140101CIV.              CIV.-109-44-133   
BTINT4292          8012199432687light tech - connettore HI-FI pentapolare  00010000100001099999910000000250200000002502000001EURPCE0320140101CIV.              CIV.-109-44-133   
BTINT4293          8012199435251light tech - connettore HI-FI punto-linea  00010000100001099999910000000220500000002205000001EURPCE0320140101CIV.              CIV.-109-44-133   
BTINT4294          8012199814049light tech - connett altoparlan home cinema00010000100001099999910000000113000000001130000001EURPCE0320140101CIV.              CIV.-109-44-133   
BTINT4301/10       8012199435282light tech - magnetotermico 1P+N 10A 3kA   00005000050000599999910000000566100000005661000001EURPCE0320140101CIV.              CIV.-109-44-133   
BTINT4301/16       8012199435312light tech - magnetotermico 1P+N 16A 3kA   00005000050000599999910000000606300000006063000001EURPCE0320140101CIV.              CIV.-109-44-133   
BTINT4301/6        8012199435343light tech - magnetotermico 1P+N 6A 1,5kA  00005000050000599999910000000542200000005422000001EURPCE0320140101CIV.              CIV.-109-44-133   
BTINT4321          8012199435466light tech - portafusibile per fusib 10A   00010000100001099999910000000164500000001645000001EURPCE0320140101CIV.              CIV.-109-44-133   
BTINT4330/230      8012199494494light tech - rele' monostabile 230Vac      00001000010000199999910000000268000000002680000001EURPCE0320140101CIV.              CIV.-109-44-133   
BTINT4341          8012199754253light tech - rele' ciclico 10AX 230V 3 fili00001000010000199999910000000401500000004015000001EURPCE0320140101CIV.              CIV.-109-44-133   
BTINT4341/34       8012199754260light tech - rele' ciclico 10AX 230V       00001000010000199999910000000401500000004015000001EURPCE0320140101CIV.              CIV.-109-44-133   
BTINT4351/12       8012199432717light tech - suoneria bronzo 12Vac 5VA     00010000100001099999910000000258200000002582000001EURPCE0320140101CIV.              CIV.-109-44-133   
BTINT4351/230      8012199432748light tech - suoneria bronzo 230Vac 8VA    00010000100001099999910000000324000000003240000001EURPCE0320140101CIV.              CIV.-109-44-133   
BTINT4356/12       8012199432779light tech - ronzatore 12Vac 5VA           00010000100001099999910000000190200000001902000001EURPCE0320140101CIV.              CIV.-109-44-133   
BTINT4356/230      8012199432809light tech - ronzatore 230Vac 8VA          00010000100001099999910000000259100000002591000001EURPCE0320140101CIV.              CIV.-109-44-133   
BTINT4371A         8012199432830light tech - portalampada spia arancio     00010000100001099999910000000113500000001135000001EURPCE0320140101CIV.              CIV.-109-44-133   
BTINT4371R         8012199432861light tech - portalampada spia rosso       00010000100001099999910000000113500000001135000001EURPCE0320140101CIV.              CIV.-109-44-133   
BTINT4371T         8012199432892light tech - portalampada spia trasparente 00010000100001099999910000000113500000001135000001EURPCE0320140101CIV.              CIV.-109-44-133   
BTINT4371V         8012199432922light tech - portalampada spia verde       00010000100001099999910000000113500000001135000001EURPCE0320140101CIV.              CIV.-109-44-133   
BTINT4372AV        8012199432953light tech - portalampada arancio/verde    00010000100001099999910000000156200000001562000001EURPCE0320140101CIV.              CIV.-109-44-133   
BTINT4372RT        8012199432984light tech - portalampada rosso/trasparente00010000100001099999910000000156200000001562000001EURPCE0320140101CIV.              CIV.-109-44-133   
BTINT4391          8012199433011light tech - predispositore jack 48V 10A   00010000100001099999910000000163700000001637000001EURPCE0320140101CIV.              CIV.-109-44-133   
BTINT4536          8012199456836light tech - scaricatore tensione 230Vac   00001000010000199999910000000323200000003232000001EURPCE0320140101CIV.              CIV.-109-44-133   
BTINT4126          8012199505145light tech - presa 2P+T 16A euroamer d=5   00010000100001099999910000000112400000001124000001EURPCE0320140101CIV.              CIV.-109-44-133   
BTINT4322          8012199912745light tech - portafusibile per fusibile 16A00010000100001099999910000000164500000001645000001EURPCE0320140101CIV.              CIV.-109-44-133   
BTINT4231S         8012199432564light tech - presa telefonica              00010000100001099999910000000166800000001668000001EURPCE0320140101CIV.              CIV.-109-44-133   
BTINT4164/12       8012199650944light tech - presa 2P+T Svizzera tipo 12   00001000010000199999910000000111600000001116000001EURPCE0320140101CIV.              CIV.-109-44-133   
BTINT4311/16       8012199662503light tech - presa sicura magnet 2P+T 16A  00001000010000199999910000001017700000010177000001EURPCE0320140101CIV.              CIV.-109-44-133   
BTINT4231          8012199432533light tech - presa telefonica inter linea  00010000100001099999910000000169400000001694000001EURPCE0320140101CIV.              CIV.-109-44-133   
BTINT4311/10       8012199662497light tech - presa sicura magnet 2P+T 10A  00001000010000199999910000000922900000009229000001EURPCE0320140101CIV.              CIV.-109-44-133   
BTINT4022C         8012199929804light tech - deviat 1P 16A chiavi uguali   00001000010000199999910000000623200000006232000001EURPCE0320140101CIV.              CIV.-109-44-133   
BTINT4355/12       8012199435497light tech - suoneria elettron 12Vac/dc    00006000060000699999910000000779200000007792000001EURPCE0320140101CIV.              CIV.-109-44-133   
BTINT4012          8012199431451light tech - interruttore 2P 16A a chiave  00001000010000199999910000000599700000005997000001EURPCE0320140101CIV.              CIV.-109-44-133   
BTINT4022          8012199431482light tech - deviatore 1P 16A a chiave     00001000010000199999910000000623200000006232000001EURPCE0320140101CIV.              CIV.-109-44-133   
BTINT4038V         8012199431697light tech - pulsante + portalamp verde    00010000100001099999910000000176200000001762000001EURPCE0320140101CIV.              CIV.-109-44-133   
BTINT4113          8012199431758light tech - presa 2P+T 10A 250Vac         00010000100001099999910000000059200000000592000001EURPCE0320140101CIV.              CIV.-109-44-133   
BTINT4141          8012199432243light tech - presa std tedesco/italiano    00040000400004099999910000000171400000001714000001EURPCE0320140101CIV.              CIV.-109-44-133   
BTINT4150          8012199817309light tech - presa 2P+T 13A 250V BS        00001000010000199999910000000151800000001518000001EURPCE0320140101CIV.              CIV.-109-44-133   
BTINT4202D         8012199437699light tech - presa TV derivata maschio     00010000100001099999910000000206300000002063000001EURPCE0320140101CIV.              CIV.-109-44-133   
BTINT4330/12       8012199494500light tech - rele' monostabile 1NO/NC 12Vac00001000010000199999910000000274800000002748000001EURPCE0320140101CIV.              CIV.-109-44-133   
BTINT4012C         8012199929811light tech - interrut 2P 16A chiavi uguali 00001000010000199999910000000599700000005997000001EURPCE0320140101CIV.              CIV.-109-44-133   
BTINT4373H         8005543450017LL - portalampada segnalazione hotel tech  00010000100001099999910000000135400000001354000001EURPCE0320140101CIV.              CIV.-109-44-133   
BTINT4127          8012199505077light tech - presa UL 2P 15A               00010000100001099999910000000142300000001423000001EURPCE0320140101CIV.              CIV.-109-44-133   
BTINT4027VMC       8005543490778LL - comando ventilazione 1-0-2            00040000400004099999910000000147200000001472000001EURPCE0320140101CIV.              CIV.-109-44-133   
BTINT4177          8012199530161light tech - presa rasoio modulare 230V    00005000050000599999910000001148900000011489000001EURPCE0320140101CIV.              CIV.-109-44-133   
BTINT4125          8012199505084light tech - presa 2P 16A euroameric d=5   00010000100001099999910000000100500000001005000001EURPCE0320140101CIV.              CIV.-109-44-133   
BTINT4003A         8005543420898LL - deviatore 1P 16A 1m tech              00010000100001099999910000000091200000000912000001EURPCE0320140101CIV.              CIV.-109-44-133   
BTINT4002N         8005543419830LL - interruttore 2P 16A 1m tech           00010000100001099999910000000128800000001288000001EURPCE0320140101CIV.              CIV.-109-44-133   
BTINT4005N         8005543414712LL - pulsante 1P NO 10A 1m tech            00010000100001099999910000000077600000000776000001EURPCE0320140101CIV.              CIV.-109-44-133   
BTINT4003N         8005543414774LL - deviatore 1P 16A 1m tech              00010000100001099999910000000091100000000911000001EURPCE0320140101CIV.              CIV.-109-44-133   
BTINT4001N         8005543414828LL - interruttore 1P 16A 1m tech           00010000100001099999910000000075700000000757000001EURPCE0320140101CIV.              CIV.-109-44-133   
BTINT4051A         8005543421017LL - interruttore ax 1P 16A 1m tech        00010000100001099999910000000087200000000872000001EURPCE0320140101CIV.              CIV.-109-44-133   
BTINT4330/24       8012199494517light tech - rele' monostabile 1NO/NC 24Vac00001000010000199999910000000274800000002748000001EURPCE0320140101CIV.              CIV.-109-44-133   
BTINT4285C2        8005543488614LL - caricatore USB 2 prese 1500mA 5V tech 00001000010000199999910000000299200000002992000001EURPCE0320140101CIV.              CIV.-109-44-133   
BTINT4054          8005543420010LL - invertitore ax 16A 1m tech            00010000100001099999910000000175100000001751000001EURPCE0320140101CIV.              CIV.-109-44-133   
BTINT4055A         8005543421130LL - pulsante ax 1P NO 10A 1m tech         00010000100001099999910000000089300000000893000001EURPCE0320140101CIV.              CIV.-109-44-133   
BTINT4004N         8005543419878LL - invertitore 16A 1m tech               00010000100001099999910000000152100000001521000001EURPCE0320140101CIV.              CIV.-109-44-133   
BTINT4053A         8005543421079LL - deviatore ax 1P 16A 1m tech           00010000100001099999910000000104700000001047000001EURPCE0320140101CIV.              CIV.-109-44-133   
BTINT4305/6        8012199435435light tech - magn diff 1P+N 6A 1,5kA 10mA  00006000060000699999910000001334000000013340000001EURPCE0320140101CIV.              CIV.-109-44-133   
BTINT4305/16       8012199435404light tech - magn diff 1P+N 16A 3kA 10mA   00006000060000699999910000001482500000014825000001EURPCE0320140101CIV.              CIV.-109-44-133   
BTINT4054M2        8005543420034LL - invertitore ax 16A 2m tech            00010000100001099999910000000210000000002100000001EURPCE0320140101CIV.              CIV.-109-44-133   
BTINT4305/10       8012199435374light tech - magn diff 1P+N 10A 3kA 10mA   00006000060000699999910000001334000000013340000001EURPCE0320140101CIV.              CIV.-109-44-133   
BTINT4128          8012199505152light tech - presa 2P+T 15A 125Vac USA     00010000100001099999910000000112800000001128000001EURPCE0320140101CIV.              CIV.-109-44-133   
BTINT4005A         8005543420935LL - pulsante 1P NO 10A 1m tech            00010000100001099999910000000077700000000777000001EURPCE0320140101CIV.              CIV.-109-44-133   
BTINT4053M2A       8005543421093LL - deviatore ax 1P 16A 2m tech           00010000100001099999910000000125600000001256000001EURPCE0320140101CIV.              CIV.-109-44-133   
BTINT4051M2A       8005543421031LL - interruttore ax 1P 16A 2m tech        00010000100001099999910000000104700000001047000001EURPCE0320140101CIV.              CIV.-109-44-133   
BTINT4055M2A       8005543421154LL - pulsante ax 1P NO 10A 2m tech         00010000100001099999910000000106900000001069000001EURPCE0320140101CIV.              CIV.-109-44-133   
BTINT4911/2T       8012199433219light tech - copritasto interr/dev 2 mod   00010000100001099999910000000020400000000204000001EURPCE0320140101CIV.              CIV.-109-45-138   
BTINT4911T         8012199433141light tech - copritasto interr/deviat 1 mod00010000100001099999910000000008600000000086000001EURPCE0320140101CIV.              CIV.-109-45-138   
BTINT4915          8012199433271light tech - copritasto illum pulsan 1mod  00010000100001099999910000000024000000000240000001EURPCE0320140101CIV.              CIV.-109-45-138   
BTINT4915/2        8012199433356light tech - copritasto illum pulsan 2mod  00010000100001099999910000000036300000000363000001EURPCE0320140101CIV.              CIV.-109-45-138   
BTINT4915DN        8005543417560LL - copritasto+campanello 1m tech         00010000100001099999910000000022600000000226000001EURPCE0320140101CIV.              CIV.-109-45-138   
BTINT4915M2BN      8005543417645LL - copritasto+luce scale 2m tech         00010000100001099999910000000027500000000275000001EURPCE0320140101CIV.              CIV.-109-45-138   
BTINT4915TN        8005543417720LL - copritasto personaliz. 1m tech        00010000100001099999910000000017100000000171000001EURPCE0320140101CIV.              CIV.-109-45-138   
BTINT4915KIT1      8005543438619LL - kit lentine illuminabili tech         00001000010000199999910000000283400000002834000001EURPCE0320140101CIV.              CIV.-109-45-138   
BTINT4915SETBL     8005543439357LL - set luce letto disturb tech           00001000010000199999910000000362800000003628000001EURPCE0320140101CIV.              CIV.-109-45-138   
BTINT4916M2F       8005543445143LL - copritasto ax+chiave 2m tech          00010000100001099999910000000032800000000328000001EURPCE0320140101CIV.              CIV.-109-45-138   
BTINT4915DD        8005543439203LL - copritasto+ do not disturb 1m tech    00010000100001099999910000000022600000000226000001EURPCE0320140101CIV.              CIV.-109-45-138   
BTINT4915FN        8005543417584LL - copritasto+chiave 1m tech             00010000100001099999910000000022600000000226000001EURPCE0320140101CIV.              CIV.-109-45-138   
BTINT4915M2TN      8005543417706LL - copritasto personaliz. 2m tech        00010000100001099999910000000022600000000226000001EURPCE0320140101CIV.              CIV.-109-45-138   
BTINT4916M2B       8005543445105LL - copritasto ax+luce scale 2m tech      00010000100001099999910000000032800000000328000001EURPCE0320140101CIV.              CIV.-109-45-138   
BTINT4916M2T       8005543445167LL - copritasto ax personal. 2m tech       00010000100001099999910000000026900000000269000001EURPCE0320140101CIV.              CIV.-109-45-138   
BTINT4916M2A       8005543445082LL - copritasto ax+luce 2m tech            00010000100001099999910000000032800000000328000001EURPCE0320140101CIV.              CIV.-109-45-138   
BTINT4916T         8005543445181LL - copritasto ax personal. 1m tech       00010000100001099999910000000020100000000201000001EURPCE0320140101CIV.              CIV.-109-45-138   
BTINT4915M2FN      8005543417683LL - copritasto+chiave 2m tech             00010000100001099999910000000027500000000275000001EURPCE0320140101CIV.              CIV.-109-45-138   
BTINT4931/2TH      8012199455723light tech - copritasto zama 2P L/tech     00005000050000599999910000000078700000000787000001EURPCE0320140101CIV.              CIV.-109-45-138   
BTINT4915MR        8005543439227LL - copritasto+ make up room 1m tech      00010000100001099999910000000022600000000226000001EURPCE0320140101CIV.              CIV.-109-45-138   
BTINT4915/2T       8012199433387light tech - copritasto pulsante 2 mod     00010000100001099999910000000018600000000186000001EURPCE0320140101CIV.              CIV.-109-45-138   
BTINT4915T         8012199433318light tech - copritasto pulsante 1 mod     00010000100001099999910000000007900000000079000001EURPCE0320140101CIV.              CIV.-109-45-138   
BTINT4931TH        8012199481241light tech - copritasto zama 1P L/tech     00010000100001099999910000000072100000000721000001EURPCE0320140101CIV.              CIV.-109-45-138   
BTINT4953          8012199433448light tech - uscita con foro diam 9mm      00010000100001099999910000000024900000000249000001EURPCE0320140101CIV.              CIV.-109-45-138   
BTINT4916F         8005543445068LL - copritasto ax+chiave 1m tech          00010000100001099999910000000026900000000269000001EURPCE0320140101CIV.              CIV.-109-45-138   
BTINT4915KIT       8005543424933LL - kit lentine illuminabili tech         00001000010000199999910000000283400000002834000001EURPCE0320140101CIV.              CIV.-109-45-138   
BTINT4916B         8005543445044LL - copritasto ax+luce scale 1m tech      00010000100001099999910000000026900000000269000001EURPCE0320140101CIV.              CIV.-109-45-138   
BTINT4916KIT       8005543446058LL - Kit simbologia ax tech                00001000010000199999910000000339600000003396000001EURPCE0320140101CIV.              CIV.-109-45-138   
BTILND4811TE       8005543457634LL - placca profilato 1P tech              00005000050000599999910000000091200000000912000001EURPCE0320140101CIV.              CIV.-109-45-138   
BTINT4915M2DN      8005543417669LL - copritasto+campanello 2m tech         00010000100001099999910000000027500000000275000001EURPCE0320140101CIV.              CIV.-109-45-138   
BTINT4915BN        8005543417546LL - copritasto+luce scale 1m tech         00010000100001099999910000000022600000000226000001EURPCE0320140101CIV.              CIV.-109-45-138   
BTILND4812TE       8005543457696LL - placca profilato 1+1P tech            00005000050000599999910000000112400000001124000001EURPCE0320140101CIV.              CIV.-109-45-138   
BTINT4916M2D       8005543445129LL - copritasto ax+campanello 2m tech      00010000100001099999910000000032800000000328000001EURPCE0320140101CIV.              CIV.-109-45-138   
BTINT4915AN        8005543417522LL - copritasto+luce 1m tech               00010000100001099999910000000022600000000226000001EURPCE0320140101CIV.              CIV.-109-45-138   
BTINT4951          8012199437378light tech - tasto falso polo prefrattura  00020000200002099999910000000022200000000222000001EURPCE0320140101CIV.              CIV.-109-45-138   
BTINT4915M2N       8005543416051LL - copritasto illum. 1 funz. 2m tech     00010000100001099999910000000022600000000226000001EURPCE0320140101CIV.              CIV.-109-45-138   
BTINT4915M3N       8005543416075LL - copritasto illum. 1 funz. 3m tech     00010000100001099999910000000030000000000300000001EURPCE0320140101CIV.              CIV.-109-45-138   
BTINT4915N         8005543416099LL - copritasto illum. 1 funz. 1m tech     00010000100001099999910000000017100000000171000001EURPCE0320140101CIV.              CIV.-109-45-138   
BTINT4916D         8005543445204LL - copritasto ax+campanello 1m tech      00010000100001099999910000000026900000000269000001EURPCE0320140101CIV.              CIV.-109-45-138   
BTINT4950          8012199431918light tech - tasto falso polo              00150001500015099999910000000012800000000128000001EURPCE0320140101CIV.              CIV.-109-45-138   
BTINT4915M2AN      8005543417621LL - copritasto+luce 2m tech               00010000100001099999910000000027500000000275000001EURPCE0320140101CIV.              CIV.-109-45-138   
BTINT4931/3TH      8012199455730light tech - copritasto zama 3P L/tech     00005000050000599999910000000093100000000931000001EURPCE0320140101CIV.              CIV.-109-45-138   
BTINT4916A         8005543445020LL - copritasto ax+luce 1m tech            00010000100001099999910000000026900000000269000001EURPCE0320140101CIV.              CIV.-109-45-138   
BTINT4551          8005543503584LL mostrina tasca badge 3m tech            00001000010000199999910000000221300000002213000001EURPCE0320140101CIV.              CIV.-109-45-138   
BTINT4911/2        8012199433189light tech - copritasto illumin interr 2mod00010000100001099999910000000036300000000363000001EURPCE0320140101CIV.              CIV.-109-45-138   
BTINT4911          8012199433103light tech - copritasto illumin interr 1mod00010000100001099999910000000022900000000229000001EURPCE0320140101CIV.              CIV.-109-45-138   
BTI4930/1          8012199170770living - alimentatore 220/9Vdc SELV 1A     00001000010000199999910000002163400000021634000001EURPCE0320140101CIV.              CIV.-109-47-144   
BTIN4355/12        8012199083094light - suoneria elettronica 12Vac/dc      00006000060000699999910000000708100000007081000001EURPCE0320140101CIV.              CIV.-109-47-144   
BTIN4406           8012199083186light - dimmer resistivo 500W              00001000010000199999910000000257900000002579000001EURPCE0320140101CIV.              CIV.-109-47-144   
BTIN4431           8012199083339light - interruttore infrared passivi 200W 00005000050000599999910000001154700000011547000001EURPCE0320140101CIV.              CIV.-109-47-144   
BTIN4520           8012199083728light - ripetitore segnale per rivelatori  00001000010000199999910000000792000000007920000001EURPCE0320140101CIV.              CIV.-109-47-144   
BTIL4355/12        8012199082356living int - suoneria elettronica 12Vac/dc 00006000060000699999910000000708100000007081000001EURPCE0320140101CIV.              CIV.-109-47-144   
BTIL4374/230       8012199648651living int - lampada segnalazione 2p 230Vac00010000100001099999910000000361300000003613000001EURPCE0320140101CIV.              CIV.-109-47-144   
BTIL4380/B         8012199647227living int - batteria per L/N/NT4380       00006000060000699999910000000090900000000909000001EURPCE0320140101CIV.              CIV.-109-47-144   
BTIL4382/230       8012199648620living int - lampada segnapasso 2p 230Vac  00010000100001099999910000000320900000003209000001EURPCE0320140101CIV.              CIV.-109-47-144   
BTIL4385/12B       8012199501383living int - specula 12V bianca con lampada00001000010000199999910000000134400000001344000001EURPCE0320140101CIV.              CIV.-109-47-144   
BTIL4385/12R       8012199501369living int - specula 12V rossa con lampada 00001000010000199999910000000134400000001344000001EURPCE0320140101CIV.              CIV.-109-47-144   
BTIL4385/230B      8012199501475living int - specula 230V bianca/lampada   00001000010000199999910000000134400000001344000001EURPCE0320140101CIV.              CIV.-109-47-144   
BTIL4385/230R      8012199501451living int - specula 230V rossa con lampada00001000010000199999910000000134400000001344000001EURPCE0320140101CIV.              CIV.-109-47-144   
BTIL4385/230V      8012199501468living int - specula 230V verde con lampada00001000010000199999910000000134400000001344000001EURPCE0320140101CIV.              CIV.-109-47-144   
BTIL4385/24R       8012199501390living int - specula 24V rossa con lampada 00001000010000199999910000000134400000001344000001EURPCE0320140101CIV.              CIV.-109-47-144   
BTIL4385/24V       8012199501406living int - specula 24V verde con lampada 00001000010000199999910000000134400000001344000001EURPCE0320140101CIV.              CIV.-109-47-144   
BTIL4386/1         8012199448404living int - lampada emergenza 1h 6 moduli 00001000010000199999910000001357800000013578000001EURPCE0320140101CIV.              CIV.-109-47-144   
BTIL4386/3         8012199448442living int - lampada emergenza 3h 6 moduli 00001000010000199999910000001471600000014716000001EURPCE0320140101CIV.              CIV.-109-47-144   
BTIL4406           8012199082448living int - dimmer resistivo 500W         00001000010000199999910000000257900000002579000001EURPCE0320140101CIV.              CIV.-109-47-144   
BTIL4431           8012199082592living int - interrut infrared passivi 200W00005000050000599999910000001154700000011547000001EURPCE0320140101CIV.              CIV.-109-47-144   
BTIL4442           8012199082691living int - termostato condizionam 230V   00001000010000199999910000001753000000017530000001EURPCE0320140101CIV.              CIV.-109-47-144   
BTIL4511/12        8012199082967living int - rivelatore gas metano 12Vac/dc00001000010000199999910000002081500000020815000001EURPCE0320140101CIV.              CIV.-109-47-144   
BTIL4520           8012199083025living int - ripetitore segnale rivelatori 00001000010000199999910000000792000000007920000001EURPCE0320140101CIV.              CIV.-109-47-144   
BTIL4525/12NO      8012199202563living int - elettrovalvola gas NO 12Vac   00001000010000199999910000001521500000015215000001EURPCE0320140101CIV.              CIV.-109-47-144   
BTIL4541           8012199107899living int - trasformatore 230/12V 4VA     00001000010000199999910000000432600000004326000001EURPCE0320140101CIV.              CIV.-109-47-144   
BTIL4003/0         8012199015866living int - deviatore 16A senza tasto     00060000600006099999910000000063500000000635000001EURPCE0320140101CIV.              CIV.-109-47-144   
BTIL4743/12        8012199106250living int - lampadina E10 12V 0,5W        00010000100001099999910000000032900000000329000001EURPCE0320140101CIV.              CIV.-109-47-144   
BTIL4743/230       8012199106274living int - lampadina E10 230V 3W         00010000100001099999910000000032900000000329000001EURPCE0320140101CIV.              CIV.-109-47-144   
BTIL4743/24        8012199106298living int - lampadina E10 24V 1W          00010000100001099999910000000032900000000329000001EURPCE0320140101CIV.              CIV.-109-47-144   
BTIL4744/230       8012199106311living int - lampadina E10 scarica 230V 05W00010000100001099999910000000032900000000329000001EURPCE0320140101CIV.              CIV.-109-47-144   
BTIL4744/230V      8012199106335living int - lampada scarica 230V 05W verde00010000100001099999910000000032900000000329000001EURPCE0320140101CIV.              CIV.-109-47-144   
BTIL4745/12        8012199542348living int - lampada E10 12V               000100001000010999999D0000000032900000000329000001EURPCE0320140101CIV.              CIV.-109-47-144   
BTIL4745/230       8012199542379living int - lampada E10 230V              000100001000010999999D0000000032900000000329000001EURPCE0320140101CIV.              CIV.-109-47-144   
BTIL4745/24        8012199542355living int - lampada E10 24V               000100001000010999999D0000000032900000000329000001EURPCE0320140101CIV.              CIV.-109-47-144   
BTIL4750           8012199106359living int - copriviti per supporti        00100001000010099999910000000000900000000009000001EURPCE0320140101CIV.              CIV.-109-47-144   
BTIL4784/3         8012199450476living int - pila 3h per emergenza 4 moduli00001000010000199999910000000633900000006339000001EURPCE0320140101CIV.              CIV.-109-47-144   
BTIL4786/1         8012199450483living int - pila 1h per emergenza 6 moduli00001000010000199999910000000704300000007043000001EURPCE0320140101CIV.              CIV.-109-47-144   
BTIL4786/3         8012199450490living int - pila 3h per emergenza 6 moduli00001000010000199999910000000786400000007864000001EURPCE0320140101CIV.              CIV.-109-47-144   
BTIL4005/0         8012199015941living int - pulsante NO 10A senza tasto   00060000600006099999910000000051000000000510000001EURPCE0320140101CIV.              CIV.-109-47-144   
BTIL4374V12V24     8005543429211LL - lampada segnalazione 12-24 V a.c.     00010000100001099999910000000361300000003613000001EURPCE0320140101CIV.              CIV.-109-47-144   
BTINT4406          8012199433967light tech - dimmer resistivo 500W         00001000010000199999910000000283800000002838000001EURPCE0320140101CIV.              CIV.-109-47-144   
BTINT4451          8012199813769ligh techt - cronotermostato a batterie    00001000010000199999910000002422100000024221000001EURPCE0320140101CIV.              CIV.-109-47-144   
BTINT4520          8012199431826light tech - ripetitore segnale rivelat    00001000010000199999910000000871200000008712000001EURPCE0320140101CIV.              CIV.-109-47-144   
BTINT4541          8012199443843light tech - trasformatore 230/12V 4VA     00001000010000199999910000000475600000004756000001EURPCE0320140101CIV.              CIV.-109-47-144   
BTIL4784/1         8012199450469living int - pila 1h per emergenza 4 moduli00001000010000199999910000000469100000004691000001EURPCE0320140101CIV.              CIV.-109-47-144   
BTIL4385/12V       8012199501376living int - specula 12V verde con lampada 00001000010000199999910000000134400000001344000001EURPCE0320140101CIV.              CIV.-109-47-144   
BTI500/02          8012199014371living - vite lunga 30mm                   00100001000010099999910000000002700000000027000001EURPCE0320140101CIV.              CIV.-109-47-144   
BTIF91/12E         8012199145006btdin - trasfor apparecchi elettron 12V 6VA00001000010000199999910000000326900000003269000001EURPCE0320140101CIV.              CIV.-109-47-144   
BTIL4385/24B       8012199501413living int - specula 24V bianca con lampada00001000010000199999910000000134400000001344000001EURPCE0320140101CIV.              CIV.-109-47-144   
BTINT4441          8012199434025light tech - termostato condizionam 230V   00001000010000199999910000001851900000018519000001EURPCE0320140101CIV.              CIV.-109-47-144   
BTINT4442          8012199438504light tech - termostato condizionam 230V   00001000010000199999910000001928300000019283000001EURPCE0320140101CIV.              CIV.-109-47-144   
BTIL4384/3         8012199448381living int - lampada emergenza 3h 4 moduli 00001000010000199999910000001354000000013540000001EURPCE0320140101CIV.              CIV.-109-47-144   
BTIL4402N          8005543418642LL - dimmer resistivo 500W + deviatore antr00005000050000599999910000000413500000004135000001EURPCE0320140101CIV.              CIV.-109-47-144   
BTILN4784          8005543447970LL - guaina supporti 4 posti               00050000500005099999910000000004700000000047000001EURPCE0320140101CIV.              CIV.-109-47-144   
BTILN4787          8005543448014LL - guaina supporti 7 posti               00050000500005099999910000000006000000000060000001EURPCE0320140101CIV.              CIV.-109-47-144   
BTIL4546           8012199376639living int - scheda per tasca portabadge   00001000010000199999910000000192000000001920000001EURPCE0320140101CIV.              CIV.-109-47-144   
BTILN4782          8005543447932LL - guaina supporti 2 posti               00100001000010099999910000000003400000000034000001EURPCE0320140101CIV.              CIV.-109-47-144   
BTIN4541           8012199108018light - trasformatore 230/12V 4VA          00001000010000199999910000000432600000004326000001EURPCE0320140101CIV.              CIV.-109-47-144   
BTILN4004          8005543419526LL - invertitore 1P a vite no copritasto   00060000600006099999910000000124400000001244000001EURPCE0320140101CIV.              CIV.-109-47-144   
BTIN4402N          8005543418666LL - dimmer resistivo 500W +deviatore bian 00005000050000599999910000000413500000004135000001EURPCE0320140101CIV.              CIV.-109-47-144   
BTINT4402N         8005543418703LL - dimmer resistivo 500W + dev. tech     00005000050000599999910000000450600000004506000001EURPCE0320140101CIV.              CIV.-109-47-144   
BTILN4786          8005543447994LL - guaina supporti 3+3 posti             00050000500005099999910000000006700000000067000001EURPCE0320140101CIV.              CIV.-109-47-144   
BTILN4783          8005543447956LL - guaina supporti 3 posti               00100001000010099999910000000003800000000038000001EURPCE0320140101CIV.              CIV.-109-47-144   
BTIN4442           8012199083421light - termostato condizionamento 230Vac  00001000010000199999910000001753000000017530000001EURPCE0320140101CIV.              CIV.-109-47-144   
BTIN4511/12        8012199083667light - rivelatore di gas metano 12Vac/dc  00001000010000199999910000002081500000020815000001EURPCE0320140101CIV.              CIV.-109-47-144   
BTINT4410N         8005543437575LL - dimmer con uscita 0-10V tech          00001000010000199999910000000812300000008123000001EURPCE0320140101CIV.              CIV.-109-47-144   
BTIL4382V12V24     8005543429198LL - lampada segnapasso 12-24 V a.c.       00010000100001099999910000000320900000003209000001EURPCE0320140101CIV.              CIV.-109-47-144   
BTILN4743V230      8005543423820LL - lampada led assiali 230V ambra        00010000100001099999910000000046200000000462000001EURPCE0320140101CIV.              CIV.-109-47-144   
BTINT4512/12       8012199433073light tech - rivelatore di gas GPL 12V     00001000010000199999910000002267500000022675000001EURPCE0320140101CIV.              CIV.-109-47-144   
BTIN4547           8005543442852LL mostrina tasca badge bianco             00001000010000199999910000000199400000001994000001EURPCE0320140101CIV.              CIV.-109-47-144   
BTIL4411N          8005543486481LL - dimmer universale antracite           00006000060000699999910000000738200000007382000001EURPCE0320140101CIV.              CIV.-109-47-144   
BTILN4742V12V      8005543490679LL - lampada led basculanti 12V/24V verde  00100001000010099999910000000042900000000429000001EURPCE0320140101CIV.              CIV.-109-47-144   
BTIL4410N          8005543437490LL - dimmer con uscita 0-10V antracite     00001000010000199999910000000738700000007387000001EURPCE0320140101CIV.              CIV.-109-47-144   
BTINT4408N         8005543437612LL - dimmer resistivo/induttivo 600W tech  00001000010000199999910000000674400000006744000001EURPCE0320140101CIV.              CIV.-109-47-144   
BTILN4743V12       8005543423783LL - lampada led assiali 12V/24V ambra     00010000100001099999910000000046200000000462000001EURPCE0320140101CIV.              CIV.-109-47-144   
BTIL4547           8005543442845LL Mostrina tasca badge antracite          00001000010000199999910000000199400000001994000001EURPCE0320140101CIV.              CIV.-109-47-144   
BTIL4001/0         8012199015781living int - interruttore 16A senza tasto  00060000600006099999910000000050400000000504000001EURPCE0320140101CIV.              CIV.-109-47-144   
BTINT4547          8005543442869LL Mostrina tasca badge tech               00001000010000199999910000000221400000002214000001EURPCE0320140101CIV.              CIV.-109-47-144   
BTILN4742V230V     8005543490693LL - lampada led basculanti 230V verde     00100001000010099999910000000042900000000429000001EURPCE0320140101CIV.              CIV.-109-47-144   
BTILN4549          8005543441725LL tasca porta badge                       00001000010000199999910000000530700000005307000001EURPCE0320140101CIV.              CIV.-109-47-144   
BTIN4411N          8005543486498LL - dimmer universale bianco              00006000060000699999910000000738200000007382000001EURPCE0320140101CIV.              CIV.-109-47-144   
BTILN4742V230      8005543441848LL - lampada led basculanti 230V ambra     00100001000010099999910000000042900000000429000001EURPCE0320140101CIV.              CIV.-109-47-144   
BTILN4742V230T     8005543441862LL - lampada led spie segnalazione 230V    00100001000010099999910000000042900000000429000001EURPCE0320140101CIV.              CIV.-109-47-144   
BTIL4408N          8005543437452LL - dimmer resistivo/induttivo 600W antr  00001000010000199999910000000612900000006129000001EURPCE0320140101CIV.              CIV.-109-47-144   
BTIN4410N          8005543437650LL - dimmer con uscita 0-10V bianco        00001000010000199999910000000738700000007387000001EURPCE0320140101CIV.              CIV.-109-47-144   
BTINT4409N         8005543437636LL - dimmer multi carico 400W tech         00001000010000199999910000000812300000008123000001EURPCE0320140101CIV.              CIV.-109-47-144   
BTIN4408N          8005543437537LL - dimmer resistivo/induttivo 600W bianco00001000010000199999910000000612900000006129000001EURPCE0320140101CIV.              CIV.-109-47-144   
BTILN4742V12T      8005543441824LL - lampada led spie segnalazione 12V/24V 00100001000010099999910000000042900000000429000001EURPCE0320140101CIV.              CIV.-109-47-144   
BTILN4742V12       8005543441756LL - lampada led basculanti 12/24V ambra   00100001000010099999910000000042900000000429000001EURPCE0320140101CIV.              CIV.-109-47-144   
BTILN4743V12V      8005543496091LL - lampada led assiali 12V/24V verde     00010000100001099999910000000046200000000462000001EURPCE0320140101CIV.              CIV.-109-47-144   
BTILN4040          8005543419557LL - pulsante NO+ portanome                00010000100001099999910000000184900000001849000001EURPCE0320140101CIV.              CIV.-109-47-144   
BTILLVAL13         8005543498163Valigia placche Livinglight 13             00001000010000199999910000005867400000058674000001EURPCE0320140101CIV.              CIV.-109-47-144   
BTINT4411N         8005543486504LL - dimmer universale tech                00006000060000699999910000000738200000007382000001EURPCE0320140101CIV.              CIV.-109-47-144   
BTILN4743V230V     8005543496138LL - lampada led assiali 230V verde        00010000100001099999910000000046200000000462000001EURPCE0320140101CIV.              CIV.-109-47-144   
BTIPM1DC           8005543446478Convertitore Modbus RS485-TCP IP Vdc       00001000010000199999910000002803800000028038000001EURPCE0320140101IND4              IND.-112-5-67     
BTIPM1SW1          8005543448922SW Misura illimitato                       00001000010000199999910000007885400000078854000001EURPCE0320140101IND4              IND.-112-5-67     
BTIPM1WS1          8005543446492Web Server Misura illimitato               00001000010000199999910000022780400000227804000001EURPCE0320140101IND4              IND.-112-5-67     
BTIPM1SW           8005543448915SW Misura 32                               00001000010000199999910000001226600000012266000001EURPCE0320140101IND4              IND.-112-5-67     
BTIPM1AC           8005543482889Convertitore Modbus RS485-TCP IP Vac       00001000010000199999910000002803800000028038000001EURPCE0320140101IND4              IND.-112-5-67     
BTIPM1WS           8005543446485Web Server Misura 32                       00001000010000199999910000012266300000122663000001EURPCE0320140101IND4              IND.-112-5-67     
CAB558203          3599075582032cab - ed 1100 gc barra di giunzione        00001000010000199999910000021573600000215736000100EURPCE0320140101CM2               LG2-104-11-20     
CAB586647          3599075866477cab - r25dc supporto a pavimento h25mm     00001000010000199999910000019887100000198871000100EURPCE0320140101CM2               LG2-104-11-20     
CAB000093          3599070000937cab - cf54/200gc passerella a filo 3m      00003000030000399999910000021081800000210818000100EURLM 0320140101CM2               LG2-104-11-20     
CAB558037          3599075580373cab - ce30es dc controclip con dado        00050000500005099999910000002915700000029157000100EURPCE0320140101CM2               LG2-104-11-20     
CAB558043          3599075580434cab - ce30 dc controclip per giunzione     00050000500005099999910000001052800000010528000100EURPCE0320140101CM2               LG2-104-11-20     
CAB558053          3599075580533cab - ce40dc piastrina                     00025000250002599999910000001767600000017676000100EURPCE0320140101CM2               LG2-104-11-20     
CAB558067          3599075580670cab - kitfixvs dc  kit fissaggio turbo     00050000500005099999910000001530300000015303000100EURPCE0320140101CM2               LG2-104-11-20     
CAB558077          3599075580779cab - kitassvs dc kit giunzione turbo      00050000500005099999910000003062500000030625000100EURPCE0320140101CM2               LG2-104-11-20     
CAB558097          3599075580977cab - kitfixtr dc kit fissaggio            00050000500005099999910000001355500000013555000100EURPCE0320140101CM2               LG2-104-11-20     
CAB558213          3599075582131cab - ed 250/90 gc barra giunzione angolare00050000500005099999910000005923300000059233000100EURPCE0320140101CM2               LG2-104-11-20     
CAB558273          3599075582735cab - eds gc giunto rapido                 00050000500005099999910000005644000000056440000100EURPCE0320140101CM2               LG2-104-11-20     
CAB558283          3599075582834cab - autoclic gc giunto premontabile      00001000010000199999910000005489000000054890000100EURPCE0320140101CM2               LG2-104-11-20     
CAB558327          3599075583275cab - faslock xl dc giunto x curva         00025000250002599999910000003522500000035225000100EURPCE0320140101CM2               LG2-104-11-20     
CAB558347          3599075583473cab - faslock small dc giunto x curva      00025000250002599999910000002673900000026739000100EURPCE0320140101CM2               LG2-104-11-20     
CAB558403          3599075584036cab - eac gc giunto snodabile              00020000200002099999910000014888400000148884000100EURPCE0320140101CM2               LG2-104-11-20     
CAB558417          3599075584173cab - cefas dc giunto rapido fondo         00050000500005099999910000003545700000035457000100EURPCE0320140101CM2               LG2-104-11-20     
CAB559147          3599075591478cab - clip targhetta identificaz arancione 00050000500005099999910000001074500000010745000100EURPCE0320140101CM2               LG2-104-11-20     
CAB559177          3599075591775cab - clip targhetta identificazione blu   00050000500005099999910000001074500000010745000100EURPCE0320140101CM2               LG2-104-11-20     
CAB559197          3599075591973cab - clip targhetta identificazione grigia00050000500005099999910000001074500000010745000100EURPCE0320140101CM2               LG2-104-11-20     
CAB629103          3599076291032cab - cvn100gc coperchio 100mm l=1m        00003000030000399999910000011429300000114293000100EURLM 0320140101CM2               LG2-104-11-20     
CAB629203          3599076292039cab - cvn200gc coperchio 200mm l=1m        00003000030000399999910000018053600000180536000100EURLM 0320140101CM2               LG2-104-11-20     
CAB646013          3599076460131cab - cp50gc coperchio speciale 50mm l=2m  00002000020000299999910000008544600000085446000100EURLM 0320140101CM2               LG2-104-11-20     
CAB646023          3599076460230cab - cp100gc coperchio speciale 100mm l=2m00002000020000299999910000009769500000097695000100EURLM 0320140101CM2               LG2-104-11-20     
CAB646043          3599076460438cab - cp200gc coperchio speciale 200mm l=2m00002000020000299999910000016642300000166423000100EURLM 0320140101CM2               LG2-104-11-20     
CAB646053          3599076460537cab - cp300gc coperchio speciale 300mm l=2m00002000020000299999910000022289800000222898000100EURLM 0320140101CM2               LG2-104-11-20     
CAB646063          3599076460636cab - cp400gc coperchio speciale 400mm l=2m00002000020000299999910000029097100000290971000100EURLM 0320140101CM2               LG2-104-11-20     
CAB646083          3599076460834cab - cp600gc coperchio speciale 600mm l=2m00002000020000299999910000050631000000506310000100EURLM 0320140101CM2               LG2-104-11-20     
CAB755003          3599077550039cab - txf35gc passerella bordo macchina 3m 00003000030000399999910000020458200000204582000100EURLM 0320140101CM2               LG2-104-11-20     
CAB755103          3599077551036cab - cp35gc coperchio telexrail           00003000030000399999910000008117400000081174000100EURLM 0320140101CM2               LG2-104-11-20     
CAB840233          3599078402337cab - ezt90 gc barra giunz.angolare 225x22500001000010000199999910000011877400000118774000100EURPCE0320140101CM2               LG2-104-11-20     
CAB000013          3599070000135cab - cf30/50gc passerella a filo 3m       00003000030000399999910000009438500000094385000100EURLM 0620140101CM2               LG2-104-11-20     
CAB000033          3599070000333cab - cf30/150gc passerella a filo 3m      00003000030000399999910000014644500000146445000100EURLM 0620140101CM2               LG2-104-11-20     
CAB000043          3599070000432cab - cf30/200gc passerella a filo 3m      00003000030000399999910000017201300000172013000100EURLM 0620140101CM2               LG2-104-11-20     
CAB000073          3599070000739cab - cf54/100gc passerella a filo 3m      00003000030000399999910000014778600000147786000100EURLM 0320140101CM2               LG2-104-11-20     
CAB000083          3599070000838cab - cf54/150gc passerella a filo 3m      00003000030000399999910000017739800000177398000100EURLM 0320140101CM2               LG2-104-11-20     
CAB000103          3599070001033cab - cf54/300gc passerella a filo 3m      00003000030000399999910000031153100000311531000100EURLM 0320140101CM2               LG2-104-11-20     
CAB000203          3599070002030cab - cf54/400gc passerella a filo 3m      00003000030000399999910000043616400000436164000100EURLM 0320140101CM2               LG2-104-11-20     
CAB000303          3599070003037cab - cf54/500gc passerella a filo 3m      00003000030000399999910000050742800000507428000100EURLM 0320140101CM2               LG2-104-11-20     
CAB000403          3599070004034cab - cf54/600gc passerella a filo 3m      00003000030000399999910000063415600000634156000100EURLM 0320140101CM2               LG2-104-11-20     
CAB000803          3599070008032cab - cf30/400gc passerella a filo 3m      00003000030000399999910000032981500000329815000100EURLM 0620140101CM2               LG2-104-11-20     
CAB000813          3599070008131cab - cf30/500gc passerella a filo 3m      00003000030000399999910000037370600000373706000100EURLM 0620140101CM2               LG2-104-11-20     
CAB000893          3599070008933cab - cf105/100gc passerella a filo 3 m    00003000030000399999910000022787500000227875000100EURLM 0620140101CM2               LG2-104-11-20     
CAB000903          3599070009039cab - cf105/150gc passerella a filo 3m     00003000030000399999910000025719700000257197000100EURLM 0620140101CM2               LG2-104-11-20     
CAB000913          3599070009138cab - cf105/200gc passerella a filo 3m     00003000030000399999910000031821900000318219000100EURLM 0320140101CM2               LG2-104-11-20     
CAB000923          3599070009237cab - cf105/300gc passerella a filo 3m     00003000030000399999910000044160300000441603000100EURLM 0320140101CM2               LG2-104-11-20     
CAB000933          3599070009336cab - cf105/400gc passerella a filo 3m     00003000030000399999910000052854100000528541000100EURLM 0320140101CM2               LG2-104-11-20     
CAB000943          3599070009435cab - cf105/500gc passerella a filo 3m     00003000030000399999910000062280900000622809000100EURLM 0320140101CM2               LG2-104-11-20     
CAB000953          3599070009534cab - cf150/200gc passerella a filo 3m     00003000030000399999910000053864900000538649000100EURLM 0620140101CM2               LG2-104-11-20     
CAB000963          3599070009633cab - cf150/300gc passerella a filo 3m     00003000030000399999910000062465800000624658000100EURLM 0620140101CM2               LG2-104-11-20     
CAB000973          3599070009732cab - cf150/400gc passerella a filo 3m     00003000030000399999910000072143200000721432000100EURLM 0620140101CM2               LG2-104-11-20     
CAB001023          3599070010233cab - cf150/500gc passerella a filo 3m     00003000030000399999910000049906000000499060000100EURLM 0320140101CM2               LG2-104-11-20     
CAB001033          3599070010332cab - cf105/600gc passerella a filo 3m     00003000030000399999910000087513400000875134000100EURLM 0620140101CM2               LG2-104-11-20     
CAB003223          3599070032235cab - cfg 50/100gc passerella a filo 3m    00003000030000399999910000027738900000277389000100EURLM 0620140101CM2               LG2-104-11-20     
CAB003233          3599070032334cab - cfg 50/150gc passerella a filo 3m    00003000030000399999910000032047800000320478000100EURLM 0320140101CM2               LG2-104-11-20     
CAB003243          3599070032433cab - cfg50/200gc passerella a filo 3m     00003000030000399999910000034301300000343013000100EURLM 0620140101CM2               LG2-104-11-20     
CAB585167          3599075851671cab - dev100 dacromet uscita cavi          00001000010000199999910000007657000000076570000100EURPCE0320140101CM2               LG2-104-11-20     
CAB585417          3599075854177cab - sbdngc supporto scatola derivazione  00001000010000199999910000014814300000148143000100EURPCE0320140101CM2               LG2-104-11-20     
CAB558223          3599075582230cab - ed 275 gc barra di giunzione         00050000500005099999910000005096300000050963000100EURPCE0320140101CM2               LG2-104-11-20     
CAB586657          3599075866576cab - r35dc supporto a pavimento h35mm     00001000010000199999910000020780500000207805000100EURPCE0320140101CM2               LG2-104-11-20     
CAB558247          3599075582476cab - edrn dc giunto rapido                00050000500005099999910000006564100000065641000100EURPCE0320140101CM2               LG2-104-11-20     
CAB559157          3599075591577cab - clip targhetta identificazione gialla00050000500005099999910000001074500000010745000100EURPCE0320140101CM2               LG2-104-11-20     
CAB629053          3599076290530cab - cvn50gc coperchio 50mm l=1m          00003000030000399999910000009476800000094768000100EURLM 0320140101CM2               LG2-104-11-20     
CAB629153          3599076291537cab - cvn150gc coperchio 150mm l=1m        00003000030000399999910000014640000000146400000100EURLM 0320140101CM2               LG2-104-11-20     
CAB646033          3599076460339cab - cp150gc coperchio speciale 150mm l=2m00002000020000299999910000012933700000129337000100EURLM 0320140101CM2               LG2-104-11-20     
CAB646073          3599076460735cab - cp500gc coperchio speciale 500mm l=2m00002000020000299999910000038646600000386466000100EURLM 0320140101CM2               LG2-104-11-20     
CAB558013          3599075580137cab - ce25 dc  clip per giunzione          00050000500005099999910000000748200000007482000100EURPCE0320140101CM2               LG2-104-11-20     
CAB558027          3599075580274cab - ce25vs dc clip e vite giunzione      00050000500005099999910000002148700000021487000100EURPCE0320140101CM2               LG2-104-11-20     
CAB558087          3599075580878cab - kitasstr dc  kit giunzione           00050000500005099999910000002289600000022896000100EURPCE0320140101CM2               LG2-104-11-20     
CAB000023          3599070000234cab - cf30/100gc passerella a filo 3m      00003000030000399999910000012358000000123580000100EURLM 0620140101CM2               LG2-104-11-20     
CAB000053          3599070000531cab - cf30/300gc passerella a filo 3m      00003000030000399999910000025256100000252561000100EURLM 0620140101CM2               LG2-104-11-20     
CAB000063          3599070000630cab - cf54/50gc passerella a filo 3m       00003000030000399999910000012235800000122358000100EURLM 0320140101CM2               LG2-104-11-20     
CAB559507          3599075595070cab - coupfilgm cesoia lame asimmetriche   00001000010000199999910000205216900002052169000100EURPCE0320140101CM2               LG2-104-11-20     
CAB559547          3599075595476cab - kitcoup cesoia elettrica             00001000010000199999910002275651900022756519000100EURPCE0320140101CM2               LG2-104-11-20     
CAB013030          3599070130306cab - rcsn3000 gs profilato l=3000mm       00001000010000199999910000053153000000531530000100EURPCE0320140101CM2               LG2-104-11-21     
CAB595340          3599075953405cab - su4gs elemento di assemblaggio       00001000010000199999910000020631700000206317000100EURPCE0320140101CM2               LG2-104-11-21     
CAB585150          3599075851503cab - mfm150gs multifix metallica l=150mm  00001000010000199999910000009124700000091247000100EURPCE0320140101CM2               LG2-104-11-21     
CAB586043          3599075860437cab - uc50 gc sostegno per sospensione     00001000010000199999910000006168100000061681000100EURPCE0320140101CM2               LG2-104-11-21     
CAB585153          3599075851534cab - mfm150gc multifix metallica l=150mm  00001000010000199999910000013357400000133574000100EURPCE0320140101CM2               LG2-104-11-21     
CAB586190          3599075861908cab - cat40gs mensola speciale             00001000010000199999910000001901500000019015000100EURPCE0320140101CM2               LG2-104-11-21     
CAB586160          3599075861601cab - uc35 gs sostegno sospensione         00001000010000199999910000005668400000056684000100EURPCE0320140101CM2               LG2-104-11-21     
CAB586237          3599075862370cab - cm50wldc piastra fissaggio wieland   00001000010000199999910000011219500000112195000100EURPCE0320140101CM2               LG2-104-11-21     
CAB586257          3599075862578cab - cm 50xxldc piastra fissaggio scatole 00001000010000199999910000015775700000157757000100EURPCE0320140101CM2               LG2-104-11-21     
CAB586640          3599075866408cab - r25gs supporto a pavimento h25mm     00001000010000199999910000007742100000077421000100EURPCE0320140101CM2               LG2-104-11-21     
CAB595233          3599075952330cab - eq135gc elemento di assemblaggio     00001000010000199999910000009199200000091992000100EURPCE0320140101CM2               LG2-104-11-21     
CAB586650          3599075866507cab - r35gs supporto a pavimento h35mm     00001000010000199999910000007891100000078911000100EURPCE0320140101CM2               LG2-104-11-21     
CAB595243          3599075952439cab - eq2tgc elemento di asseblaggio       00001000010000199999910000005041000000050410000100EURPCE0320140101CM2               LG2-104-11-21     
CAB595263          3599075952637cab - eq4tgc elemento di assemblaggio      00001000010000199999910000008954400000089544000100EURPCE0320140101CM2               LG2-104-11-21     
CAB595323          3599075953238cab - zed41/41gc elemento di assemblaggio  00001000010000199999910000006721200000067212000100EURPCE0320140101CM2               LG2-104-11-21     
CAB595333          3599075953337cab - om41/41sgc elemento assemblaggio     00001000010000199999910000011666500000116665000100EURPCE0320140101CM2               LG2-104-11-21     
CAB000071          3599070000715cab - cf54/100ez passerella a filo 3m      00018000180001899999910000008856600000088566000100EURLM 0320140101CM2               LG2-104-11-21     
CAB629100          3599076291001cab - cvn100gs coperchio 100mm l=1m        00003000030000399999910000007146400000071464000100EURLM 0320140101CM2               LG2-104-11-21     
