LISTINO METEL       GEW003850401671703012017030120170301MARZO 2017                                                           021                                                                                                         
GEWDX15016         8018678004871FK 15/16 NERO-TUBO PIEGHEVOLE MEDIO        05600056000560099999930000000365000000003650000100EURLM 03201703015PS               57F               2112                                                    
GEWDX15020         8018678004918FK 15/20 NERO-TUBO PIEGHEVOLE MEDIO        04800048000480099999930000000503000000005030000100EURLM 03201703015PS               57F               2112                                                    
GEWDX15020C        8011564827561FKCO/20 NERO -TUBO.COESTRUSO.PIEGH.MEDIO   04800048000480099999950000000603000000006030000100EURLM 03201703015PS               57F               2112                                                    
GEWDX15025         8018678004963FK 15/25 NERO-TUBO PIEGHEVOLE MEDIO        02400024000240099999930000000715000000007150000100EURLM 03201703015PS               57F               2112                                                    
GEWDX15025C        8011564827592FKCO/25 NERO -TUBO.COESTRUSO.PIEGH.MEDIO   02400024000240099999950000000857000000008570000100EURLM 03201703015PS               57F               2112                                                    
GEWDX15032         8018678005038FK 15/32 NERO-TUBO PIEGHEVOLE MEDIO        01300013000130099999930000001120000000011200000100EURLM 03201703015PS               57F               2112                                                    
GEWDX15032C        8011564827684FKCO/32 NERO -TUBO.COESTRUSO.PIEGH.MEDIO   01300013000130099999950000001350000000013500000100EURLM 03201703015PS               57F               2112                                                    
GEWDX15040         8018678005106FK 15/40 NERO-TUBO PIEGHEVOLE MEDIO        00500005000050099999930000001580000000015800000100EURLM 03201703015PS               57F               2112                                                    
GEWDX15040C        8011564827844FKCO/40 NERO -TUBO.COESTRUSO.PIEGH.MEDIO   00500005000050099999950000001890000000018900000100EURLM 03201703015PS               57F               2112                                                    
GEWDX15050         8018678005175FK 15/50 NERO-TUBO PIEGHEVOLE MEDIO        00400004000040099999930000002240000000022400000100EURLM 03201703015PS               57F               2112                                                    
GEWDX15063         8018678005274FK 15/63 NERO-TUBO PIEGHEVOLE MEDIO        00400004000040099999930000003160000000031600000100EURLM 03201703015PS               57F               2112                                                    
GEWDX15116         8018678005304FK15/16F NERO-TUBO PIEG.MEDIO-CON SONDA    05600056000560099999930000000405000000004050000100EURLM 03201703015PS               57F               2112                                                    
GEWDX15120         8018678005342FK15/20F NERO-TUBO PIEG.MEDIO-CON SONDA    04800048000480099999930000000540000000005400000100EURLM 03201703015PS               57F               2112                                                    
GEWDX15125         8018678005397FK15/25F NERO-TUBO PIEG.MEDIO-CON SONDA    02400024000240099999930000000753000000007530000100EURLM 03201703015PS               57F               2112                                                    
GEWDX15132         8018678005465FK15/32F NERO-TUBO PIEG.MEDIO-CON SONDA    01300013000130099999930000001170000000011700000100EURLM 03201703015PS               57F               2112                                                    
GEWDX15140         8018678005533FK15/40F NERO-TUBO PIEG.MEDIO-CON SONDA    00500005000050099999930000001620000000016200000100EURLM 03201703015PS               57F               2112                                                    
GEWDX15150         8018678005601FK15/50F NERO-TUBO PIEG.MEDIO-CON SONDA    00400004000040099999950000002260000000022600000100EURLM 03201703015PS               57F               2112                                                    
GEWDX15163         8018678005618FK15/63F NERO-TUBO PIEG.MEDIO-CON SONDA    00400004000040099999950000003190000000031900000100EURLM 03201703015PS               57F               2112                                                    
GEWDX15216         8018678004888FK 15/16 VERDE-TUBO PIEGHEVOLE MEDIO       02400024000240099999930000000365000000003650000100EURLM 03201703015PS               57F               2112                                                    
GEWDX15220         8018678004925FK 15/20 VERDE-TUBO PIEGHEVOLE MEDIO       02000020000200099999930000000503000000005030000100EURLM 03201703015PS               57F               2112                                                    
GEWDX15220C        8011564846241FKCO/20 VERDE-TUBO.COESTRUSO.PIEGH.MEDIO   02000020000200099999950000000603000000006030000100EURLM 03201703015PS               57F               2112                                                    
GEWDX15225         8018678004970FK 15/25 VERDE-TUBO PIEGHEVOLE MEDIO       01000010000100099999930000000715000000007150000100EURLM 03201703015PS               57F               2112                                                    
GEWDX15225C        8011564846272FKCO/25 VERDE-TUBO.COESTRUSO.PIEGH.MEDIO   01000010000100099999950000000857000000008570000100EURLM 03201703015PS               57F               2112                                                    
GEWDX15232         8018678005045FK 15/32 VERDE-TUBO PIEGHEVOLE MEDIO       00600006000060099999930000001120000000011200000100EURLM 03201703015PS               57F               2112                                                    
GEWDX15232C        8011564846302FKCO/32 VERDE-TUBO.COESTRUSO.PIEGH.MEDIO   00600006000060099999950000001350000000013500000100EURLM 03201703015PS               57F               2112                                                    
GEWDX15240         8018678005113FK 15/40 VERDE-TUBO PIEGHEVOLE MEDIO       00500005000050099999950000001580000000015800000100EURLM 03201703015PS               57F               2112                                                    
GEWDX15240C        8011564846548FKCO/40 VERDE-TUBO.COESTRUSO.PIEGH.MEDIO   00500005000050099999950000001890000000018900000100EURLM 03201703015PS               57F               2112                                                    
GEWDX15250         8018678005182FK 15/50 VERDE-TUBO PIEGHEVOLE MEDIO       00400004000040099999950000002240000000022400000100EURLM 03201703015PS               57F               2112                                                    
GEWDX15316         8018678005311FK15/16F VERDE -TUBO PIEG.MED.-CON SONDA   02400024000240099999950000000405000000004050000100EURLM 03201703015PS               57F               2112                                                    
GEWDX15320         8018678005359FK15/20F VERDE -TUBO PIEG.MED.-CON SONDA   02000020000200099999930000000540000000005400000100EURLM 03201703015PS               57F               2112                                                    
GEWDX15325         8018678005403FK15/25F VERDE -TUBO PIEG.MED.-CON SONDA   01000010000100099999930000000753000000007530000100EURLM 03201703015PS               57F               2112                                                    
GEWDX15332         8018678005472FK15/32F VERDE -TUBO PIEG.MED.-CON SONDA   00600006000060099999950000001170000000011700000100EURLM 03201703015PS               57F               2112                                                    
GEWDX15416         8018678004895FK 15/16 AZZURRO - TUBO PIEGHEVOLE MEDIO   02400024000240099999930000000365000000003650000100EURLM 03201703015PS               57F               2112                                                    
GEWDX15420         8018678004932FK 15/20 AZZURRO - TUBO PIEGHEVOLE MEDIO   02000020000200099999930000000503000000005030000100EURLM 03201703015PS               57F               2112                                                    
GEWDX15420C        8011564827578FKCO/20 AZZURRO-TUBO.COESTR.PIEGH.MEDIO    02000020000200099999950000000603000000006030000100EURLM 03201703015PS               57F               2112                                                    
GEWDX15425         8018678004987FK 15/25 AZZURRO - TUBO PIEGHEVOLE MEDIO   01000010000100099999930000000715000000007150000100EURLM 03201703015PS               57F               2112                                                    
GEWDX15425C        8011564827608FKCO/25 AZZURRO-TUBO.COESTR.PIEGH.MEDIO    01000010000100099999950000000857000000008570000100EURLM 03201703015PS               57F               2112                                                    
GEWDX15432         8018678005052FK 15/32 AZZURRO - TUBO PIEGHEVOLE MEDIO   00600006000060099999930000001120000000011200000100EURLM 03201703015PS               57F               2112                                                    
GEWDX15432C        8011564827691FKCO/32 AZZURRO-TUBO.COESTR.PIEGH.MEDIO    00600006000060099999950000001350000000013500000100EURLM 03201703015PS               57F               2112                                                    
GEWDX15440         8018678005120FK 15/40 AZZURRO - TUBO PIEGHEVOLE MEDIO   00500005000050099999950000001580000000015800000100EURLM 03201703015PS               57F               2112                                                    
GEWDX15440C        8011564827851FKCO/40 AZZURRO-TUBO.COESTR.PIEGH.MEDIO    00500005000050099999950000001890000000018900000100EURLM 03201703015PS               57F               2112                                                    
GEWDX15450         8018678005199FK 15/50 AZZURRO - TUBO PIEGHEVOLE MEDIO   00400004000040099999950000002240000000022400000100EURLM 03201703015PS               57F               2112                                                    
GEWDX15516         8018678005328FK15/16F AZZUR.-TUBO PIEG.MED.-CON SONDA   02400024000240099999950000000405000000004050000100EURLM 03201703015PS               57F               2112                                                    
GEWDX15520         8018678005366FK15/20F AZZUR.-TUBO PIEG.MED.-CON SONDA   02000020000200099999930000000540000000005400000100EURLM 03201703015PS               57F               2112                                                    
GEWDX15525         8018678005410FK15/25F AZZUR.-TUBO PIEG.MED.-CON SONDA   01000010000100099999930000000753000000007530000100EURLM 03201703015PS               57F               2112                                                    
GEWDX15532         8018678005489FK15/32F AZZUR.-TUBO PIEG.MED.-CON SONDA   00600006000060099999950000001170000000011700000100EURLM 03201703015PS               57F               2112                                                    
GEWDX15616         8018678004864FK 15/16 MARRONE - TUBO PIEGHEVOLE MEDIO   02400024000240099999950000000365000000003650000100EURLM 03201703015PS               57F               2112                                                    
GEWDX15620         8018678004956FK 15/20 MARRONE - TUBO PIEGHEVOLE MEDIO   02000020000200099999930000000503000000005030000100EURLM 03201703015PS               57F               2112                                                    
GEWDX15620C        8011564846265FKCO/20 MARRONE -TUBO.COESTR.PIEGH.MEDIO   02000020000200099999950000000603000000006030000100EURLM 03201703015PS               57F               2112                                                    
GEWDX15625         8018678005007FK 15/25 MARRONE - TUBO PIEGHEVOLE MEDIO   01000010000100099999930000000715000000007150000100EURLM 03201703015PS               57F               2112                                                    
GEWDX15625C        8011564846296FKCO/25 MARRONE -TUBO.COESTR.PIEGH.MEDIO   01000010000100099999950000000857000000008570000100EURLM 03201703015PS               57F               2112                                                    
GEWDX15632         8018678005076FK 15/32 MARRONE - TUBO PIEGHEVOLE MEDIO   00600006000060099999930000001120000000011200000100EURLM 03201703015PS               57F               2112                                                    
GEWDX15632C        8011564846524FKCO/32 MARRONE -TUBO.COESTR.PIEGH.MEDIO   00600006000060099999950000001350000000013500000100EURLM 03201703015PS               57F               2112                                                    
GEWDX15640         8018678005144FK 15/40 MARRONE - TUBO PIEGHEVOLE MEDIO   00500005000050099999950000001580000000015800000100EURLM 03201703015PS               57F               2112                                                    
GEWDX15640C        8011564846562FKCO/40 MARRONE -TUBO.COESTR.PIEGH.MEDIO   00500005000050099999950000001890000000018900000100EURLM 03201703015PS               57F               2112                                                    
GEWDX15650         8018678005212FK 15/50 MARRONE - TUBO PIEGHEVOLE MEDIO   004000040000400999999A0000002240000000022400000100EURLM 03201703015PS               57F               2112                                                    
GEWDX15716         8018678005281FK15/16F MARR.-TUBO PIEG.MEDIO-CON SONDA   02400024000240099999950000000405000000004050000100EURLM 03201703015PS               57F               2112                                                    
GEWDX15720         8018678005380FK15/20F MARR.-TUBO PIEG.MEDIO-CON SONDA   02000020000200099999930000000540000000005400000100EURLM 03201703015PS               57F               2112                                                    
GEWDX15725         8018678005434FK15/25F MARR.-TUBO PIEG.MEDIO-CON SONDA   01000010000100099999930000000753000000007530000100EURLM 03201703015PS               57F               2112                                                    
GEWDX15732         8018678005502FK15/32F MARR.-TUBO PIEG.MEDIO-CON SONDA   00600006000060099999950000001170000000011700000100EURLM 03201703015PS               57F               2112                                                    
GEWDX15816         8018678004826FK 15/16 LILLA - TUBO PIEGHEVOLE MEDIO     02400024000240099999950000000365000000003650000100EURLM 03201703015PS               57F               2112                                                    
GEWDX15820         8018678004833FK 15/20 LILLA - TUBO PIEGHEVOLE MEDIO     02000020000200099999930000000503000000005030000100EURLM 03201703015PS               57F               2112                                                    
GEWDX15820C        8011564846258FKCO/20 LILLA-TUBO.COESTRUSO.PIEGH.MEDIO   02000020000200099999950000000603000000006030000100EURLM 03201703015PS               57F               2112                                                    
GEWDX15825         8018678005021FK 15/25 LILLA - TUBO PIEGHEVOLE MEDIO     01000010000100099999930000000715000000007150000100EURLM 03201703015PS               57F               2112                                                    
GEWDX15825C        8011564846289FKCO/25 LILLA-TUBO.COESTRUSO.PIEGH.MEDIO   01000010000100099999950000000857000000008570000100EURLM 03201703015PS               57F               2112                                                    
GEWDX15832         8018678005090FK 15/32 LILLA - TUBO PIEGHEVOLE MEDIO     00600006000060099999930000001120000000011200000100EURLM 03201703015PS               57F               2112                                                    
GEWDX15832C        8011564846517FKCO/32 LILLA-TUBO.COESTRUSO.PIEGH.MEDIO   00600006000060099999950000001350000000013500000100EURLM 03201703015PS               57F               2112                                                    
GEWDX15840         8018678005168FK 15/40 LILLA - TUBO PIEGHEVOLE MEDIO     00500005000050099999950000001580000000015800000100EURLM 03201703015PS               57F               2112                                                    
GEWDX15840C        8011564846555FKCO/40 LILLA-TUBO.COESTRUSO.PIEGH.MEDIO   00500005000050099999950000001890000000018900000100EURLM 03201703015PS               57F               2112                                                    
GEWDX15850         8018678005236FK 15/50 LILLA - TUBO PIEGHEVOLE MEDIO     004000040000400999999A0000002240000000022400000100EURLM 03201703015PS               57F               2112                                                    
GEWDX15916         8018678005243FK15/16F LILLA-TUBO PIEG.MEDIO-CON SONDA   02400024000240099999950000000405000000004050000100EURLM 03201703015PS               57F               2112                                                    
GEWDX15920         8018678005250FK15/20F LILLA-TUBO PIEG.MEDIO-CON SONDA   02000020000200099999930000000540000000005400000100EURLM 03201703015PS               57F               2112                                                    
GEWDX15925         8018678005458FK15/25F LILLA-TUBO PIEG.MEDIO-CON SONDA   01000010000100099999930000000753000000007530000100EURLM 03201703015PS               57F               2112                                                    
GEWDX15932         8018678005526FK15/32F LILLA-TUBO PIEG.MEDIO-CON SONDA   00600006000060099999950000001170000000011700000100EURLM 03201703015PS               57F               2112                                                    
GEWDX16216         8018678004857FK 15/16 BIANCO NAT. - TUBO PIEGH.MEDIO    05600056000560099999930000000365000000003650000100EURLM 03201703015PS               57F               2112                                                    
GEWDX16220         8018678004901FK 15/20 BIANCO NAT. - TUBO PIEGH.MEDIO    04800048000480099999930000000503000000005030000100EURLM 03201703015PS               57F               2112                                                    
GEWDX16220C        8011564827585FKCO/20 GRIGIO-TUBO.COESTR.PIEGH.MEDIO     04800048000480099999950000000603000000006030000100EURLM 03201703015PS               57F               2112                                                    
GEWDX16225         8018678005014FK 15/25 BIANCO NAT.- TUBO PIEGH.MEDIO     02400024000240099999930000000715000000007150000100EURLM 03201703015PS               57F               2112                                                    
GEWDX16225C        8011564827677FKCO/25 GRIGIO-TUBO.COESTR.PIEGH.MEDIO     02400024000240099999950000000857000000008570000100EURLM 03201703015PS               57F               2112                                                    
GEWDX16232         8018678005083FK 15/32 BIANCO NAT.- TUBO PIEGH.MEDIO     01300013000130099999930000001120000000011200000100EURLM 03201703015PS               57F               2112                                                    
GEWDX16232C        8011564827707FKCO/32 GRIGIO-TUBO.COESTR.PIEGH.MEDIO     01300013000130099999950000001350000000013500000100EURLM 03201703015PS               57F               2112                                                    
GEWDX16240         8018678005151FK 15/40 BIANCO NAT.- TUBO PIEGH.MEDIO     00500005000050099999950000001580000000015800000100EURLM 03201703015PS               57F               2112                                                    
GEWDX16240C        8011564827868FKCO/40 GRIGIO-TUBO.COESTR.PIEGH.MEDIO     00500005000050099999950000001890000000018900000100EURLM 03201703015PS               57F               2112                                                    
GEWDX16250         8018678005229FK 15/50 BIANCO NAT. - TUBO PIEGH.MEDIO    00400004000040099999950000002240000000022400000100EURLM 03201703015PS               57F               2112                                                    
GEWDX16263         8011564132610FK 15/63 BIANCO NAT.- TUBO PIEGH.MEDIO     00400004000040099999950000003160000000031600000100EURLM 03201703015PS               57F               2112                                                    
GEWDX16316         8018678005298FK15/16F BIANCO NAT-TUBO PIEG.MED.-SONDA   05600056000560099999950000000405000000004050000100EURLM 03201703015PS               57F               2112                                                    
GEWDX16320         8018678005335FK15/20F BIANCO NAT-TUBO PIEG.MED.-SONDA   04800048000480099999930000000540000000005400000100EURLM 03201703015PS               57F               2112                                                    
GEWDX16325         8018678005441FK15/25F BIANCO NAT-TUBO PIEG.MED.-SONDA   02400024000240099999950000000753000000007530000100EURLM 03201703015PS               57F               2112                                                    
GEWDX16332         8018678005519FK15/32F BIANCO NAT-TUBO PIEG.MED.-SONDA   01300013000130099999950000001170000000011700000100EURLM 03201703015PS               57F               2112                                                    
GEWDX16340         8018678005588FK15/40F BIANCO NAT-TUBO PIEG.MED.-SONDA   005000050000500999999A0000001620000000016200000100EURLM 03201703015PS               57F               2112                                                    
GEWDX16350         8018678005663FK15/50F BIANCO NAT-TUBO PIEG.MED.-SONDA   004000040000400999999A0000002260000000022600000100EURLM 03201703015PS               57F               2112                                                    
GEWDX16363         8011564132627FK15/63F BIANCO NAT-TUBO PIEG.MED.-SONDA   004000040000400999999A0000003190000000031900000100EURLM 03201703015PS               57F               2112                                                    
GEWDX20016         8018678006486ICTA/16 GRIGIO-TUBO PIEGH. MEDIO A.RINV.   04800048000480099999930000000503000000005030000100EURLM 03201703015PS               57F               2111                                                    
GEWDX20020         8018678006493ICTA/20 GRIGIO-TUBO PIEGH. MEDIO A.RINV.   04000040000400099999930000000702000000007020000100EURLM 03201703015PS               57F               2111                                                    
GEWDX20025         8018678006509ICTA/25 GRIGIO-TUBO PIEGH. MEDIO A.RINV.   02000020000200099999930000000950000000009500000100EURLM 03201703015PS               57F               2111                                                    
GEWDX20032         8018678006516ICTA/32 GRIGIO-TUBO PIEGH. MEDIO A.RINV.   01100011000110099999930000001320000000013200000100EURLM 03201703015PS               57F               2111                                                    
GEWDX20040         8018678006523ICTA/40 GRIGIO-TUBO PIEGH. MEDIO A.RINV.   00500005000050099999930000001900000000019000000100EURLM 03201703015PS               57F               2111                                                    
GEWDX20050         8018678006530ICTA/50 GRIGIO-TUBO PIEGH. MEDIO A.RINV.   00400004000040099999930000003810000000038100000100EURLM 03201703015PS               57F               2111                                                    
GEWDX20063         8018678006547ICTA/63 GRIGIO-TUBO PIEGH. MEDIO A.RINV.   00400004000040099999950000005230000000052300000100EURLM 03201703015PS               57F               2111                                                    
GEWDX20116         8018678006554ICTA/16F GRIGIO-TUBO PIEGH. MEDIO AR. CS   04800048000480099999950000000542000000005420000100EURLM 03201703015PS               57F               2111                                                    
GEWDX20120         8018678006561ICTA/20F GRIGIO-TUBO PIEGH. MEDIO AR. CS   04000040000400099999930000000749000000007490000100EURLM 03201703015PS               57F               2111                                                    
GEWDX20125         8018678006578ICTA/25F GRIGIO-TUBO PIEGH. MEDIO AR. CS   02000020000200099999930000000999000000009990000100EURLM 03201703015PS               57F               2111                                                    
GEWDX20132         8018678006585ICTA/32F GRIGIO-TUBO PIEGH. MEDIO AR. CS   01100011000110099999950000001380000000013800000100EURLM 03201703015PS               57F               2111                                                    
GEWDX20140         8018678006592ICTA/40F GRIGIO-TUBO PIEGH. MEDIO AR. CS   00500005000050099999950000002000000000020000000100EURLM 03201703015PS               57F               2111                                                    
GEWDX20150         8018678006608ICTA/50F GRIGIO-TUBO PIEGH. MEDIO AR. CS   00400004000040099999950000003850000000038500000100EURLM 03201703015PS               57F               2111                                                    
GEWDX20163         8018678006615ICTA/63F GRIGIO-TUBO PIEGH. MEDIO AR. CS   00400004000040099999950000005270000000052700000100EURLM 03201703015PS               57F               2111                                                    
GEWDX20416         8018678034700ICTA/16 GR.SC.-TUBO PIEGH. MEDIO A.RINV.   04800048000480099999930000000503000000005030000100EURLM 03201703015PS               57F               2111                                                    
GEWDX20420         8018678034717ICTA/20 GR.SC.-TUBO PIEGH. MEDIO A.RINV.   04000040000400099999930000000702000000007020000100EURLM 03201703015PS               57F               2111                                                    
GEWDX20425         8018678034724ICTA/25 GR.SC.-TUBO PIEGH. MEDIO A.RINV.   02000020000200099999930000000950000000009500000100EURLM 03201703015PS               57F               2111                                                    
GEWDX20432         8018678034731ICTA/32 GR.SC.-TUBO PIEGH. MEDIO A.RINV.   01100011000110099999930000001320000000013200000100EURLM 03201703015PS               57F               2111                                                    
GEWDX20440         8018678046529ICTA/40 GR.SC.-TUBO PIEGH. MEDIO A.RINV.   00500005000050099999930000001900000000019000000100EURLM 03201703015PS               57F               2111                                                    
GEWDX20450         8018678046536ICTA/50 GR.SC.-TUBO PIEGH. MEDIO A.RINV.   00400004000040099999950000003810000000038100000100EURLM 03201703015PS               57F               2111                                                    
GEWDX20463         8018678046543ICTA/63 GR.SC.-TUBO PIEGH. MEDIO A.RINV.   00400004000040099999950000005230000000052300000100EURLM 03201703015PS               57F               2111                                                    
GEWDX20516         8018678012302ICTA/16F GR.SC.-TUBO PIEGH. MEDIO AR. CS   04800048000480099999930000000542000000005420000100EURLM 03201703015PS               57F               2111                                                    
GEWDX20520         8018678012319ICTA/20F GR.SC.-TUBO PIEGH. MEDIO AR. CS   04000040000400099999930000000749000000007490000100EURLM 03201703015PS               57F               2111                                                    
GEWDX20525         8018678012326ICTA/25F GR.SC.-TUBO PIEGH. MEDIO AR. CS   02000020000200099999930000000999000000009990000100EURLM 03201703015PS               57F               2111                                                    
GEWDX20532         8018678012937ICTA/32F GR.SC.-TUBO PIEGH. MEDIO AR. CS   01100011000110099999930000001380000000013800000100EURLM 03201703015PS               57F               2111                                                    
GEWDX20540         8018678013095ICTA/40F GR.SC.-TUBO PIEGH. MEDIO AR. CS   00500005000050099999930000002000000000020000000100EURLM 03201703015PS               57F               2111                                                    
GEWDX20550         8018678046550ICTA/50F GR.SC.-TUBO PIEGH. MEDIO AR. CS   00400004000040099999950000003850000000038500000100EURLM 03201703015PS               57F               2111                                                    
GEWDX20563         8018678046567ICTA/63F GR.SC.-TUBO PIEGH. MEDIO AR. CS   00400004000040099999950000005270000000052700000100EURLM 03201703015PS               57F               2111                                                    
GEWDX22016         8011564586215ICTA/16 VERDE-TUBO PIEGH. MEDIO A.RINV.    048000480004800999999A0000000503000000005030000100EURLM 03201703015PS               57F               2111                                                    
GEWDX22020         8011564232013ICTA/20 VERDE-TUBO PIEGH. MEDIO A.RINV.    04000040000400099999930000000702000000007020000100EURLM 03201703015PS               57F               2111                                                    
GEWDX22025         8011564232037ICTA/25 VERDE-TUBO PIEGH. MEDIO A.RINV.    02000020000200099999950000000950000000009500000100EURLM 03201703015PS               57F               2111                                                    
GEWDX22032         8011564232051ICTA/32 VERDE-TUBO PIEGH. MEDIO A.RINV.    01100011000110099999950000001320000000013200000100EURLM 03201703015PS               57F               2111                                                    
GEWDX22040         8011564232075ICTA/40 VERDE-TUBO PIEGH. MEDIO A.RINV.    005000050000500999999A0000001900000000019000000100EURLM 03201703015PS               57F               2111                                                    
GEWDX22050         8011564232099ICTA/50 VERDE-TUBO PIEGH. MEDIO A.RINV.    004000040000400999999A0000003810000000038100000100EURLM 03201703015PS               57F               2111                                                    
GEWDX22063         8011564586444ICTA/63 VERDE-TUBO PIEGH. MEDIO A.RINV.    004000040000400999999A0000005230000000052300000100EURLM 03201703015PS               57F               2111                                                    
GEWDX22116         8018678036605ICTA/16F VERDE-TUBO PIEGH. MEDIO A.RINV.   048000480004800999999A0000000542000000005420000100EURLM 03201703015PS               57F               2111                                                    
GEWDX22120         8011564232020ICTA/20F VERDE-TUBO PIEGH. MEDIO A.RINV.   040000400004000999999A0000000749000000007490000100EURLM 03201703015PS               57F               2111                                                    
GEWDX22125         8011564232044ICTA/25F VERDE-TUBO PIEGH. MEDIO A.RINV.   020000200002000999999A0000000999000000009990000100EURLM 03201703015PS               57F               2111                                                    
GEWDX22132         8011564232068ICTA/32F VERDE-TUBO PIEGH. MEDIO A.RINV.   011000110001100999999A0000001380000000013800000100EURLM 03201703015PS               57F               2111                                                    
GEWDX22140         8011564232082ICTA/40F VERDE-TUBO PIEGH. MEDIO A.RINV.   005000050000500999999A0000002000000000020000000100EURLM 03201703015PS               57F               2111                                                    
GEWDX22150         8011564232105ICTA/50F VERDE-TUBO PIEGH. MEDIO A.RINV.   004000040000400999999A0000003850000000038500000100EURLM 03201703015PS               57F               2111                                                    
GEWDX22163         8011564232112ICTA/63F VERDE-TUBO PIEGH. MEDIO A.RINV.   004000040000400999999A0000005270000000052700000100EURLM 03201703015PS               57F               2111                                                    
GEWDX23016         8011564232129ICTA/16 BLU-TUBO PIEGH. MEDIO A.RINV.      048000480004800999999A0000000503000000005030000100EURLM 03201703015PS               57F               2111                                                    
GEWDX23020         8011564232136ICTA/20 BLU-TUBO PIEGH. MEDIO A.RINV.      04000040000400099999950000000702000000007020000100EURLM 03201703015PS               57F               2111                                                    
GEWDX23025         8011564232143ICTA/25 BLU-TUBO PIEGH. MEDIO A.RINV.      02000020000200099999950000000950000000009500000100EURLM 03201703015PS               57F               2111                                                    
GEWDX23032         8011564232150ICTA/32 BLU-TUBO PIEGH. MEDIO A.RINV.      01100011000110099999950000001320000000013200000100EURLM 03201703015PS               57F               2111                                                    
GEWDX23040         8011564232167ICTA/40 BLU-TUBO PIEGH. MEDIO A.RINV.      005000050000500999999A0000001900000000019000000100EURLM 03201703015PS               57F               2111                                                    
GEWDX23050         8011564232174ICTA/50 BLU-TUBO PIEGH. MEDIO A.RINV.      004000040000400999999A0000003810000000038100000100EURLM 03201703015PS               57F               2111                                                    
GEWDX23063         8011564232181ICTA/63 BLU-TUBO PIEGH. MEDIO A.RINV.      004000040000400999999A0000005230000000052300000100EURLM 03201703015PS               57F               2111                                                    
GEWDX23116         8011564232198ICTA/16F BLU-TUBO PIEGH. MEDIO A.RINV.     048000480004800999999A0000000542000000005420000100EURLM 03201703015PS               57F               2111                                                    
GEWDX23120         8011564232204ICTA/20F BLU-TUBO PIEGH. MEDIO A.RINV.     040000400004000999999A0000000749000000007490000100EURLM 03201703015PS               57F               2111                                                    
GEWDX23125         8011564232211ICTA/25F BLU-TUBO PIEGH. MEDIO A.RINV.     020000200002000999999A0000000999000000009990000100EURLM 03201703015PS               57F               2111                                                    
GEWDX23132         8011564232228ICTA/32F BLU-TUBO PIEGH. MEDIO A.RINV.     011000110001100999999A0000001380000000013800000100EURLM 03201703015PS               57F               2111                                                    
GEWDX23140         8011564232235ICTA/40F BLU-TUBO PIEGH. MEDIO A.RINV.     005000050000500999999A0000002000000000020000000100EURLM 03201703015PS               57F               2111                                                    
GEWDX23150         8011564232242ICTA/50F BLU-TUBO PIEGH. MEDIO A.RINV.     004000040000400999999A0000003850000000038500000100EURLM 03201703015PS               57F               2111                                                    
GEWDX23163         8011564232259ICTA/63F BLU-TUBO PIEGH. MEDIO A.RINV      004000040000400999999A0000005270000000052700000100EURLM 03201703015PS               57F               2111                                                    
GEWDX25216         8018678006936RK15/16G-2M TUBO RIGIDO MEDIO GRIGIO       02220022200222099999930000000628000000006280000100EURLM 03201703015PS               54F               21220                                                   
GEWDX25220         8018678006950RK15/20G-2M TUBO RIGIDO MEDIO GRIGIO       01344013440134499999930000000898000000008980000100EURLM 03201703015PS               54F               21220                                                   
GEWDX25225         8018678006974RK15/25G-2M TUBO RIGIDO MEDIO GRIGIO       00864008640086499999930000001250000000012500000100EURLM 03201703015PS               54F               21220                                                   
GEWDX25232         8018678006998RK15/32G-2M TUBO RIGIDO MEDIO GRIGIO       00532005320053299999930000001810000000018100000100EURLM 03201703015PS               54F               21220                                                   
GEWDX25316         8018678006943RK15/16G-3M TUBO RIGIDO MEDIO GRIGIO       03330033300333099999930000000592000000005920000100EURLM 03201703015PS               54F               21220                                                   
GEWDX25320         8018678006967RK15/20G-3M TUBO RIGIDO MEDIO GRIGIO       02223022230222399999930000000845000000008450000100EURLM 03201703015PS               54F               21220                                                   
GEWDX25325         8018678006981RK15/25G-3M TUBO RIGIDO MEDIO GRIGIO       01311013110131199999930000001180000000011800000100EURLM 03201703015PS               54F               21220                                                   
GEWDX25332         8018678007001RK15/32G-3M TUBO RIGIDO MEDIO GRIGIO       00780007800078099999930000001700000000017000000100EURLM 03201703015PS               54F               21220                                                   
GEWDX25340         8018678007025RK15/40G-3M TUBO RIGIDO MEDIO GRIGIO       00540005400054099999930000002340000000023400000100EURLM 03201703015PS               54F               21220                                                   
GEWDX25350         8018678007049RK15/50G-3M TUBO RIGIDO MEDIO GRIGIO       00360003600036099999930000003560000000035600000100EURLM 03201703015PS               54F               21220                                                   
GEWDX25363         8018678013088RK15/63G-3M TUBO RIGIDO MEDIO GRIGIO       00180001800018099999950000006740000000067400000100EURLM 03201703015PS               54F               21220                                                   
GEWDX25716         8018678007605RKB16-3M TUBO RIGIDO PESANTE GRIGIO        03192031920319299999930000001110000000011100000100EURLM 03201703015PS               54F               21220                                                   
GEWDX25720         8018678007629RKB20-3M TUBO RIGIDO PESANTE GRIGIO        02223022230222399999930000001460000000014600000100EURLM 03201703015PS               54F               21220                                                   
GEWDX25725         8018678007643RKB25-3M TUBO RIGIDO PESANTE GRIGIO        01311013110131199999930000001960000000019600000100EURLM 03201703015PS               54F               21220                                                   
GEWDX25732         8018678007667RKB32-3M TUBO RIGIDO PESANTE GRIGIO        00780007800078099999930000002910000000029100000100EURLM 03201703015PS               54F               21220                                                   
GEWDX25740         8018678007681RKB40-3M TUBO RIGIDO PESANTE GRIGIO        00540005400054099999930000003960000000039600000100EURLM 03201703015PS               54F               21220                                                   
GEWDX25750         8018678007704RKB50-3M TUBO RIGIDO PESANTE GRIGIO        00360003600036099999930000005370000000053700000100EURLM 03201703015PS               54F               21220                                                   
GEWDX25763         8011564170940RKB63-3M TUBO RIGIDO PESANTE GRIGIO        00180001800018099999950000010000000000100000000100EURLM 03201703015PS               54F               21220                                                   
GEWDX26216         8011564247727TUBO RIGIDO HALOGEN FREE RKHF/16 2M        04620046200462099999950000002240000000022400000100EURLM 03201703015PS               54F               21220                                                   
GEWDX26220         8011564247734TUBO RIGIDO HALOGEN FREE RKHF/20 2M        03542035420354299999930000002910000000029100000100EURLM 03201703015PS               54F               21220                                                   
GEWDX26225         8011564247741TUBO RIGIDO HALOGEN FREE RKHF/25 2M        02640026400264099999930000004060000000040600000100EURLM 03201703015PS               54F               21220                                                   
GEWDX26232         8011564247758TUBO RIGIDO HALOGEN FREE RKHF/32 2M        01980019800198099999930000005570000000055700000100EURLM 03201703015PS               54F               21220                                                   
GEWDX26240         8011564247765TUBO RIGIDO HALOGEN FREE RKHF/40 2M        01080010800108099999950000008150000000081500000100EURLM 03201703015PS               54F               21220                                                   
GEWDX26250         8011564247772TUBO RIGIDO HALOGEN FREE RKHF/50 2M        00648006480064899999950000010900000000109000000100EURLM 03201703015PS               54F               21220                                                   
GEWDX26263         8011564247789TUBO RIGIDO HALOGEN FREE RKHF/63 2M        00420004200042099999950000014600000000146000000100EURLM 03201703015PS               54F               21220                                                   
GEWDX26316         8011564827516RKHF Ø16 3MT GRIGIO RAL7035                01827018270182799999950000002120000000021200000100EURLM 03201703015PS               54F               21220                                                   
GEWDX26320         8011564827530RKHF Ø20 3MT GRIGIO RAL7035                01449014490144999999950000002760000000027600000100EURLM 03201703015PS               54F               21220                                                   
GEWDX26325         8011564827523RKHF Ø25 3MT GRIGIO RAL7035                00840008400084099999950000003830000000038300000100EURLM 03201703015PS               54F               21220                                                   
GEWDX26332         8011564827547RKHF Ø32 3MT GRIGIO RAL7035                00504005040050499999950000005250000000052500000100EURLM 03201703015PS               54F               21220                                                   
GEWDX30008         8018678003935DF 8G GUAINA GRIGIA                        02070020700207099999930000001260000000012600000100EURLM 03201703015PS               58F               21320                                                   
GEWDX30010         8018678003942DF 10G GUAINA GRIGIA                       01800018000180099999930000001310000000013100000100EURLM 03201703015PS               58F               21320                                                   
GEWDX30012         8018678003959DF 12G GUAINA GRIGIA                       01800018000180099999930000001320000000013200000100EURLM 03201703015PS               58F               21320                                                   
GEWDX30014         8018678003966DF 14G GUAINA GRIGIA                       01440014400144099999930000001460000000014600000100EURLM 03201703015PS               58F               21320                                                   
GEWDX30016         8018678003973DF 16G GUAINA GRIGIA                       01080010800108099999930000001570000000015700000100EURLM 03201703015PS               58F               21320                                                   
GEWDX30020         8018678003997DF 20G GUAINA GRIGIA                       01080010800108099999930000001870000000018700000100EURLM 03201703015PS               58F               21320                                                   
GEWDX30022         8018678004000DF 22G GUAINA GRIGIA                       00720007200072099999930000002060000000020600000100EURLM 03201703015PS               58F               21320                                                   
GEWDX30025         8018678004017DF 25G GUAINA GRIGIA                       00600006000060099999930000002370000000023700000100EURLM 03201703015PS               58F               21320                                                   
GEWDX30028         8018678004024DF 28G GUAINA GRIGIA                       00480004800048099999930000002890000000028900000100EURLM 03201703015PS               58F               21320                                                   
GEWDX30032         8018678004048DF 32G GUAINA GRIGIA                       00480004800048099999930000003390000000033900000100EURLM 03201703015PS               58F               21320                                                   
GEWDX30035         8018678004055DF 35G GUAINA GRIGIA                       00480004800048099999930000003730000000037300000100EURLM 03201703015PS               58F               21320                                                   
GEWDX30040         8018678004062DF 40G GUAINA GRIGIA                       00360003600036099999930000004630000000046300000100EURLM 03201703015PS               58F               21320                                                   
GEWDX30050         8018678004079DF 50G GUAINA GRIGIA                       00180001800018099999930000006580000000065800000100EURLM 03201703015PS               58F               21320                                                   
GEWDX30060         8018678004086DF 60G GUAINA GRIGIA                       00120001200012099999930000007870000000078700000100EURLM 03201703015PS               58F               21320                                                   
GEWDX30108         8018678004116DF 8N GUAINA NERA                          02070020700207099999930000001260000000012600000100EURLM 03201703015PS               58F               21320                                                   
GEWDX30110         8018678004130DF 10N GUAINA NERA                         01800018000180099999930000001310000000013100000100EURLM 03201703015PS               58F               21320                                                   
GEWDX30112         8018678004147DF 12N GUAINA NERA                         01800018000180099999930000001320000000013200000100EURLM 03201703015PS               58F               21320                                                   
GEWDX30114         8018678004154DF 14N GUAINA NERA                         01440014400144099999950000001460000000014600000100EURLM 03201703015PS               58F               21320                                                   
GEWDX30116         8018678004161DF 16N GUAINA NERA                         01080010800108099999930000001570000000015700000100EURLM 03201703015PS               58F               21320                                                   
GEWDX30120         8018678004185DF 20N GUAINA NERA                         01080010800108099999930000001870000000018700000100EURLM 03201703015PS               58F               21320                                                   
GEWDX30122         8018678004192DF 22N GUAINA NERA                         00720007200072099999950000002060000000020600000100EURLM 03201703015PS               58F               21320                                                   
GEWDX30125         8018678004208DF 25N GUAINA NERA                         00600006000060099999930000002370000000023700000100EURLM 03201703015PS               58F               21320                                                   
GEWDX30128         8018678004215DF 28N GUAINA NERA                         00480004800048099999930000002890000000028900000100EURLM 03201703015PS               58F               21320                                                   
GEWDX30132         8018678004239DF 32N GUAINA NERA                         00480004800048099999950000003390000000033900000100EURLM 03201703015PS               58F               21320                                                   
GEWDX30135         8018678004246DF 35N GUAINA NERA                         00480004800048099999950000003730000000037300000100EURLM 03201703015PS               58F               21320                                                   
GEWDX30140         8018678004253DF 40N GUAINA NERA                         00360003600036099999950000004630000000046300000100EURLM 03201703015PS               58F               21320                                                   
GEWDX30150         8018678004260DF 50N GUAINA NERA                         00180001800018099999950000006580000000065800000100EURLM 03201703015PS               58F               21320                                                   
GEWDX30160         8018678004277DF 60N GUAINA NERA                         00120001200012099999950000007870000000078700000100EURLM 03201703015PS               58F               21320                                                   
GEWDX30212         8018678004307TRM 12 A GUAINA AZZURRA                    01800018000180099999950000001320000000013200000100EURLM 03201703015PS               58F               21320                                                   
GEWDX30216         8018678004321TRM 16 A GUAINA AZZURRA                    01080010800108099999950000001570000000015700000100EURLM 03201703015PS               58F               21320                                                   
GEWDX30220         8018678004338TRM 20 A GUAINA AZZURRA                    01080010800108099999950000001870000000018700000100EURLM 03201703015PS               58F               21320                                                   
GEWDX30222         8018678004352TRM 22 A GUAINA AZZURRA                    00720007200072099999950000002060000000020600000100EURLM 03201703015PS               58F               21320                                                   
GEWDX30225         8018678004369TRM 25 A GUAINA AZZURRA                    00600006000060099999950000002370000000023700000100EURLM 03201703015PS               58F               21320                                                   
GEWDX30232         8018678004383TRM 32 A GUAINA AZZURRA                    00480004800048099999950000003390000000033900000100EURLM 03201703015PS               58F               21320                                                   
GEWDX30240         8018678004406TRM 40 A GUAINA AZZURRA                    003600036000360999999A0000004630000000046300000100EURLM 03201703015PS               58F               21320                                                   
GEWDX30812         8011564114616LIGHT 12 GUAINA GRIGIA                     01800018000180099999950000001220000000012200000100EURLM 03201703015PS               58F               21320                                                   
GEWDX30816         8011564114623LIGHT 16 GUAINA GRIGIA                     01080010800108099999950000001360000000013600000100EURLM 03201703015PS               58F               21320                                                   
GEWDX30820         8011564114630LIGHT 20 GUAINA GRIGIA                     01080010800108099999950000001630000000016300000100EURLM 03201703015PS               58F               21320                                                   
GEWDX30825         8011564114647LIGHT 25 GUAINA GRIGIA                     00600006000060099999950000001890000000018900000100EURLM 03201703015PS               58F               21320                                                   
GEWDX35000         8018678013217FU15/ 40R.50MT.CAVIDOTTO FLESSIBILE        00500005000050099999930000000023500000000235000001EURLM 03201703015PS               60F               2112                                                    
GEWDX35001         8018678013224FU15/ 50R.50MT.CAVIDOTTO FLESSIBILE        00350003500035099999930000000027500000000275000001EURLM 03201703015PS               60F               2112                                                    
GEWDX35002         8018678013170FU15/ 63R.50MT.CAVIDOTTO FLESSIBILE        00300003000030099999930000000031500000000315000001EURLM 03201703015PS               60F               2112                                                    
GEWDX35003         8018678013231FU15/ 75R.50MT.CAVIDOTTO FLESSIBILE        00250002500025099999930000000043500000000435000001EURLM 03201703015PS               60F               2112                                                    
GEWDX35004         8018678013248FU15/ 90R.50MT.CAVIDOTTO FLESSIBILE        00250002500025099999930000000051500000000515000001EURLM 03201703015PS               60F               2112                                                    
GEWDX35005         8018678013255FU15/110R.50MT.CAVIDOTTO FLESSIBILE        00250002500025099999930000000067000000000670000001EURLM 03201703015PS               60F               2112                                                    
GEWDX35006         8018678013262FU15/125R.25MT.CAVIDOTTO FLESSIBILE        00100001000010099999930000000082500000000825000001EURLM 03201703015PS               60F               2112                                                    
GEWDX35008         8018678013286FU15/160R.25MT.CAVIDOTTO FLESSIBILE        00100001000010099999950000000162000000001620000001EURLM 03201703015PS               60F               2112                                                    
GEWDX35009         8018678029188FU15/200R.25MT.CAVIDOTTO FLESSIBILE        000250002500025999999A0000000254000000002540000001EURLM 03201703015PS               60F               2112                                                    
GEWDX40016         8018678008213RK M/16G MANICOTTO GRIGIO                  00300003000030099999930000000206000000002060000100EURPCE03201703015PS               55F               21221                                                   
GEWDX40020         8018678008220RK M/20G MANICOTTO GRIGIO                  00450004500045099999930000000256000000002560000100EURPCE03201703015PS               55F               21221                                                   
GEWDX40025         8018678008237RK M/25G MANICOTTO GRIGIO                  00240002400024099999930000000318000000003180000100EURPCE03201703015PS               55F               21221                                                   
GEWDX40032         8018678008244RK M/32G MANICOTTO GRIGIO                  00100001000010099999930000000554000000005540000100EURPCE03201703015PS               55F               21221                                                   
GEWDX40040         8018678008251RK M/40G MANICOTTO GRIGIO                  00025000250002599999930000000770000000007700000100EURPCE03201703015PS               55F               21221                                                   
GEWDX40050         8018678008268RK M/50G MANICOTTO GRIGIO                  00015000150001599999930000001320000000013200000100EURPCE03201703015PS               55F               21221                                                   
GEWDX40063         8018678029201RK M/63G MANICOTTO GRIGIO                  00008000080000899999950000002510000000025100000100EURPCE03201703015PS               55F               21221                                                   
GEWDX40116         8018678008978RKS/16G CURVA RAG.STRETTO                  00300003000030099999930000000321000000003210000100EURPCE03201703015PS               55F               21221                                                   
GEWDX40120         8018678008985RKS/20G CURVA RAG.STRETTO                  00300003000030099999930000000437000000004370000100EURPCE03201703015PS               55F               21221                                                   
GEWDX40125         8018678008992RKS/25G CURVA RAG.STRETTO                  00100001000010099999930000000697000000006970000100EURPCE03201703015PS               55F               21221                                                   
GEWDX40132         8018678009005RKS/32G CURVA RAG.STRETTO                  00050000500005099999930000001320000000013200000100EURPCE03201703015PS               55F               21221                                                   
GEWDX40140         8018678009012RKS/40G CURVA RAG.STRETTO                  00025000250002599999930000001850000000018500000100EURPCE03201703015PS               55F               21221                                                   
GEWDX40150         8018678009029RKS/50G CURVA RAG.STRETTO                  00010000100001099999930000003310000000033100000100EURPCE03201703015PS               55F               21221                                                   
GEWDX40163         8018678029218RKS/63G CURVA RAG.STRETTO                  00001000010000199999950000013000000000130000000100EURPCE03201703015PS               55F               21221                                                   
GEWDX40216         8018678009388RKT/16G GIUNTO A T ISPEZ.GRI.              00120001200012099999930000000006500000000065000001EURPCE03201703015PS               55F               21221                                                   
GEWDX40220         8018678009395RKT/20G GIUNTO A T ISPEZ.GRI.              00120001200012099999930000000008300000000083000001EURPCE03201703015PS               55F               21221                                                   
GEWDX40225         8018678009401RKT/25G GIUNTO A T ISPEZ.GRI.              00060000600006099999930000000010700000000107000001EURPCE03201703015PS               55F               21221                                                   
GEWDX40232         8018678009418RKT/32G GIUNTO A T ISPEZ.GRI.              00030000300003099999930000000013200000000132000001EURPCE03201703015PS               55F               21221                                                   
GEWDX40316         8018678008756RK E/16G CURVA ISPEZ.GRIGIA                00180001800018099999930000000005100000000051000001EURPCE03201703015PS               55F               21221                                                   
GEWDX40320         8018678008763RK E/20G CURVA ISPEZ.GRIGIA                00120001200012099999930000000006500000000065000001EURPCE03201703015PS               55F               21221                                                   
GEWDX40325         8018678008770RK E/25G CURVA ISPEZ.GRIGIA                00060000600006099999930000000008300000000083000001EURPCE03201703015PS               55F               21221                                                   
GEWDX40332         8018678008787RK E/32G CURVA ISPEZ.GRIGIA                00040000400004099999930000000010000000000100000001EURPCE03201703015PS               55F               21221                                                   
GEWDX43016         8018678035547MM 16 MANICOTTO TUBO-TUBO MORBIDX          00300003000030099999930000000010300000000103000001EURPCE03201703015PS               55F               21221                                                   
GEWDX43020         8018678035554MM 20 MANICOTTO TUBO-TUBO MORBIDX          00240002400024099999930000000011500000000115000001EURPCE03201703015PS               55F               21221                                                   
GEWDX43025         8018678035561MM 25 MANICOTTO TUBO-TUBO MORBIDX          00150001500015099999930000000013200000000132000001EURPCE03201703015PS               55F               21221                                                   
GEWDX43032         8018678035578MM 32 MANICOTTO TUBO-TUBO MORBIDX          00120001200012099999930000000015500000000155000001EURPCE03201703015PS               55F               21221                                                   
GEWDX43040         8018678035585MM 40 MANICOTTO TUBO-TUBO MORBIDX          00090000900009099999930000000027500000000275000001EURPCE03201703015PS               55F               21221                                                   
GEWDX43050         8018678035592MM 50 MANICOTTO TUBO-TUBO MORBIDX          00054000540005499999930000000031500000000315000001EURPCE03201703015PS               55F               21221                                                   
GEWDX43116         8018678035608CM 16 CURVA RAPIDA MORBIDX                 00100001000010099999930000000016000000000160000001EURPCE03201703015PS               55F               21221                                                   
GEWDX43120         8018678035615CM 20 CURVA RAPIDA MORBIDX                 00080000800008099999930000000018500000000185000001EURPCE03201703015PS               55F               21221                                                   
GEWDX43125         8018678035622CM 25 CURVA RAPIDA MORBIDX                 00050000500005099999930000000023000000000230000001EURPCE03201703015PS               55F               21221                                                   
GEWDX43132         8018678035639CM 32 CURVA RAPIDA MORBIDX                 00030000300003099999930000000033500000000335000001EURPCE03201703015PS               55F               21221                                                   
GEWDX43140         8018678035646CM 40 CURVA RAPIDA MORBIDX                 00015000150001599999930000000044500000000445000001EURPCE03201703015PS               55F               21221                                                   
GEWDX43150         8018678035653CM 50 CURVA RAPIDA MORBIDX                 00008000080000899999930000000057500000000575000001EURPCE03201703015PS               55F               21221                                                   
GEWDX43216         8018678035394MS 16 RACC.TUBO-SCATOLA MORBIDX            00360003600036099999930000000012500000000125000001EURPCE03201703015PS               55F               21221                                                   
GEWDX43220         8018678035400MS 20 RACC.TUBO-SCATOLA MORBIDX            00300003000030099999930000000013500000000135000001EURPCE03201703015PS               55F               21221                                                   
GEWDX43225         8018678035417MS 25 RACC.TUBO-SCATOLA MORBIDX            00180001800018099999930000000015500000000155000001EURPCE03201703015PS               55F               21221                                                   
GEWDX43232         8018678035424MS 32 RACC.TUBO-SCATOLA MORBIDX            00150001500015099999930000000017000000000170000001EURPCE03201703015PS               55F               21221                                                   
GEWDX43240         8018678036230MS 40 RACC.TUBO SCATOLA MORBIDX            00030000300003099999930000000030500000000305000001EURPCE03201703015PS               55F               21221                                                   
GEWDX43250         8018678036247MS 50 RACC.TUBO SCATOLA MORBIDX            00015000150001599999930000000034500000000345000001EURPCE03201703015PS               55F               21221                                                   
GEWDX43316         8018678035660RMG 16/12 RACC.TUBO-GUAINA MORBIDX         00450004500045099999930000000011500000000115000001EURPCE03201703015PS               55F               21221                                                   
GEWDX43320         8018678035677RMG 20/16 RACC.TUBO-GUAINA MORBIDX         00300003000030099999930000000011600000000116000001EURPCE03201703015PS               55F               21221                                                   
GEWDX43325         8018678035684RMG 25/20 RACC.TUBO-GUAINA MORBIDX         00210002100021099999930000000012500000000125000001EURPCE03201703015PS               55F               21221                                                   
GEWDX43332         8018678035691RMG 32/25 RACC.TUBO-GUAINA MORBIDX         00120001200012099999930000000017700000000177000001EURPCE03201703015PS               55F               21221                                                   
GEWDX43340         8018678035707RMG 40/32 RACC.TUBO-GUAINA MORBIDX         00025000250002599999930000000025500000000255000001EURPCE03201703015PS               55F               21221                                                   
GEWDX43350         8018678035714RMG 50/40 RACC.TUBO-GUAINA MORBIDX         00020000200002099999930000000031000000000310000001EURPCE03201703015PS               55F               21221                                                   
GEWDX43416         8018678035721RMG/N 16/16 RACC.TUBO-GUAINA MORBIDX       00360003600036099999930000000011600000000116000001EURPCE03201703015PS               55F               21221                                                   
GEWDX43420         8018678035738RMG/N 20/20 RACC.TUBO-GUAINA MORBIDX       00240002400024099999930000000012500000000125000001EURPCE03201703015PS               55F               21221                                                   
GEWDX43425         8018678035745RMG/N 25/25 RACC.TUBO-GUAINA MORBIDX       00150001500015099999930000000013200000000132000001EURPCE03201703015PS               55F               21221                                                   
GEWDX43432         8018678035752RMG/N 32/28 RACC.TUBO-GUAINA MORBIDX       00040000400004099999930000000018500000000185000001EURPCE03201703015PS               55F               21221                                                   
GEWDX43440         8018678035769RMG/N 40/40 RACC.TUBO-GUAINA MORBIDX       00020000200002099999930000000028500000000285000001EURPCE03201703015PS               55F               21221                                                   
GEWDX43516         8018678036292SVM16TT LA SVOLTA MORBIDX TUBO-TUBO        00060000600006099999950000000022500000000225000001EURPCE03201703015PS               55F               21221                                                   
GEWDX43520         8018678036308SVM20TT LA SVOLTA MORBIDX TUBO-TUBO        00040000400004099999930000000023000000000230000001EURPCE03201703015PS               55F               21221                                                   
GEWDX43525         8018678036315SVM25TT LA SVOLTA MORBIDX TUBO-TUBO        00020000200002099999930000000031000000000310000001EURPCE03201703015PS               55F               21221                                                   
GEWDX43532         8018678036322SVM32TT LA SVOLTA MORBIDX TUBO-TUBO        00020000200002099999930000000038500000000385000001EURPCE03201703015PS               55F               21221                                                   
GEWDX43540         8018678036339SVM40TT LA SVOLTA MORBIDX TUBO-TUBO        00012000120001299999930000000057000000000570000001EURPCE03201703015PS               55F               21221                                                   
GEWDX43550         8018678036346SVM50TT LA SVOLTA MORBIDX TUBO-TUBO        00009000090000999999950000000071000000000710000001EURPCE03201703015PS               55F               21221                                                   
GEWDX45003         8018678011954SCATOLA TRIX A 3 INGRESSI                  00015000150001599999930000000020000000000200000001EURPCE03201703015PS               55F               21221                                                   
GEWDX45004         8018678035080SCATOLA QUADRIX A 4 INGRESSI               00060000600006099999930000000037000000000370000001EURPCE03201703015PS               55F               21221                                                   
GEWDX45007         8018678035097SCATOLA QUADRIX A 7 INGRESSI               00060000600006099999930000000044000000000440000001EURPCE03201703015PS               55F               21221                                                   
GEWDX45010         8018678038012SCATOLA QUADRIX A 10 INGRESSI              00016000160001699999930000000055500000000555000001EURPCE03201703015PS               55F               21221                                                   
GEWDX47000         8018678012814TAPPO CHIUSURA GIUNTO TRIX D.16/25         00450004500045099999930000000006500000000065000001EURPCE03201703015PS               55F               21221                                                   
GEWDX47001         8018678038166RACC.SCATOLA-SCATOLA TRIX/QUADRIX          00060000600006099999950000000010700000000107000001EURPCE03201703015PS               55F               21221                                                   
GEWDX47212         8018678038067RACC.DIR. D.12 GUAINA GIUNTO TRIX          00450004500045099999950000000427000000004270000100EURPCE03201703015PS               55F               21221                                                   
GEWDX47216         8018678011992RACC.DIR. D.16 GUAINA GIUNTO TRIX          00450004500045099999950000000435000000004350000100EURPCE03201703015PS               55F               21221                                                   
GEWDX47220         8018678012005RACC.DIR. D.20 GUAINA GIUNTO TRIX          00390003900039099999950000000451000000004510000100EURPCE03201703015PS               55F               21221                                                   
GEWDX47503         8018678013101RAC.PRESSACAVO TX/QX X CAVI 3-6            00300003000030099999950000000020000000000200000001EURPCE03201703015PS               55F               21221                                                   
GEWDX47506         8018678013118RAC.PRESSACAVO TX/QX X CAVI 6-9            00300003000030099999930000000020000000000200000001EURPCE03201703015PS               55F               21221                                                   
GEWDX47509         8018678013125RAC.PRESSACAVO TX/QX X CAVI 9-12           00300003000030099999950000000020000000000200000001EURPCE03201703015PS               55F               21221                                                   
GEWDX47616         8018678035516RACC.MORBIDX D.16 TUBO-GIUNTO-TRIX         00390003900039099999930000000006500000000065000001EURPCE03201703015PS               55F               21221                                                   
GEWDX47620         8018678035523RACC.MORBIDX D.20 TUBO-GIUNTO-TRIX         00360003600036099999930000000007800000000078000001EURPCE03201703015PS               55F               21221                                                   
GEWDX47625         8018678035530RACC.MORBIDX D.25 TUBO-GIUNTO-TRIX         00300003000030099999930000000008300000000083000001EURPCE03201703015PS               55F               21221                                                   
GEWDX51120         8018678009517A 16/20G COLLARE RIAPRIB.GRIG.             01500015000150099999930000000184000000001840000100EURPCE03201703015PS               56F               21221                                                   
GEWDX51232         8018678010094930 COLLARE GRIGIO                         00800008000080099999930000000232000000002320000100EURPCE03201703015PS               56F               21221                                                   
GEWDX51263         8018678010117960 COLLARE GRIGIO                         00400004000040099999930000000370000000003700000100EURPCE03201703015PS               56F               21221                                                   
GEWDX51306         8018678010148935 TASSELLO DIAM. 6 MM.                   00600006000060099999930000000118000000001180000100EURPCE03201703015PS               56F               21221                                                   
GEWDX51308         8018678010131934 TASSELLO DIAM. 8 MM.                   00600006000060099999930000000118000000001180000100EURPCE03201703015PS               56F               21221                                                   
GEWDX51416         8018678031174R 16 MOLLA PIEGATUBI                       00010000100001099999930000000173000000001730000001EURPCE03201703015PS               55F               215                                                     
GEWDX51420         8018678031181R 20 MOLLA PIEGATUBI                       00010000100001099999930000000225000000002250000001EURPCE03201703015PS               55F               215                                                     
GEWDX51425         8018678031198R 25 MOLLA PIEGATUBI                       00005000050000599999930000000269000000002690000001EURPCE03201703015PS               55F               215                                                     
GEWDX51432         8018678031204R 32 MOLLA PIEGATUBI                       00005000050000599999930000000321000000003210000001EURPCE03201703015PS               55F               215                                                     
GEWDX51440         8018678031211R 40 MOLLA PIEGATUBI                       00001000010000199999950000000513000000005130000001EURPCE03201703015PS               55F               215                                                     
GEWDX51450         8018678031228R 50 MOLLA PIEGATUBI                       00001000010000199999950000000668000000006680000001EURPCE03201703015PS               55F               215                                                     
GEWDX51600         8018678031334PT 00 PINZA TAGLIATUBI cod.4097/00         00005000050000599999950000000934000000009340000001EURPCE03201703015PS               55F               215                                                     
GEWDX52016         8018678005786GF 16 GIUNTO PER TUBO PIEGHEVOLE           00200002000020099999930000000140000000001400000100EURPCE03201703015PS               55F               210                                                     
GEWDX52020         8018678005793GF 20 GIUNTO PER TUBO PIEGHEVOLE           00150001500015099999930000000200000000002000000100EURPCE03201703015PS               55F               210                                                     
GEWDX52025         8018678005809GF 25 GIUNTO PER TUBO PIEGHEVOLE           00100001000010099999930000000237000000002370000100EURPCE03201703015PS               55F               210                                                     
GEWDX52032         8018678005816GF 32 GIUNTO PER TUBO PIEGHEVOLE           00075000750007599999930000000336000000003360000100EURPCE03201703015PS               55F               210                                                     
GEWDX52040         8018678005823GF 40 GIUNTO PER TUBO PIEGHEVOLE           00040000400004099999930000000468000000004680000100EURPCE03201703015PS               55F               210                                                     
GEWDX52050         8018678005830GF 50 GIUNTO PER TUBO PIEGHEVOLE           00040000400004099999930000000652000000006520000100EURPCE03201703015PS               55F               210                                                     
GEWDX52063         8018678005847GF 63 GIUNTO PER TUBO PIEGHEVOLE           00025000250002599999950000000949000000009490000100EURPCE03201703015PS               55F               210                                                     
GEWDX52116         8018678004635TF 16 TAPPO PER TUBO PIEGHEVOLE            00500005000050099999950000000127000000001270000100EURPCE03201703015PS               55F               210                                                     
GEWDX52120         8018678004642TF 20 TAPPO PER TUBO PIEGHEVOLE            00400004000040099999930000000133000000001330000100EURPCE03201703015PS               55F               210                                                     
GEWDX52125         8018678004659TF 25 TAPPO PER TUBO PIEGHEVOLE            00250002500025099999930000000138000000001380000100EURPCE03201703015PS               55F               210                                                     
GEWDX52132         8018678004666TF 32 TAPPO PER TUBO PIEGHEVOLE            00125001250012599999930000000265000000002650000100EURPCE03201703015PS               55F               210                                                     
GEWDX52140         8018678004673TF 40 TAPPO PER TUBO PIEGHEVOLE            00100001000010099999950000000604000000006040000100EURPCE03201703015PS               55F               210                                                     
GEWDX52150         8018678004680TF 50 TAPPO PER TUBO PIEGHEVOLE            00075000750007599999950000000623000000006230000100EURPCE03201703015PS               55F               210                                                     
GEWDX52163         8018678004697TF 63 TAPPO PER TUBO PIEGHEVOLE            00050000500005099999950000000652000000006520000100EURPCE03201703015PS               55F               210                                                     
GEWDX52205         8018678019288ST 5 SONDA TIRAFILI 5 MT                   00010000100001099999950000000070500000000705000001EURPCE03201703015PS               55F               210                                                     
GEWDX52210         8018678019301ST 10 SONDA TIRAFILI 10 MT                 00010000100001099999930000000093000000000930000001EURPCE03201703015PS               55F               210                                                     
GEWDX52215         8018678019325ST 15 SONDA TIRAFILI 15 MT                 00010000100001099999930000000120000000001200000001EURPCE03201703015PS               55F               210                                                     
GEWDX52220         8018678019349ST 20 SONDA TIRAFILI 20 MT                 00010000100001099999930000000140000000001400000001EURPCE03201703015PS               55F               210                                                     
GEWDX52225         8018678019363ST 25 SONDA TIRAFILI 25 MT                 00010000100001099999950000000169000000001690000001EURPCE03201703015PS               55F               210                                                     
GEWDX52299         8018678009876TS TESTINA FLESS. X SONDE SUPER            00200002000020099999950000000047000000000470000001EURPCE03201703015PS               55F               210                                                     
GEWDX52305         8018678019387STS 5 SONDA TIRAFILI SUPER 5 MT            00040000400004099999930000000085500000000855000001EURPCE03201703015PS               55F               210                                                     
GEWDX52310         8018678019400STS 10 SONDA TIRAFILI SUPER 10 MT          00025000250002599999930000000125000000001250000001EURPCE03201703015PS               55F               210                                                     
GEWDX52315         8018678019424STS 15 SONDA TIRAFILI SUPER 15 MT          00015000150001599999930000000168000000001680000001EURPCE03201703015PS               55F               210                                                     
GEWDX52320         8018678019448STS 20 SONDA TIRAFILI SUPER 20 MT          00015000150001599999930000000205000000002050000001EURPCE03201703015PS               55F               210                                                     
GEWDX52325         8018678019462STS 25 SONDA TIRAFILI SUPER 25 MT          00015000150001599999930000000246000000002460000001EURPCE03201703015PS               55F               210                                                     
GEWDX52399         8018678009937AS.ANELLO DI CODA X SONDE SUPER            00200002000020099999950000000011500000000115000001EURPCE03201703015PS               55F               210                                                     
GEWDX54008         8018678002044RD 8MG RAC.DIR.ISO.GRI. 8                  00180001800018099999950000000009200000000092000001EURPCE03201703015PS               55F               210                                                     
GEWDX54010         8018678002051RD 10MG RAC.DIR.ISO.GRI.10                 00160001600016099999950000000009400000000094000001EURPCE03201703015PS               55F               210                                                     
GEWDX54012         8018678002075RD 12MG RAC.DIR.ISO.GRI.12                 00100001000010099999930000000009400000000094000001EURPCE03201703015PS               55F               210                                                     
GEWDX54016         8018678002082RD 16MG RAC.DIR.ISO.GRI.16                 00150001500015099999930000000010300000000103000001EURPCE03201703015PS               55F               210                                                     
GEWDX54020         8018678002099RD 20MG RAC.DIR.ISO.GRI.20                 00100001000010099999930000000010700000000107000001EURPCE03201703015PS               55F               210                                                     
GEWDX54022         8018678002068RD 22MG RAC.DIR.ISO.GRI.22                 00100001000010099999950000000011600000000116000001EURPCE03201703015PS               55F               210                                                     
GEWDX54025         8018678002105RD 25MG RAC.DIR.ISO.GRI.25                 00060000600006099999930000000014200000000142000001EURPCE03201703015PS               55F               210                                                     
GEWDX54028         8018678011633RD 28MG RAC.DIR.ISO.GRI.28                 00040000400004099999930000000016000000000160000001EURPCE03201703015PS               55F               210                                                     
GEWDX54032         8018678002112RD 32MG RAC.DIR.ISO.GRI.32                 00030000300003099999930000000023500000000235000001EURPCE03201703015PS               55F               210                                                     
GEWDX54040         8018678002129RD 40MG RAC.DIR.ISO.GRI.40                 00025000250002599999930000000037000000000370000001EURPCE03201703015PS               55F               210                                                     
GEWDX54050         8018678039019RD 50MG RAC.DIR.ISO.GRI.50                 00015000150001599999930000000044500000000445000001EURPCE03201703015PS               55F               210                                                     
GEWDX54108         8018678002259RD 8MN RAC.DIR.ISO.NERO                    00180001800018099999950000000009200000000092000001EURPCE03201703015PS               55F               210                                                     
GEWDX54110         8018678002266RD 10MN RAC.DIR.ISO.NERO                   00160001600016099999950000000009400000000094000001EURPCE03201703015PS               55F               210                                                     
GEWDX54112         8018678002303RD 12MN RAC.DIR.ISO.NERO                   00100001000010099999930000000009400000000094000001EURPCE03201703015PS               55F               210                                                     
GEWDX54116         8018678002310RD 16MN RAC.DIR.ISO.NERO                   00150001500015099999930000000010300000000103000001EURPCE03201703015PS               55F               210                                                     
GEWDX54120         8018678002327RD 20MN RAC.DIR.ISO.NERO                   00100001000010099999930000000010700000000107000001EURPCE03201703015PS               55F               210                                                     
GEWDX54122         8018678002273RD 22MN RAC.DIR.ISO.NERO                   00100001000010099999950000000011600000000116000001EURPCE03201703015PS               55F               210                                                     
GEWDX54125         8018678002334RD 25MN RAC.DIR.ISO.NERO                   00060000600006099999950000000014200000000142000001EURPCE03201703015PS               55F               210                                                     
GEWDX54128         8018678002280RD 28MN RAC.DIR.ISO.NERO                   00040000400004099999930000000016000000000160000001EURPCE03201703015PS               55F               210                                                     
GEWDX54132         8018678002341RD 32MN RAC.DIR.ISO.NERO                   00030000300003099999950000000023500000000235000001EURPCE03201703015PS               55F               210                                                     
GEWDX54140         8018678002358RD 40MN RAC.DIR.ISO.NERO                   00025000250002599999950000000037000000000370000001EURPCE03201703015PS               55F               210                                                     
GEWDX54150         8018678039026RD 50MN RAC.DIR.ISO.NERO                   00015000150001599999950000000044500000000445000001EURPCE03201703015PS               55F               210                                                     
GEWDX54208         8018678002136RD 8GG RAC.DIR.GRI.GAS                     00180001800018099999930000000009500000000095000001EURPCE03201703015PS               55F               210                                                     
GEWDX54210         8018678002143RD 10GG RAC.DIR.GRI.GAS                    00160001600016099999930000000010300000000103000001EURPCE03201703015PS               55F               210                                                     
GEWDX54212         8018678002150RD 12GG RAC.DIR.GRI.GAS                    00100001000010099999930000000010300000000103000001EURPCE03201703015PS               55F               210                                                     
GEWDX54214         8018678002167RD 14GG RAC.DIR.GRI.GAS                    00150001500015099999930000000010300000000103000001EURPCE03201703015PS               55F               210                                                     
GEWDX54216         8018678002174RD 16GG RAC.DIR.GRI.GAS                    00150001500015099999930000000010300000000103000001EURPCE03201703015PS               55F               210                                                     
GEWDX54220         8018678002181RD 20GG RAC.DIR.GRI.GAS                    00100001000010099999930000000011600000000116000001EURPCE03201703015PS               55F               210                                                     
GEWDX54222         8018678002198RD 22GG RAC.DIR.GRI.GAS                    00100001000010099999930000000013200000000132000001EURPCE03201703015PS               55F               210                                                     
GEWDX54225         8018678002204RD 25GG RAC.DIR.GRI.GAS                    00060000600006099999930000000015000000000150000001EURPCE03201703015PS               55F               210                                                     
GEWDX54228         8018678002211RD 28GG RAC.DIR.GRI.GAS                    00040000400004099999930000000016000000000160000001EURPCE03201703015PS               55F               210                                                     
GEWDX54232         8018678002228RD 32GG RAC.DIR.GRI.GAS                    00030000300003099999930000000021000000000210000001EURPCE03201703015PS               55F               210                                                     
GEWDX54235         8018678002235RD 35GG RAC.DIR.GRI.GAS                    00030000300003099999930000000021500000000215000001EURPCE03201703015PS               55F               210                                                     
GEWDX54240         8018678002242RD 40GG RAC.DIR.GRI.GAS                    00025000250002599999930000000038500000000385000001EURPCE03201703015PS               55F               210                                                     
GEWDX54250         8018678002297RD 50GG RAC.DIR.GRI.GAS                    00015000150001599999930000000047000000000470000001EURPCE03201703015PS               55F               210                                                     
GEWDX54308         8018678002365RD 8GN RAC.DIR.GAS NERO                    00180001800018099999950000000009500000000095000001EURPCE03201703015PS               55F               210                                                     
GEWDX54310         8018678002372RD 10GN RAC.DIR.GAS NERO                   00160001600016099999950000000010300000000103000001EURPCE03201703015PS               55F               210                                                     
GEWDX54312         8018678002389RD 12GN RAC.DIR.GAS NERO                   00100001000010099999930000000010300000000103000001EURPCE03201703015PS               55F               210                                                     
GEWDX54314         8018678002396RD 14GN RAC.DIR.GAS NERO                   001500015000150999999A0000000010300000000103000001EURPCE03201703015PS               55F               210                                                     
GEWDX54316         8018678002402RD 16GN RAC.DIR.GAS NERO                   00150001500015099999930000000010300000000103000001EURPCE03201703015PS               55F               210                                                     
GEWDX54320         8018678002419RD 20GN RAC.DIR.GAS NERO                   00100001000010099999950000000011600000000116000001EURPCE03201703015PS               55F               210                                                     
GEWDX54322         8018678002426RD 22GN RAC.DIR.GAS NERO                   00100001000010099999950000000013200000000132000001EURPCE03201703015PS               55F               210                                                     
GEWDX54325         8018678002433RD 25GN RAC.DIR.GAS NERO                   00060000600006099999930000000015000000000150000001EURPCE03201703015PS               55F               210                                                     
GEWDX54328         8018678002440RD 28GN RAC.DIR.GAS NERO                   00040000400004099999950000000016000000000160000001EURPCE03201703015PS               55F               210                                                     
GEWDX54332         8018678002457RD 32GN RAC.DIR.GAS NERO                   00030000300003099999950000000021000000000210000001EURPCE03201703015PS               55F               210                                                     
GEWDX54335         8018678002464RD 35GN RAC.DIR.GAS NERO                   00030000300003099999950000000021500000000215000001EURPCE03201703015PS               55F               210                                                     
GEWDX54340         8018678002471RD 40GN RAC.DIR.GAS NERO                   00025000250002599999950000000038500000000385000001EURPCE03201703015PS               55F               210                                                     
GEWDX54350         8018678002488RD 50GN RAC.DIR.GAS NERO                   00015000150001599999950000000047000000000470000001EURPCE03201703015PS               55F               210                                                     
GEWDX54408         8018678002495RD 8PG 7G RAC.DIR.GRIGIO                   00180001800018099999950000000009500000000095000001EURPCE03201703015PS               55F               210                                                     
GEWDX54410         8018678002501RD 10PG 7G RAC.DIR.GRIGIO                  00160001600016099999930000000010300000000103000001EURPCE03201703015PS               55F               210                                                     
GEWDX54411         8018678002518RD 10PG 9G RAC.DIR.GRIGIO                  00160001600016099999930000000010300000000103000001EURPCE03201703015PS               55F               210                                                     
GEWDX54412         8018678002525RACCORDO GIREVOLE PG11 ISOLANTE M20 IP65   00100001000010099999930000000010300000000103000001EURPCE03201703015PS               55F               210                                                     
GEWDX54413         8018678002532RD 12PG 13,5G RAC.DIR.GRIGIO               00100001000010099999930000000010300000000103000001EURPCE03201703015PS               55F               210                                                     
GEWDX54414         8018678002549RD 14PG 13,5G RAC.DIR.GRIGIO               00150001500015099999930000000010300000000103000001EURPCE03201703015PS               55F               210                                                     
GEWDX54416         8018678002556RACCORDO GIREVOLE PG13,5 ISOL.M20 IP65     00150001500015099999930000000010300000000103000001EURPCE03201703015PS               55F               210                                                     
GEWDX54417         8018678002563RACCORDO GIREVOLE PG16 ISOLANTE M20 IP65   00150001500015099999930000000011200000000112000001EURPCE03201703015PS               55F               210                                                     
GEWDX54420         8018678002570RACCORDO GIREVOLE PG21 ISOLANTE M20 IP65   00100001000010099999930000000011600000000116000001EURPCE03201703015PS               55F               210                                                     
GEWDX54422         8018678002587RD 22PG 21G RAC.DIR.GRIGIO                 00100001000010099999930000000013500000000135000001EURPCE03201703015PS               55F               210                                                     
GEWDX54425         8018678002594RACCORDO GIREVOLE PG29 ISOLANTE M20 IP65   00060000600006099999930000000016000000000160000001EURPCE03201703015PS               55F               210                                                     
GEWDX54428         8018678002600RD 28PG 29G RAC.DIR.GRIGIO                 00040000400004099999930000000017700000000177000001EURPCE03201703015PS               55F               210                                                     
GEWDX54432         8018678002617RACCORDO GIREVOLE PG36 ISOLANTE M20 IP65   00030000300003099999930000000021000000000210000001EURPCE03201703015PS               55F               210                                                     
GEWDX54435         8018678002624RD 35PG 36G RAC.DIR.GRIGIO                 00030000300003099999950000000021500000000215000001EURPCE03201703015PS               55F               210                                                     
GEWDX54508         8018678002631RD 8PG 7N RAC.DIR.NERO                     00180001800018099999950000000009500000000095000001EURPCE03201703015PS               55F               210                                                     
GEWDX54510         8018678002648RD 10PG 7N RAC.DIR.NERO                    00160001600016099999930000000010300000000103000001EURPCE03201703015PS               55F               210                                                     
GEWDX54511         8018678002655RD 10PG 9N RAC.DIR.NERO                    00160001600016099999930000000010300000000103000001EURPCE03201703015PS               55F               210                                                     
GEWDX54512         8018678002662RD 12PG 11N RAC.DIR.NERO                   00100001000010099999930000000010300000000103000001EURPCE03201703015PS               55F               210                                                     
GEWDX54513         8018678002679RD 12PG 13,5N RAC.DIR.NERO                 00100001000010099999930000000010300000000103000001EURPCE03201703015PS               55F               210                                                     
GEWDX54514         8018678002686RD 14PG 13,5N RAC.DIR.NERO                 00150001500015099999930000000010300000000103000001EURPCE03201703015PS               55F               210                                                     
GEWDX54516         8018678002693RD 16PG 13,5N RAC.DIR.NERO                 00150001500015099999930000000010300000000103000001EURPCE03201703015PS               55F               210                                                     
GEWDX54517         8018678002709RD 16PG 16N RAC.DIR.NERO                   00150001500015099999930000000011200000000112000001EURPCE03201703015PS               55F               210                                                     
GEWDX54520         8018678002716RD 20PG 21N RAC.DIR.NERO                   00100001000010099999950000000011600000000116000001EURPCE03201703015PS               55F               210                                                     
GEWDX54522         8018678002723RD 22PG 21N RAC.DIR.NERO                   00100001000010099999950000000013500000000135000001EURPCE03201703015PS               55F               210                                                     
GEWDX54525         8018678002730RD 25PG 29N RAC.DIR.NERO                   00060000600006099999950000000016000000000160000001EURPCE03201703015PS               55F               210                                                     
GEWDX54528         8018678002747RD 28PG 29N RAC.DIR.NERO                   00040000400004099999950000000017700000000177000001EURPCE03201703015PS               55F               210                                                     
GEWDX54532         8018678002754RD 32PG 36N RAC.DIR.NERO                   00030000300003099999950000000021000000000210000001EURPCE03201703015PS               55F               210                                                     
GEWDX54535         8018678002761RD 35PG 36N RAC.DIR.NERO                   00030000300003099999950000000021500000000215000001EURPCE03201703015PS               55F               210                                                     
GEWDX56008         8018678003737RUN 8G. RACC.UNIV.DIR.ISO 12 GRIGIO        001600016000160999999A0000000010700000000107000001EURPCE03201703015PS               55F               210                                                     
GEWDX56010         8018678003744RUN 10G. RACC.UNIV.DIR.ISO 16 GRIGIO       001700017000170999999A0000000010700000000107000001EURPCE03201703015PS               55F               210                                                     
GEWDX56012         8018678003751RUN 12G. RACC.UNIV.DIR.ISO 16 GRIGIO       00150001500015099999950000000010700000000107000001EURPCE03201703015PS               55F               210                                                     
GEWDX56014         8018678003768RUN 14G. RACC.UNIV.DIR.ISO 16 GRIGIO       001300013000130999999A0000000010700000000107000001EURPCE03201703015PS               55F               210                                                     
GEWDX56016         8018678003775RUN 16G. RACC.UNIV.DIR.ISO 20 GRIGIO       00110001100011099999950000000011200000000112000001EURPCE03201703015PS               55F               210                                                     
GEWDX56022         8018678003782RUN 22G. RACC.UNIV.DIR.ISO 25 GRIGIO       00050000500005099999950000000013200000000132000001EURPCE03201703015PS               55F               210                                                     
GEWDX56025         8018678003799RUN 25G. RACC.UNIV.DIR.ISO 25 GRIGIO       00050000500005099999950000000016500000000165000001EURPCE03201703015PS               55F               210                                                     
GEWDX56028         8018678003805RUN 28G. RACC.UNIV.DIR.ISO 32 GRIGIO       00040000400004099999950000000017700000000177000001EURPCE03201703015PS               55F               210                                                     
GEWDX56040         8018678003812RUN 40G. RACC.UNIV.DIR.ISO 40 GRIGIO       00015000150001599999950000000039500000000395000001EURPCE03201703015PS               55F               210                                                     
GEWDX56050         8018678003829RUN 50G. RACC.UNIV.DIR.ISO 50 GRIGIO       00012000120001299999950000000051000000000510000001EURPCE03201703015PS               55F               210                                                     
GEWDX56208         8018678003157RACC.FISSO D.GAS RUN-G GAS 1/4'' D.8 G.    00160001600016099999950000000010700000000107000001EURPCE03201703015PS               55F               210                                                     
GEWDX56210         8018678003164RACC.FISSO D.GAS RUN-G GAS 1/4'' D.10 G.   00170001700017099999950000000010700000000107000001EURPCE03201703015PS               55F               210                                                     
GEWDX56212         8018678003171RACC.FISSO D.GAS RUN-G GAS 3/8'' D.12 G.   00150001500015099999950000000010700000000107000001EURPCE03201703015PS               55F               210                                                     
